:020000040800F2
:10000000D809002025210008E9020008EB020008B9
:10001000EF020008F3020008F702000800000000E9
:10002000000000000000000000000000FB020008CB
:10003000FD02000800000000FF02000801030008A4
:100040003F2100083F2100083F2100083F21000810
:100050003F2100083F2100083F2100083F21000800
:100060003F2100083F2100083F2100083F210008F0
:100070003F2100083F2100083F2100083F210008E0
:100080003F2100083F2100083F2100080000000038
:100090000000000000000000000000003F210008F8
:1000A0003F2100083F2100083F2100083F210008B0
:1000B0003F210008FF280008392900083F210008D7
:1000C0003F2100083F2100083F2100083F21000890
:1000D0003F2100086F2E0008AD2E00080000000030
:1000E000DB2900083F2100083F2100080000000034
:1000F0000000000000000000000000003F21000898
:10010000000000003F2100083F2100083F210008B7
:1001100000000000000000000000000000000000DF
:100120003F2100083F2100083F2100083F2100082F
:100130003F21000800000000000000000000000057
:100140000000000000000000000000003F21000847
:100150003F2100083F2100083F210008C52E00086C
:100160003F2100083F2100080000000000000000BF
:10017000000000000000000000000000000000007F
:10018000000000003F210008000000000000000007
:100190003F21000800F002F800F04FF80AA090E8B4
:1001A000000C82448344AAF10107DA4501D100F032
:1001B00044F8AFF2090EBAE80F0013F0010F18BFB0
:1001C000FB1A43F001031847AC3F0000CC3F00008E
:1001D000103A24BF78C878C1FAD8520724BF30C873
:1001E00030C144BF04680C60704700000023002445
:1001F00000250026103A28BF78C1FBD8520728BF37
:1002000030C148BF0B607047662903F03E87632901
:1002100003F09081732903F09581002070471FB58A
:1002200003F02EFF03F0A4F904000020002103F0E6
:1002300011FFE0601FBD10B510BD03F0B5FA114607
:10024000FFF7EDFF00F008F803F0D3FA03B4FFF76F
:10025000F2FF03BC02F0A2FC02F030FC02F098FCBA
:1002600002F0E2FB4FF4165002F0CFFC4FF41650B0
:1002700002F021FD02F074FB01F09DFF02F0AEF8E8
:1002800000200D49087516E001200C4908600C4952
:10029000C1F8880200200B49086002F04EF90A48B4
:1002A0000078782807DB09A002F028FE00200D491D
:1002B000087005490870E7E765010020A80241427F
:1002C00000804142940240420000002041542B4DE6
:1002D00049504C5550444154453D302C3630302C1B
:1002E000300D0A0040000020704700BFFEE700BF4D
:1002F000FEE700BFFEE700BFFEE7704770477047AC
:10030000704700000CB5002001900090754800680F
:1003100040F480307349086000BF7248006800F400
:10032000003000900198401C0190009818B9019885
:10033000B0F5A04FF1D16B48006800F4003010B167
:100340000120009001E0002000900098012844D195
:1003500064484030006840F0805062494031086095
:100360006148006840F440405F4908605D480830DB
:1003700000685C4908310860084600680860084663
:10038000006840F4805008605848091F0860081F42
:10039000006840F08070091F086000BF5148006885
:1003A00000F000700028F9D040F202705049086057
:1003B0004C480830006820F003004A4908310860C2
:1003C0000846006840F00200086000BF4548083059
:1003D000006800F00C000828F8D10CBD10B54548A5
:1003E000006840F47000434908603E48006840F0EF
:1003F00001003C49086000203A490831086039484A
:1004000000683D490840374908603C48091D0860BC
:10041000081F006820F48020091F0860002031496F
:100420000C310860FFF76EFF4FF0006031498039F2
:10043000086010BD70B500200022022300240221B4
:10044000284D08352D6805F00C0020B1042806D091
:10045000082834D107E02A4D2A4E356033E02A4D72
:10046000284E35602FE01F4D2D1D2D68C5F380549B
:100470001C4D2D1D2D6805F03F0154B1224DB5FBDB
:10048000F1F5184E361D3668C6F3881605FB06F2E0
:1004900009E01B4DB5FBF1F5124E361D3668C6F36B
:1004A000881605FB06F20F4D2D1D2D68C5F301457D
:1004B0006D1C6B00B2FBF3F5124E356003E0104D7E
:1004C000104E356000BF00BF064D08352D68C5F3DE
:1004D00003150E4E705D0B4D2D68C540094E3560FD
:1004E00070BD000000380240007000400854410711
:1004F000003C024088ED00E0FFFFF6FE10300024D3
:100500000024F4000400002000127A0008000020FB
:1005100032490143324A1160704770B5002100230F
:100520000F22C4781CB32E4C246804F4E064C4F594
:10053000E064C4F30721C1F10404E3B20A41447842
:100540009C40E1B28478144021430C07210E254CD5
:1005500005786155047804F01F050124AC40057846
:100560006D11AD0005F1E025C5F8004109E0047802
:1005700004F01F050124AC401B4D0678761145F8A8
:10058000264070BD194A0A400243154B1B1F1A60D2
:10059000704739B1124A121D12680243104B1B1DDD
:1005A0001A6006E00E4A121D126882430C4B1B1D96
:1005B0001A607047042808D14FF0E021096941F022
:1005C00004014FF0E022116107E04FF0E0210969DA
:1005D00021F004014FF0E022116170470000FA059C
:1005E0000CED00E000E400E080E100E080FFFF1F90
:1005F000002041490860091D0860091D0860091DA7
:1006000008603E483C4914310860704700213A496F
:100610008279002A3AD00A46126803689A430B4648
:100620001A600A1D126803689A430B1D1A6002794A
:1006300011440A6803681A430A602F4A0832126894
:1006400003689A432C4B08331A601A1D126803681A
:100650009A43294B0C331A604279102A0ED11A1F83
:10066000126803681A43244B08331A601A1D126873
:1006700003681A43204B0C331A600DE01E4942797F
:1006800011440A6803681A430A6005E002791144BC
:100690000A6803689A430A6070470021016001718B
:1006A0000C21417100218171704713491031096893
:1006B0000143114A103211607047014600200E4A72
:1006C000143212680A400AB1012000E0002070478D
:1006D000094914310860704701460020064A143267
:1006E00012680A400AB1012000E000207047024968
:1006F0001431086070470000003C0140FFFF7F009C
:1007000010B504469848844208D10121084600F0FB
:100710007CFB0021012000F078FB76E093488442C6
:1007200008D10121022000F070FB0021022000F01E
:100730006CFB6AE08E48844208D10121042000F05D
:1007400064FB0021042000F060FB5EE089488442E5
:1007500008D10121082000F058FB0021082000F0FA
:1007600054FB52E08448844208D10121102000F05B
:100770004CFB0021102000F048FB46E07F488442FB
:1007800008D10121202000F040FB0021202000F0B2
:100790003CFB3AE07A48844208D10121402000F035
:1007A00034FB0021402000F030FB2EE075488442ED
:1007B00008D10121802000F028FB0021802000F0DA
:1007C00024FB22E07048844208D10121801500F00A
:1007D0001CFB0021A01500F018FB16E06B488442BA
:1007E00008D10121401500F010FB0021601500F038
:1007F0000CFB0AE06648844207D10121001500F095
:1008000004FB0021201500F000FB10BDF0B50A46E6
:1008100000210023002400BF3DE0012505FA01F37B
:10082000156805EA03049C4234D105684F0003268D
:10083000BE40B543056015794E00B54006683543A6
:1008400005601579012D02D01579022D16D1856824
:100850004F000326BE40B543856055794E00B54034
:10086000866835438560456801268E40B5434560FE
:10087000456896798E40B6B235434560C5684F00ED
:100880000326BE40B543C560D5794E00B540C66865
:100890003543C560491C1029BFD3F0BD4FF6FF7129
:1008A00001600021017141718171C171704708B50A
:1008B0004FF480320092009A0A430092009AC2617B
:1008C000C161009AC261C2690092C269009208BD0A
:1008D0000246002013690B400BB1012000E000200C
:1008E00070470146086980B270470246002053698C
:1008F0000B400BB1012000E0002070470146486921
:1009000080B2704701837047418370470AB1018309
:1009100000E0418370474161704742694A4042614B
:100920007047F0B5002300244D07ED0E02FA05F3E1
:10093000CE1000F1200555F826504E07F70E0F2671
:10094000BE40B543CF1000F1200646F82750CE1028
:1009500000F1200555F8265045EA0304CE1000F1B9
:10096000200545F82640F0BD00000240000402408A
:1009700000080240000C0240001002400014024037
:1009800000180240001C02400020024000240240E7
:10099000002802400E49086070470D4948607047C2
:1009A0000B49886070474AF6AA20094908607047D9
:1009B0004CF6CC4006490860704701460020044AC6
:1009C000D2680A400AB1012000E000207047000010
:1009D00000300040FA48006840F00100F849086023
:1009E0000020F74908310860F5480068F5490840DB
:1009F000F3490860F448091D0860F448F04984315F
:100A00000860EF48006820F48020ED49086000206D
:100A1000EB490C310860EA498C31086070470021CD
:100A2000E74A921C117011460870704710B50146D4
:100A30000022002300204A11012A02D1E04C236841
:100A400008E0022A03D1DE4C7034236802E0DC4C5B
:100A50007434236801F01F02012494401C400CB13F
:100A6000012000E0002010BD38B5002000900024D7
:100A7000002500BF3120FFF7D9FF05460098401C34
:100A800000900098B0F5A04F01D0002DF2D0312099
:100A9000FFF7CCFF08B1012400E00024204638BD58
:100AA00001460020C64A106820F0F80040EAC10064
:100AB00010607047C649086070470021C04A703214
:100AC00011701170012802D004280AD104E001211C
:100AD000BB4A7032117005E00521B94A70321170BD
:100AE00000E000BF00BF7047BA490860704770B5AA
:100AF000049C41EA82150126C6EB530645EA0645E9
:100B0000054345EA0465AE4E361D356070BDB049FB
:100B100008667047820142EA0172A94B84331A6069
:100B20007047AB498866704710B5830143EA01639B
:100B300043EA0273A24C8834236010BDA4490867BD
:100B40007047A349C8647047024600209C4B083395
:100B5000186820F0EC6042EA01031843984B083310
:100B60001860704702460020954B0833186820F043
:100B7000784042EA01031843914B083318607047EC
:100B8000014600208E4A0832106820F00300084316
:100B9000106070478A480830006800F00C00704709
:100BA00001460020864A0832106820F0F000084311
:100BB0001060704701460020814A0832106820F416
:100BC000E050084310607047014600207C4A08321C
:100BD000106820F4604040EAC10010607047F0B532
:100BE000002100220024022500260223744F08372A
:100BF0003F6807F00C0121B1042905D0082937D13D
:100C000005E0754F076036E0744F076033E06C4FC6
:100C10003F1D3F68C7F38056694F3F1D3F6807F08F
:100C20003F036EB16D4FB7FBF3F7DFF894C10CF1E2
:100C3000040CDCF800C0CCF3881C07FB0CF40CE0BF
:100C4000654FB7FBF3F7DFF878C10CF1040CDCF863
:100C500000C0CCF3881C07FB0CF4594F3F1D3F68C4
:100C6000C7F301477F1C7D00B4FBF5F7076002E086
:100C7000594F076000BF00BF514F08373F6807F06A
:100C8000F0010909564F7A5C0768D74047604C4F1E
:100C900008373F6807F4E051890A514F7A5C47688A
:100CA000D7408760464F08373F6807F46041490BDB
:100CB0004B4F7A5C4768D740C760F0BD002100F415
:100CC0004072B2F5407F0AD13D4A0832116821F4E2
:100CD000F811444A02401143394A08321160384A37
:100CE00070321268C0F30B031A43354B70331A602D
:100CF00070473849443908607047364940390860C0
:100D00007047394908607047014600202C4A8C32F0
:100D1000106820F01F004A1E1043294A8C321060D0
:100D2000704701460020264A8C32106820F4F850A3
:100D30004A1E40EA0220224A8C3210607047014667
:100D400000201F4A8C32106820F4403008431060A5
:100D5000704726490860704739B1194A3032126825
:100D60000243174B30331A6006E0154A30321268DE
:100D70008243134B30331A60704739B1104A343212
:100D8000126802430E4B34331A6006E00C4A3432C8
:100D9000126882430A4B34331A60704739B1084AEB
:100DA000403212680243064B40331A6006E0044AA0
:100DB000403212688243024B40331A607047000091
:100DC00000380240FFFFF6EA103000240030002017
:100DD00000004742800E47420024F40000127A00CF
:100DE00018000020FFFCFF0F5C014742E011474262
:100DF00029B1684A12680243664B1A6004E0654AEA
:100E000012688243634B1A60704739B1614A343AC1
:100E1000126802435F4B343B1A6006E05D4A343A85
:100E2000126882435B4B343B1A60704739B1594AB0
:100E3000303A12680243574B303B1A6006E0554A7D
:100E4000303A12688243534B303B1A60704739B1D5
:100E5000504A243A126802434E4B243B1A6006E083
:100E60004C4A243A126882434A4B243B1A6070472A
:100E700039B1484A203A12680243464B203B1A6077
:100E800006E0444A203A12688243424B203B1A60F3
:100E9000704739B13F4A0C32126802433D4B0C3364
:100EA0001A6006E03B4A0C3212688243394B0C331D
:100EB0001A60704739B1374A103212680243354B15
:100EC00010331A6006E0334A103212688243314B05
:100ED00010331A60704739B12E4A1C32126802432F
:100EE0002C4B1C331A6006E02A4A1C3212688243DB
:100EF000284B1C331A60704739B1264A20321268D9
:100F00000243244B20331A6006E0224A2032126842
:100F10008243204B20331A607047012808D11D49B5
:100F20002C31096841F008011A4A2C32116007E09F
:100F300018492C31096821F00801164A2C32116039
:100F4000704739B1134A373A12780243114B373B95
:100F50001A7006E00F4A373A127882430D4B373B3E
:100F60001A7070470B483030006840F080700949B3
:100F700030310860704701460020064A383A12684E
:100F80000A400AB1012000E00020704701493639CB
:100F9000087070474438024010B501218803FFF7FC
:100FA00067FF00214FF48040FFF762FF10BD1C492E
:100FB000086070471B490862704730B500228B07F4
:100FC0001C0F0F2303FA04F2154B08338C1053F84F
:100FD00024309343124C08348D1044F825302346B6
:100FE0008C1053F824308C07240F00FA04F42343A8
:100FF0000B4C08348D1044F8253030BD0949DC31E4
:101000000860704708490860704700200449203193
:10101000096801F4807109B1012000E000207047E7
:1010200000380140000027420004274210B5044662
:10103000FE48844208D101210846FFF719FF00212C
:101040000120FFF715FF9DE0B4F1804F08D1012189
:101050000846FFF7FCFE00210120FFF7F8FE91E0B3
:10106000F348844208D101210220FFF7F0FE00215D
:101070000220FFF7ECFE85E0EE48844208D1012112
:101080000420FFF7E4FE00210420FFF7E0FE79E0F2
:10109000E948844208D101210820FFF7D8FE002149
:1010A0000820FFF7D4FE6DE0E448844208D1012116
:1010B0001020FFF7CCFE00211020FFF7C8FE61E0F2
:1010C000DF48844208D101212020FFF7C0FE002123
:1010D0002020FFF7BCFE55E0DA48844208D1012108
:1010E0000220FFF7C5FE00210220FFF7C1FE49E004
:1010F000D548844209D101210804FFF7B9FE002137
:101100004FF48030FFF7B4FE3CE0D048844209D170
:1011100001214804FFF7ACFE00214FF40030FFF737
:10112000A7FE2FE0CA48844209D101218804FFF7B5
:101130009FFE00214FF48020FFF79AFE22E0C54871
:10114000844208D101214020FFF781FE0021402088
:10115000FFF77DFE16E0C048844208D101218020BF
:10116000FFF775FE00218020FFF771FE0AE0BB4803
:10117000844207D101218015FFF769FE0021A015E7
:10118000FFF765FE10BD00220288A84B98420ED0E2
:10119000AC4B98420BD0B0F1804F08D0A44B984292
:1011A00005D0A44B984202D0A34B984204D14FF6ED
:1011B0008F731A404B881A43A04B984207D0A04B1C
:1011C000984204D04FF6FF431A400B891A4302801D
:1011D0004B68C3620B880385944B984202D0994BAD
:1011E000984201D18B7A03860123838270474FF0A6
:1011F000FF3141600021018001814180817270478F
:101200000185828270470A46002101884FF68F735C
:10121000194011430180704741627047C1627047B5
:101220000146486A70470146088D704721B102881F
:1012300042F00202028004E002884FF6FD731A4079
:101240000280704721B1028842F00402028004E06B
:1012500002884FF6FB731A400280704721B1028862
:1012600042F08002028004E002884FF67F731A4049
:101270000280704702884FF6F7731A400280028896
:101280000A430280704702884FF6FF431A400280EB
:1012900002880A430280704721B1028842F00102AD
:1012A000028004E002884FF6FE731A400280704705
:1012B00070B5002400220023058C4FF6FE763540E1
:1012C0000584028C8388048B4FF68F752C40B51EE5
:1012D0002C400D882C43751E2A408D892A434D8849
:1012E0002A43524DA84202D0564DA84213D14FF680
:1012F000F7752A40CD892A434FF6FB752A408D8821
:101300002A434FF6FF652B404FF6FF552B400D8AC1
:101310002B434D8A2B43838004838D68456302846D
:1013200070BD70B5002400220023058C4FF6EF76C7
:1013300035400584028C8388048B48F6FF752C4069
:101340004FF6FF452C400D884FF6FF7606EA05253F
:101350002C434FF6DF752A408D8906EA05152A438E
:101360004D8806EA05152A43304DA84202D0354D76
:10137000A8421DD14FF67F752A40CD894FF6FF76E2
:1013800006EA05152A434FF6BF752A408D8806EAFE
:1013900005152A434FF6FF352B404FF2FF752B40C2
:1013A0000D8A06EA85052B434D8A06EA85052B43FF
:1013B000838004838D688563028470BD70B50024CA
:1013C00000220023058C4FF6FF6635400584028C11
:1013D0008388848B4FF68F752C404FF6FC752C401C
:1013E0000D882C434FF6FF552A408D894FF6FF7626
:1013F00006EA05252A434D8806EA05252A430B4DB2
:10140000A84202D00F4DA84238D14FF2FF752A40B2
:10141000CD894FF6FF7606EA05252A434FF6FF35BC
:101420002A408D8806EA05252A4319E0000001407C
:101430000004004000080040000C00400010004084
:1014400000140040000401400040014000440140FD
:101450000048014000180040001C004000200040EF
:101460004EF6FF752B404DF6FF752B400D8A06EAB0
:1014700005152B434D8A06EA05152B43838084838B
:101480008D68C563028470BD70B5002200230024FE
:10149000058C4EF6FF7635400584038C8488828B5C
:1014A00048F6FF752A404FF6FF452A400D884FF653
:1014B000FF7606EA05252A434DF6FF752B408D89F8
:1014C00006EA05352B434D8806EA05352B43FE4DCC
:1014D000A84202D0FD4DA84208D14BF6FF752C4022
:1014E0000D8A4FF6FF7606EA85152C4384808283A9
:1014F0008D680564038470BD002101804180818076
:1015000081608181C18101824182704770B503464B
:10151000002000241846183001258D40ACB21D8CE7
:10152000A5431D8409B108290AD100EB61000568B3
:101530004FF68F76354005600568154305600FE06E
:101540000D1FC5F34E052844056848F6FF76354063
:10155000056005684FF6FF7606EA0226354305600A
:1015600070BD4163704781637047C1637047016418
:1015700070470A460021018B4FF68F7319401143C3
:10158000018370470A460021018B48F6FF7319401A
:101590004FF6FF7303EA02231943018370470A469B
:1015A0000021818B4FF68F7319401143818370475F
:1015B0000A460021818B48F6FF7319404FF6FF73EE
:1015C00003EA02231943818370470A460021018BF5
:1015D0004FF6F77319401143018370470A46002103
:1015E000018B4FF2FF7319404FF6FF7303EA02239A
:1015F0001943018370470A460021818B4FF6F77328
:1016000019401143818370470A460021818B4FF2B4
:10161000FF7319404FF6FF7303EA022319438183D6
:1016200070470A460021018B4FF6FB7319401143A6
:10163000018370470A460021018B4FF6FF331940A2
:101640004FF6FF7303EA02231943018370470A46EA
:101650000021818B4FF6FB73194011438183704742
:101660000A460021818B4FF6FF3319404FF6FF7376
:1016700003EA02231943818370470A460021018B44
:101680004FF67F7319401143018370470A460021CA
:10169000018BC1F30E014FF6FF7303EA02231943D6
:1016A000018370470A460021818B4FF67F731940F2
:1016B0001143818370470A460021818BC1F30E01DB
:1016C0004FF6FF7303EA02231943818370470A46EA
:1016D0000021018C4FF6FD731940114301847047BE
:1016E0000A460021018C4FF6F7731940114301841B
:1016F00070470A460021018C4FF6DF7319404FF600
:10170000FF7303EA02131943018470470A4600215C
:10171000018C4FF67F7319404FF6FF7303EA0213F3
:101720001943018470470A460021018C4FF6FF538C
:1017300019404FF6FF7303EA0223194301847047EF
:101740000A460021018C4FF2FF7319404FF6FF73D8
:1017500003EA02231943018470470A460021018CE1
:101760004DF6FF7319404FF6FF7303EA0233194336
:101770000184704730B5002301248C40A3B2048C4F
:101780009C430484048C02FA01F5ADB22C4304841A
:1017900030BD30B5002304248C40A3B2048C9C439C
:1017A0000484048C02FA01F5ADB22C43048430BDEC
:1017B000828B4FF2FF331A408283828B4FF6FF7386
:1017C00003EA01231A4382837047F0B50C4615469D
:1017D000002100220026078C4EF6FF7C07EA0C074A
:1017E0000784818B028C4FF6FF7707EA043640F6B8
:1017F000FF4739404FF6FF7707EA052739434FF691
:10180000FF7707EA0337394345F6FF773A4046F456
:1018100080573A4381830284F0BD828B4FF6F37385
:101820001A408283828B0A4382837047F0B50C464C
:101830001546002100220026078C4FF6FF6C07EAB0
:101840000C070784818B028C4FF6FF7707EA04268A
:101850004FF60C7739404FF6FF7707EA03172F430F
:1018600039434FF2FF573A4046F480773A43818339
:101870000284F0BD028B4FF2FF331A400283028BC9
:101880004FF6FF7303EA01231A4302837047F0B552
:101890000C461546002100220026078C4FF6EF7CEF
:1018A00007EA0C070784018B028C4FF6FF7707EAE3
:1018B000041640F6FF4739404FF6FF7707EA033733
:1018C00039434FF6FF7703E0000001400004014078
:1018D00007EA052739434FF65F773A4046F010078D
:1018E0003A4301830284F0BD028B4FF6F3731A4032
:1018F0000283028B0A4302837047F0B50C461546FB
:1019000000210022068C4FF6FE773E400684018BB4
:10191000028C4FF60C7631407E1C06EA03162E43ED
:1019200031434FF6F576324044F0010632430183ED
:101930000284F0BD70B505460C46208850B9238955
:10194000A28861882846FFF7D8FFE1882846FFF77C
:10195000CBFF25E0208804280AD12389A28861884A
:101960002846FFF794FFE1882846FFF783FF17E03A
:10197000208808280AD12389A28861882846FFF791
:1019800055FFE1882846FFF748FF09E02389A28830
:1019900061882846FFF719FFE1882846FFF708FF0E
:1019A00070BD002101804180012181800021C18022
:1019B000018170472DE9F04105460C4600260127BC
:1019C000608808B9022600E00026A088012801D11D
:1019D000022700E001272088A0B92389A288618816
:1019E0002846FFF78AFFE1882846FFF77DFF238915
:1019F0003A4631462846FFF74AFFE1882846FFF776
:101A000039FF13E02389A28861882846FFF73FFF4A
:101A1000E1882846FFF72EFF23893A4631462846BB
:101A2000FFF76BFFE1882846FFF75EFFBDE8F08116
:101A30000146486B70470146886B70470146C86B8A
:101A400070470146086C70470A884B881A438B8898
:101A50001A43CB881A430B891A434B891A438B8943
:101A60001A43A0F844207047002101804180818002
:101A7000C180018141818181704731B1B0F844203A
:101A800042F40042A0F8442005E0B0F84420C2F33C
:101A90000E02A0F84420704721B1828842F004026F
:101AA000828004E082884FF6FB731A408280704780
:101AB00021B1828842F00102828004E082884FF6E0
:101AC000FE731A40828070471AB183890B43838169
:101AD00002E083898B43838170478182704702468D
:101AE0000020138A0B400BB1012000E0002070475A
:101AF000CA430282704730B502460020002300240A
:101B0000158A05EA0103958905EA010413B10CB1B0
:101B1000012000E0002030BDCA430282704741EA44
:101B20000203A0F8483070471AB183890B438381C0
:101B300002E083898B438381704721B1828842F020
:101B40000802828004E082884FF6F7731A40828090
:101B5000704701894FF6F8721140018170470A46BB
:101B6000002101894FF68F7319401143018170479D
:101B700030B504460D4629462046FFF7F0FF208980
:101B800040F00700208130BD2DE9F04104460D46AC
:101B900016461F46602D06D13B460122314620469F
:101BA000FFF775FE05E03B46012231462046FFF770
:101BB000A4FE29462046FFF7D2FF208940F0070007
:101BC0002081BDE8F08130B50C4600210189C9B201
:101BD0004FF6FF7505EA0325154325432943018187
:101BE00030BD2DE9F04105460E46174698460024C3
:101BF00043463A4631462846FFF7E5FF2C894FF623
:101C0000F870044044F007044FF68F70044044F02D
:101C100070042C81BDE8F081F0B504460D461646EF
:101C20001F463B46324629462046FFF7CCFF208917
:101C300040F480402081F0BD82884FF68F731A40B7
:101C4000828082880A438280704702894FF6F87347
:101C50001A40028102890A430281704702894FF6C5
:101C60007F731A40028102890A4302817047F0B5EE
:101C70000C4615461E460021002200230189028BD6
:101C8000038C4FF6F877394021434FF6FC473A4032
:101C900040F201173A434FF6DD773B404FF6FF77AE
:101CA00007EA06172F433B43018102830384F0BDFB
:101CB00021B1828842F08002828004E082884FF65F
:101CC0007F731A4082807047A0F850107047000060
:101CD00010B50446FA48844208D101211020FFF7CC
:101CE000C7F800211020FFF7C3F857E0F5488442F9
:101CF00009D101214804FFF7AAF800214FF4003070
:101D0000FFF7A5F84AE0F048844209D10121880490
:101D1000FFF79DF800214FF48020FFF798F83DE091
:101D2000EA48844209D10121C804FFF790F8002154
:101D30004FF40020FFF78BF830E0E548844209D1EA
:101D400001210805FFF783F800214FF48010FFF709
:101D50007EF823E0DF48844208D101212020FFF7EC
:101D600087F800212020FFF783F817E0DA48844243
:101D700009D101218807FFF76AF800214FF0804060
:101D8000FFF765F80AE0D548844207D101214005F4
:101D9000FFF75DF800216005FFF759F810BD2DE948
:101DA000FF4705460E460024A14600BFA046B08965
:101DB00000B100BF2C8A24F44054F08804432C82E4
:101DC000AC8941F20C608443B08831890843718941
:101DD00008430443AC81AC8A24F44074B0890443C2
:101DE000AC826846FEF7FBFEB548854202D0B94892
:101DF000854202D1DDF80C9001E0DDF80890A88959
:101E000000F4004040B109EBC90000EB0910316853
:101E10004900B0FBF1F707E009EBC90000EB09103E
:101E200031688900B0FBF1F76420B7FBF0F00401E2
:101E30002009642101FB1078A88900F4004040B11A
:101E4000322000EBC800B0FBF1F000F007000443C3
:101E500008E0322000EB08106421B0FBF1F000F044
:101E60000F0004432C81BDE8FF874FF41651016039
:101E700000218180C18001810C214181002181816B
:101E8000704710B502460020108A20F470600B885D
:101E90004C8823438C882343CC88234318431082E7
:101EA00010BD0021018041808180C180704721B137
:101EB000828942F40052828104E082894DF6FF73E8
:101EC0001A4082817047028B02F47F420283028BA8
:101ED0000A430283704721B1828942F40042828121
:101EE00003E08289C2F30E028281704721B1828AA7
:101EF00042F40062828204E0828A4FF2FF731A4049
:101F000082827047C1F30802828070470146888848
:101F1000C0F308007047028A4FF6F0731A4002823D
:101F2000028A0A430282704721B1828942F002028A
:101F3000828104E082894FF6FD731A4082817047E6
:101F400082894FF2FF731A40828182890A4382811B
:101F50007047028A4FF6DF731A400282028A0A43F0
:101F60000282704721B1028A42F48042028204E078
:101F7000028A4BF6FF731A4002827047818941F052
:101F800001018181704721B1828A42F00802828278
:101F900004E0828A4FF6F7731A4082827047028B00
:101FA000D2B20283028B42EA01220283704721B13E
:101FB000828A42F02002828204E0828A4FF6DF7336
:101FC0001A408282704721B1828A42F010028282D6
:101FD00004E0828A4FF6EF731A4082827047828A49
:101FE0004FF6FB731A408282828A0A4382827047CC
:101FF00021B1828A42F00202828204E0828A4FF694
:10200000FD731A40828270471AB1838A0B43838220
:1020100002E0838A8B4383827047F0B50346002435
:1020200000260025002040F66A17B94200D100BF03
:102030001846C1F3421401F01F06012707FA06F5FE
:10204000012C01D10C3004E0022C01D1103000E051
:1020500014301AB107682F43076002E00768AF43E6
:102060000760F0BD02460020B1F5007F00D100BF3F
:1020700013880B400BB1012000E00020704701F4F1
:102080000072B2F5007F00D100BFCA4302807047E2
:1020900070B50246002400230025002040F66A1691
:1020A000B14200D100BFC1F3421501F01F03012668
:1020B00006FA03F3012D13D19689334017E000008F
:1020C000001001400044004000480040004C004027
:1020D000005000400014014000780040007C0040A7
:1020E000022D02D1168A334001E0968A33400C1249
:1020F000012606FA04F41688344013B10CB101200D
:1021000000E0002070BD10B50022002340F66A14E4
:10211000A14200D100BF0A1201249440A3B2DC43C3
:10212000048010BD0948804709480047FEE7FEE7E4
:10213000FEE7FEE7FEE7FEE7FEE7FEE7FEE7FEE777
:1021400004480549054A064B70470000DD030008B6
:1021500095010008D8030020D8090020D8050020E8
:10216000D805002070B505460C4645F25550FEF7DF
:1021700011FC2846FEF711FC2046FEF711FCFEF785
:1021800012FCFEF715FC70BD10B5FEF70CFC10BD7F
:1021900010B5FE4800F049FE002404E00020FB4991
:1021A0000855601CC4B2C82CF8DB0020F849087040
:1021B000FFF7EAFF10BD10B5F6A000F09FFE4FF448
:1021C000967000F0B8FCF5A1F04800F084FFF449E7
:1021D0000860FFF7DDFF0EE0FFF7DAFFEDA000F08B
:1021E0008DFE4FF4967000F0A6FCECA1E74800F0DD
:1021F00072FFEB490860EA4800680028ECD0E9A0CB
:1022000000F07CFE4FF4967000F095FCE8A000F022
:1022100075FE4FF4967000F08EFCE8A1DB4800F0EC
:102220005AFFDF490860FFF7B3FF0EE0FFF7B0FF8A
:10223000DFA000F063FE4FF4967000F07CFCDFA19D
:10224000D24800F048FFD6490860D5480068002809
:10225000ECD0DBA000F052FE4FF4967000F06BFC67
:10226000CEA1CA4800F037FFCD490860FFF790FFC4
:10227000D7A000F043FE4FF4967000F05CFCD7A1AD
:10228000C24800F028FFC6490860FFF781FF0EE052
:10229000FFF77EFFCEA000F031FE4FF4967000F005
:1022A0004AFCCEA1B94800F016FFBD490860BC4801
:1022B00000680028ECD0CCA000F020FE4FF496700F
:1022C00000F039FCCBA1B14800F005FFB44908602B
:1022D00008460068002831D008460068007A303887
:1022E0000968C979303901EB810100EB4100C3492C
:1022F000087008460078632804D0A9480068C079AF
:102300003038B8B915E00020BC4981F87200BCA093
:1023100000F08BFDC1A000F0F1FD4FF4967000F0CD
:102320000AFC4FF4967000F006FC4FF4967000F033
:1023300002FCE8E70120B14981F87200FFF728FFAD
:1023400010BD10B500240AE004F13001B6A000F081
:10235000D5FD4FF4967000F0EEFB601CC4B2052C66
:10236000F2DBFFF715FFB4A000F0C8FD4FF4967044
:1023700000F0E1FB85488078B649087010BD70B563
:1023800004460D462B462246B2480178B2A000F022
:10239000B5FD4FF4967000F0CEFB80A17B4800F0B5
:1023A0009AFE7F49086005E07CA1784800F093FE22
:1023B0007B4908607A4800680028F5D0FFF7E8FEFE
:1023C00070BD10B5AFA1714800F085FE744908607A
:1023D0000846006808B1FFF7DBFE10BD10B5002409
:1023E000AAA000F08BFD4FF4967000F0A4FBABA107
:1023F000664800F070FE6A49086005E0A7A16348DE
:1024000000F069FE66490860654800680028F5D05C
:10241000FFF7BEFEA5A000F071FD4FF4967000F02E
:102420008AFB5EA1594800F056FE5D49086005E050
:102430005AA1564800F04FFE5949086058480068B4
:102440000028F5D0FFF7A4FEA1A000F057FD4FF43F
:10245000967000F070FBA4A14C4800F03CFE50497F
:10246000086005E0A0A1494800F035FE4C4908602D
:102470004B4800680028F5D0642000F05CFB09E0C0
:1024800004F1100046490968095C5C487330015545
:10249000601CC4B204F1100041490968085C2C2892
:1024A000EED1FFF775FE002493A1384800F013FE2B
:1024B0003B49086005E090A1344800F00CFE384923
:1024C0000860374800680028F5D0642000F033FB2E
:1024D00009E004F1110032490968095C47487D3080
:1024E0000155601CC4B204F111002D490968085C53
:1024F0002C28EED1FFF74CFE4FF47A7000F01BFB56
:102500003E497D31804800F0F9FC4FF4967000F0B0
:1025100012FB22A11D4800F0DEFD2149086005E004
:102520001EA11A4800F0D7FD1D4908601C4800682C
:102530000028F5D0FFF72CFE10BD70B50024002553
:1025400072A1124800F0C7FD1549086008460068EE
:10255000002819D0642000F0EEFAE1E004F10B004D
:102560000F490968085C2C2801D1681CC5B204F128
:102570000B000B490968095C204887300155022D82
:1025800003DB3122611CC7E008E1C7E07D010020C8
:102590004000002041540D0A000000004F4B000095
:1025A0002800002041542B4346554E3D310D0A0072
:1025B00041542B43494D490D0A0000003436300088
:1025C00041542B43474154543D310D0A0000000053
:1025D00041542B43474154543F0D0A002B4347417C
:1025E00054543A310000000041542B434553510DDF
:1025F0000A0000002B434553510000004800002012
:10260000D0C5BAC5CBD1CBF7CAA7B0DCA3ACC7EB5A
:10261000B2E9BFB4D4ADD2F2210D0A0041542B4E21
:1026200052420D0A0000000041542B4E534F434CC0
:102630003D25630D0A00000041542B4E534F435279
:102640003D444752414D2C31372C333030352C31FD
:102650000D0A00003000002041542B4E534F5354BC
:102660003D25632C3131342E3131352E3134382E25
:102670003137322C393939392C25732C25730D0A11
:10268000000000002B51534F4E4D490041542B4D3B
:1026900049504C4352454154450D0A002B4D495079
:1026A0004C4352454154453A3000000041542B4DB3
:1026B00049504C4144444F424A3D302C333332322E
:1026C0002C312C2231222C392C300D0A0000000034
:1026D00041542B4D49504C4F50454E3D302C3630D7
:1026E000302C36300D0A00002B4D49504C4F4253D0
:1026F000455256453A0000002B4D49504C44495331
:10270000434F5645523A0000244100082B4D495092
:102710004C524541443A0000425402E0601CC4B2AD
:102720001CE700BF0CE004F10B002F4909680A5CAC
:102730002E48A11C42542E4800F077FB601CC4B206
:1027400004F10B0028490968085C0D28EBD12C2105
:1027500025480068401C00F0B4FC23490860FFF7DE
:1027600017FD224923A000F0C9FB4FF4967000F03A
:10277000E2F9AFF2D8111E4800F0ADFC1A4908602A
:1027800006E0AFF2E8111A4800F0A5FC164908600F
:10279000154800680028F4D0FFF7FAFC70BD10B5AA
:1027A0009FED1D0B53EC102B104914391CA000F0A9
:1027B000A5FB4FF4967000F0BEF9AFF220210C4853
:1027C00000F089FC0849086006E0AFF230210848B3
:1027D00000F081FC04490860034800680028F4D038
:1027E000FFF7D6FC10BD000028000020CF0000201D
:1027F0007D01002041542B4D49504C5245414452DB
:1028000053503D25732C342C342C322E33352C3040
:102810002C300D0A00000000A4703D0AD73AA240F7
:1028200041542B4D49504C4E4F544946593D302C44
:1028300025732C333332322C302C353730302C3456
:102840002C382C25382E33662C302C300D0A000005
:102850007FB505460C4601210220FEF79FFA02953E
:10286000ADF804400020ADF80C00ADF8060001A959
:102870003748FEF788FC012211463548FFF724F956
:102880001D208DF8000000208DF8010003208DF838
:10289000020001208DF803006846FDF73EFE00218E
:1028A0002B48FEF7F9FC7FBD7FB505460C4601219C
:1028B0000420FEF773FA0295ADF804400020ADF84D
:1028C0000C00ADF8060001A92248FEF75CFC0122CD
:1028D00011462048FFF7F8F81E208DF8000003206D
:1028E0008DF801008DF8020001208DF80300684684
:1028F000FDF713FE01211748FEF7CEFC7FBD10B592
:1029000001211348FFF7F7F8A8B101211048FFF79C
:1029100003F911480078401C0F49087008460078F8
:102920001E2808DB0020087001200C4908700021D7
:102930000748FEF7B1FC10BD10B501210548FFF7AF
:10294000DAF818B101210348FFF7E6F810BD0000DE
:102950000004004000080040310000203200002048
:1029600000B585B001210420FEF7F6F94FF40050C0
:10297000039000208DF8100001208DF81300002036
:102980008DF8110003A92248FDF740FF01218803BB
:10299000FEF72EFA0D210220FEF70FFB4FF4005038
:1029A000019000208DF808000C208DF8090001200E
:1029B0008DF80A0001A8FDF729FE28208DF80000F7
:1029C00002208DF8010001208DF802008DF803002F
:1029D0006846FDF7A2FD05B000BD10B54FF40050EC
:1029E000FDF77AFE98B10BA000F01FFA01200D4907
:1029F000C8750846007D401CC82190FBF1F201FB20
:102A00001200084908754FF40050FDF770FE10BD24
:102A100000080240BCECB2E2B5BDB0B4BCFC0D0A8B
:102A200000000000650100201CB501210D20FEF70B
:102A300093F90420009001208DF8040000208DF807
:102A4000060002208DF8050069461648FDF7DEFEF7
:102A50004FF48060009001208DF8040000208DF874
:102A6000060002208DF8050069460F48FDF7CEFEEE
:102A70002020009001208DF8040000208DF8060031
:102A800002208DF8050069460848FDF7BFFE0020CA
:102A90000749086001200749C1F888020649086013
:102AA0001CBD0000000C0240000802400000024073
:102AB000A8024142008041429402404210B56FF0AA
:102AC0000400FDF777FD2E4800682E49B0FBF1F0B9
:102AD0002D4908700846007800EB4001C1EBC0109A
:102AE0004FF6FF7101EAC0002849088010BD014679
:102AF000254A12784A434FF0E0235A6100229A6136
:102B00001A46126942F001021A6100BF4FF0E0223A
:102B1000106900F001021AB100F48032002AF5D0E9
:102B20004FF0E022126922F001024FF0E0231A6117
:102B300000229A6170470146144A12884A434FF0B6
:102B4000E0235A6100229A611A46126942F001029A
:102B50001A6100BF4FF0E022106900F001021AB1C3
:102B600000F48032002AF5D04FF0E022126922F002
:102B700001024FF0E0231A6100229A6170470000C1
:102B80000400002000127A003400002036000020EB
:102B900010B54FF4A060FDF7BBFC10BD00BF70473F
:102BA00000BFCE4A128802F04002002AF9D0C2B219
:102BB000CA4B9A80704710B5044600BF8021C748B1
:102BC000FFF750FA0028F9D02146C448FFF79AF9D8
:102BD00010BD10B5044600BF8021C148FFF742FA7E
:102BE0000028F9D02146BE48FFF78CF910BD10B57A
:102BF000044600BF8021BB48FFF734FA0028F9D013
:102C00002146B848FFF77EF910BD10B588B00446DC
:102C100001210846FEF7A0F801211020FEF7E8F890
:102C200007220921B048FDF77CFE07220A21AE48A1
:102C3000FDF777FE4FF4C060069002208DF81C006F
:102C40008DF81D0000208DF81E0001208DF81F005A
:102C500006A9A548FDF7DAFD02940020ADF80C00A6
:102C6000ADF80E00ADF81000ADF814000C20ADF872
:102C7000120002A99948FFF792F8012240F225516B
:102C80009648FFF7CAF925208DF8040003208DF837
:102C900005008DF8060001208DF8070001A8FDF75A
:102CA0003CFC01218D48FFF702F940218B48FFF7DA
:102CB000E6F908B010BD10B588B0044601210846F9
:102CC000FEF74AF801214804FEF768F807220221BE
:102CD0008548FDF726FE072203218348FDF721FEE4
:102CE0000C20069002208DF81C008DF81D0000209D
:102CF0008DF81E0001208DF81F0006A97A48FDF707
:102D000085FD02940020ADF80C00ADF80E00ADF882
:102D10001000ADF814000C20ADF8120002A97048A4
:102D2000FFF73DF8012240F225516C48FFF775F995
:102D300026208DF8040003208DF805008DF806008C
:102D400001208DF8070001A8FDF7E7FB0121644889
:102D5000FFF7ADF840216248FFF791F908B010BDC8
:102D600010B588B0044601210420FDF7F5FF0121CC
:102D70002020FEF73DF8082206215C48FDF7D1FD32
:102D8000082207215948FDF7CCFDC02006900220FB
:102D90008DF81C008DF81D0000208DF81E0001200C
:102DA0008DF81F0006A95148FDF730FD0294002060
:102DB000ADF80C00ADF80E00ADF81000ADF8140041
:102DC0000C20ADF8120002A94648FEF7E8FF0122E8
:102DD00040F225514148FFF720F947208DF80400C3
:102DE00003208DF805008DF8060001208DF80700FE
:102DF00001A8FDF792FB01213A48FFF758F840215E
:102E00003848FFF73CF908B010BD0AE000BF33496D
:102E1000098801F040010029F9D001782F4A9180FA
:102E2000401C01780029F1D170470BE000BF2C490C
:102E3000098801F040010029F9D00178284A121DC3
:102E40001180401C01780029F0D170470BE000BFD1
:102E50002449098801F040010029F9D00178214A6C
:102E6000121D1180401C01780029F0D1704710B567
:102E700040F225511948FFF70BF9B0B11748FFF799
:102E800045F8C4B21548FFF741F8C1B218480278B6
:102E90000078401C164B187016488154184600786C
:102EA000C72802DD00201946087010BD10B540F299
:102EB00025510B48FFF7ECF818B10948FFF726F841
:102EC000C4B210BD10B540F225510648FFF7E0F836
:102ED00018B10448FFF71AF8C4B210BD0010014041
:102EE000004400400014014000000240000802407D
:102EF000400000207D010020704700000FB404490D
:102F000010B503AA029800F021FB10BC5DF814FB79
:102F10003C00002070B5044685690068C10601D5F3
:102F2000302600E02026C00707D070BDD4E901217B
:102F300030469047206A401C20626D1EF6D570BD59
:102F400070B5044685690078C00707D170BDD4E923
:102F5000012120209047206A401C20626D1EF6D57A
:102F600070BD70B50C460546012A05D0287880064C
:102F700000D5EA69002302E0012305E05B1C9342CF
:102F800002D2E05C0028F9D1A869E618C01AA8614D
:102F9000286A184428622846FFF7BCFF04E0D5E9F8
:102FA000012114F8010B9047B442F8D32846FFF7EB
:102FB000C7FF70BD2DE9F0474FF0000A894604466F
:102FC000C0F820A02046E1688847002876D0252850
:102FD00006D0D4E901219047206A401C2062F1E725
:102FE000E168204600258847C4F81CA00646002753
:102FF000C4F818A02A2E09D0304601F023F838B3BF
:1030000004EB8708303EC8F8186019E059F8041B33
:10301000204604EB87029161E1688847012F06464C
:1030200018D1E069002820DA25F020051DE0D8F845
:10303000180000EB800006EB40003038C8F818009C
:103040002046E1688847064600F0FCFF0028EED1E4
:10305000012F0AD02E2E08D12046E16888477F1C18
:103060000646022F45F02005C4DBA069002803DADC
:10307000404245F00105A061E80701D025F01005A8
:10308000B6B1A6F14100192802D8203645F40065F2
:103090004A463146204625604D46FDF7B5F858B101
:1030A000012806D0ED1D25F0070000F1080989E789
:1030B00004E005F1040985E730468AE7206ABDE8A7
:1030C000F087401ECAB210F8011F8A4202D00029C0
:1030D000F9D10020704730B505460B462A4613F853
:1030E000014B12F8010B08B1A042F8D01CB1002826
:1030F00002D06D1CF1E7284630BD7047704770471D
:10310000704770472DE9FF4F0C461E464FF0FF37C2
:103110008BB0D2E90001DDF860800A908A46C1F3E5
:103120000A5505B93D46002108464FF00000BAF1A6
:10313000000F00F4400005DA00EB80004FF440017E
:1031400001EA50004FEA9059B9F1010F00DDB9468C
:103150000A9850EA4A000ED044F61050A5F2FF3506
:1031600045432F14B8F1000F1ED07542291E1EDDF5
:10317000C9F100021CE0B8F1010F4FF0000001D0CE
:10318000302103E0F24305E02154401CB042FBDB58
:1031900030460022002121540B99C1F80880C1E972
:1031A00000200FB0BDE8F08FBD1B6D1CDEE74A4666
:1031B00000DA694206A800F07DFA06AB93E8070042
:1031C00003AB83E8070050460A9900F05BFB8DE8EB
:1031D0000700A0F500501F3800900398002D0ADD6D
:1031E00042F21F014A460844002303A9039068469F
:1031F00000F0C4FD09E0A0F500504A461F38002346
:1032000003A90390684600F0CEFD8DE80700000496
:10321000000C03D04FF0FF30410800E01046B8F139
:10322000000F03D00022009215461EE0751E05D443
:1032300000F0A2F9303262556D1EF9D5B346012275
:10324000084302D000227F1C04E02078302801D1FE
:1032500000227F1E002A099784D01DE0112D07DA75
:1032600000F08AF9303262556D1C50EA0102F5D146
:10327000084302D00098C8B10EE00021681E05E0A6
:10328000235C625C63542254401E491C8142F7DB7C
:10329000AB46A81B401E0990002004F80B000B98B9
:1032A000099AC0F80880C0E9002B7AE711264FF090
:1032B000000857E72DE9F04F88460446D21D22F05A
:1032C000070191B0D1E90001CDE90A0100F0A2FEA9
:1032D00002460B98C00F01D02D2007E0206881071F
:1032E00001D52B2002E0202101EAC000032A099029
:1032F00001D0072A05DB03464146204600F09AF933
:103300000BE12078800601D5E06900E00620B8F1E5
:10331000650F814606D0B8F1660F18D0B8F1670F77
:1033200070D131E00020B9F1110F009001DB1123C1
:1033300001E009F101030AAA01A90CA8FFF7E2FEC6
:10334000DDE90C70002609F10105834647E0012004
:103350004B4600904FF000470AAA01A90CA8FFF7BE
:10336000D1FEDDE90DB00C995D46002610B909F1DA
:1033700001000D18B9EB050003D4C0F1FF3609F1C7
:103380000105A5EB09002BE0B9F1010F01DA4FF0BF
:1033900001090020B9F1110F0090484601DD112309
:1033A00000E003460AAA01A90CA8FFF7ABFEDDE97D
:1033B0000C704D4600268346207800070AD4AB45A2
:1033C00000DA5D4601A8012D04DD411911F8011C48
:1033D000302907D04F4502DA17F1040F04DA012033
:1033E00082460FE06D1EEEE7002F02DCED1B3E442F
:1033F00003E0781CA84200DD7D1CB81B00F1010A27
:103400004FF000472078000703D4AA4501DB4FF0B6
:10341000FF3A0021B7F1004F0DF143088DF843103A
:1034200024D002202B23002F01DA7F422D230A21F2
:10343000021EA0F1010000DC5FB197FBF1FC97FBDD
:10344000F1F201FB1C7C17460CF1300C08F801CDA1
:10345000EEE7A8F1010003702188090501D5452197
:1034600000E06521A0F1010800F8011C09980FA9EE
:10347000A1EB0807FF1D00B10120411901EBEA7023
:10348000A1693844081A401EA0612078C00602D401
:103490002046FFF73FFD099828B1D4E90121904764
:1034A000206A401C20622078C00622D52046FFF703
:1034B00031FD1EE0002E04DBB34502DD01A8805D76
:1034C00000E03020D4E901219047206A401C2062AE
:1034D000761CAAF101005FEA000A0AD100F048F860
:1034E000C0680168405CD4E901219047206A401C13
:1034F0002062281EA5F10105DCDC07E0D4E90121EA
:1035000018F8010B9047206A401C2062381EA7F172
:103510000107F3DC2046FFF713FD032011B041E65D
:1035200010B5436913B1AFF3008001E0FFF719FD57
:10353000012010BD127800F124010A7000224A70A7
:103540000122EDE711684FF0FF32E9E7074B70B554
:103550000D467B4400F05BF80446284600F01CF959
:1035600010B14FF0FF3070BD204670BD4BF6FFFF2D
:10357000004870479403002030B5B0F10A024FEACA
:10358000900E71F100034EEA817EB0EB0E0061EB0C
:1035900091014FEA101E4EEA017E10EB0E0041EB46
:1035A00011114FEA102E4EEA016E10EB0E0041EBA6
:1035B00011214FEA104E4EEA014E10EB0E0041EB86
:1035C0001141401841F100014FEAD00040EA41703A
:1035D0004FEAD10110EB80054FEA810444EA907470
:1035E00044EB01046D1944EB0404521BA3414FF05A
:1035F000000348BF0A3200D530BD401C41F1000134
:1036000030BD000001694A1C02610878704700B5AE
:103610008FB0CDE901310021059105497944CDE90B
:10362000031011466846FFF7C5FC0FB000BD00004F
:10363000E5FFFFFF2DE9F0411F4604460326016820
:10364000072A01F4006004DB08B116A505E016A501
:1036500003E008B115A500E015A521F010002060D9
:10366000A069C01EA0610FB1401EA0612046FFF7F7
:1036700051FC4FB1D4E9012138469047206A401CE3
:103680002062C01C206206E0206AFAE7D4E901212A
:1036900015F8010B9047761EF8D22046FFF750FC34
:1036A000BDE8F0814E414E006E616E00494E46000D
:1036B000696E66002DE9F047814616468AB03548A6
:1036C00078440DC88DE80D0032487844801C03AC66
:1036D0000DC884E80D0041F69B300844372190FB6B
:1036E000F1F290FBF1F5A5F1800501FB12041B3C02
:1036F00002D56442012000E00020DFF898A0804657
:103700000027FA44AAF1BE0A0EE0E0070AD03246CA
:10371000684607EB470101230AEB810100F043FBF8
:103720008DE8070064107F1C002CEED1194F7F44F8
:10373000AE3F19E0E80715D007EB04100DF1180AA9
:1037400090E80E008AE80E00C068F04201D1981996
:1037500008903246012306A903A800F024FB03AB1E
:1037600083E807006D10641C002DE3D14FF00103C6
:1037700032466946B8F1000F03A802D000F0FEFA05
:1037800001E000F010FBC9E90001C9F808200AB007
:10379000BDE8F087480A0000007B00F08000704719
:1037A00000487047740300207546FFF7F9FFAE46E6
:1037B00005006946534620F00700854618B020B53D
:1037C000FEF7BEFCBDE820404FF000064FF00007BA
:1037D0004FF000084FF0000B21F00701AC46ACE8B9
:1037E000C009ACE8C009ACE8C009ACE8C0098D4626
:1037F000704710B50446AFF300802046BDE8104086
:10380000FCF724BD4FF0013C50F8042B51F8043B69
:103810009A4221D1A2EB0C03934313EACC1317D1A4
:1038200050F8042B51F8043B9A4215D1A2EB0C033B
:10383000934313EACC130BD150F8042B51F8043BFB
:103840009A4209D1A2EB0C03934313EACC13DBD0C9
:103850004FF00000704700BFD01A01BAB1FA81F1F1
:1038600001F0180122FA01F0CB40C1F12001DBB2D6
:10387000C0B2C01A2CFA01F3D11A914311EAC31154
:10388000E6D170475FEA400C08BF91F0000F4FEAA5
:103890008C234FEAC12243EA51514FEA1C5018BF12
:1038A00000F5F0404FEA300018BF41F000415FEAF8
:1038B0006C5C00F02980BCF1FF3F08BF40F0804005
:1038C0007047130C06BF12044FF0100C4FF0000CA1
:1038D000130E04BF12020CF1080C130F04BF1201E7
:1038E0000CF1040C930F04BF92000CF1020CD30FE7
:1038F00004BF52000CF1010C11464FF00002A0F180
:103900001F00A0EB0C00704711F0004F08BF70477C
:1039100031F000413FF4D5AF0B0C06BF09044FF066
:10392000100C4FF0000C0B0E04BF09020CF1080C38
:103930000B0F04BF09010CF1040C8B0F04BF8900AD
:103940000CF1020CCB0F04BF49000CF1010CCCF1BF
:103950002003A0EB0C0022FA03F302FA0CF241EA76
:10396000030100F10100704720F07F4C80EA030062
:1039700023F07F47ACEB070303F57C5300F00040D6
:1039800003F1FF032DE980494FEA154B09B44FEAD3
:10399000144325EA0B4E24EA03480FF2042606EBF3
:1039A000132749083E785FEA320203FB0667C7F532
:1039B000000707FB06F64FEA54374FEAD64606F1F2
:1039C000020607FB066CCCF1005C4FEA1C472CEAB0
:1039D000074C07FB06F40CFB06F504EB15464FEA13
:1039E000961634BF00204FF000404FEAD13706FB57
:1039F00007FC4FEA1C4C0CFB0BF7D21B03FB0CF72C
:103A000061EB07010CFB0EF7B0EB074072EB1742BE
:103A10000CFB08F734BFA2EB0742B2EB074261EBA5
:103A200017414FEA0C444FEA910706FB07FC4FEAA7
:103A30001C4C0CFB0BF7B0EBC74072EB573203FB8F
:103A40000CF734BFA2EBC742B2EBC74261EB573170
:103A50000CFB0EF7B0EBC70072EB57720CFB08F7CC
:103A600034BFA2EBC702B2EBC70261EB5771039FF1
:103A70004FEA816141EA921104EBCC044FEAD1375D
:103A80004FEA826206FB07FC42EA90124FEA80602E
:103A90004FEA1C4C0CFB0BF7D21B03FB0CF761EB42
:103AA00007010CFB0EF7B0EB074072EB17420CFB63
:103AB00008F734BFA2EB0742B2EB074261EB1741B4
:103AC0004FEA8C554FEA910704EB9C2406FB07FC58
:103AD0004FEA1C4C0CFB0BF7B0EBC74072EB5732B4
:103AE00003FB0CF734BFA2EBC742B2EBC74261EB5A
:103AF00057310CFB0EF7B0EBC70072EB57720CFBA3
:103B000008F734BFA2EBC702B2EBC70261EB5771F3
:103B100015EB4C254FEA816141EA92114FEA82622E
:103B20004FEAD13742EA901206FB07FC44F1000449
:103B30004FEA80604FEA1C4C0CFB0BF7D21B03FBD7
:103B40000CF761EB07010CFB0EF7B0EB074072EBD3
:103B500017420CFB08F734BFA2EB0742B2EB074257
:103B600061EB174115EB1C154FEA813141EA924197
:103B70004FEA823242EA90424FEA80304FEA0C76B6
:103B800044F1000448EA03434EEA0B484FF0000EAC
:103B9000B2EB080C71EB030724BF624639464EEBCB
:103BA0000E0E4FF0000B0018524149414BEB0B0B2E
:103BB000B2EB080C71EB03077BF1000B24BF6246EC
:103BC00039464EEB0E0E4FF0000B001852414941A2
:103BD0004BEB0B0BB2EB080C71EB03077BF1000B0B
:103BE00024BF624639464EEB0E0E51EA020718BF5B
:103BF00046F0010616EB0E7655F1000254F1000175
:103C000003D5BDE88901BDE80088BDE88901BDE8AC
:103C10000048B619524141EB0101A3F1010370477D
:103C200080807F7E7D7C7B7A7978777676757473F9
:103C3000727171706F6E6E6D6C6C6B6A6A696868B8
:103C4000676666656464636362616160605F5F5E4E
:103C50005E5D5D5C5C5B5B5A5A59595858575756C4
:103C60005655555554545353525252515150505029
:103C70004F4F4F4E4E4D4D4D4C4C4C4B4B4B4A4A7B
:103C80004A494949484848474747474646464545BF
:103C900045444444444343434342424242414141F8
:103CA000002B9C4630D477002BD01CB54FEA370749
:103CB00003B44FF010004FF01001BAF1000F06D01E
:103CC000BCF1000FDCBF40F0080040F008014FF0ED
:103CD00000000FBCBDE810400BF1010BBBF1010F60
:103CE00008BF5FEA170722BF12F1010211F10101BB
:103CF0004FF0004143F1000300F0004043EA0000B0
:103D00007047F9D35708D0E746EA064613F1400F4B
:103D10004FEA16461FDD13F1200FDFBF16430A4698
:103D2000002120335B42BED0C3F1200746EA06469D
:103D300002FA07F74FEA164646EA0706C3F12007DC
:103D400022FA03F201FA07F721FA03F14FF0000318
:103D500042EA0702A7E746EA020646EA06464FEAB3
:103D6000164646EA0106BCBF46EA0646360C4FF048
:103D700000034FF000024FF0000194E72DE9804C62
:103D80009A46934670B491E8380007C831EA400C6F
:103D900048BF34EA430C03D5FFF7E6FDFFF780FF89
:103DA000F0BCBDE8008C2DE9804C9A46934670B477
:103DB00091E8380007C810F0804F08BF13F0804F1B
:103DC00003D100F005F8FFF76BFFF0BCBDE8008CF5
:103DD00020F07F4780EA030023F07F4C07EB0C03C1
:103DE000A3F57C5300F00040A3F1FE0392F0000F16
:103DF00000F0B38095F0000F00F077802DE90149C5
:103E00004FEA11404FEA144621EA004800FB06FC45
:103E100024EA064708FB06F607FB08F800FB07F74D
:103E200018EB06484CEB164C4FEA124B18EB0748C0
:103E30004FEA15464CEB174022EA0B4E0BFB06FCF3
:103E400025EA06470EFB06F607FB0EFE0BFB07F7FF
:103E50001EEB064E4CEB164C4FF000061EEB074EC9
:103E60004CEB174B18EB0B0840F1000018EB0E0B56
:103E700058EB000840F100008F1A4FF000013CBFE2
:103E8000C943661B14BFB5EB040C00213CBFC943FA
:103E9000F61B4FEA17444EEA8E0E27EA04454FEA16
:103EA0001C4704FB07622CEA074C05FB07F70CFBD9
:103EB00005F604FB0CFC16EB074642EB174216EB2B
:103EC0000C4642EB1C421BEB060658EB020241413A
:103ED00046EA9E0601D5BDE80189B619524141EB7B
:103EE0000101A3F10103BDE801894FEA14454FEA3E
:103EF000114724EA054621EA074C05FB07F406FBB7
:103F000007F70CFB06F105FB0CFC11EB074144EB3A
:103F100017444FEA124711EB0C4144EB1C4422EAD0
:103F2000074C05FB07F206FB07F70CFB06F605FB43
:103F30000CFC16EB074642EB174216EB0C4642EB25
:103F40001C456A1854F1000148BF7047B619524128
:103F500041EB0101A3F10103704795F0000F37D049
:103F60004FEA11424FEA144721EA024624EA074C7D
:103F700002FB07F106FB07F70CFB06F402FB0CFC47
:103F800014EB074441EB17414FEA154714EB0C447F
:103F900041EB1C4125EA074C02FB07F506FB07F73E
:103FA0000CFB06F602FB0CFC16EB074645EB17452F
:103FB00016EB0C4645EB1C42121951F1000148BFAB
:103FC0007047B619524141EB0101A3F1010370475B
:103FD0004FEA14454FEA114724EA054621EA074C07
:103FE00005FB07F106FB07F70CFB06F24FF0000696
:103FF00005FB0CFC12EB074241EB174112EB0C42A4
:1040000051EB1C4148BF7047921841EB0101A3F1ED
:104010000103704703B401984100009850EAC120A1
:1040200018BF04204A0D18BF40F0010040F2FF7293
:10403000B2EB515F08BF40F00200012808BF052025
:1040400002B0704730380A2801D2012070470020A2
:104050007047000010B500290AD00878002807D062
:1040600005487844FFF7CEFB002801D0002010BDA2
:104070000248784410BD0000320100002A0100000F
:104080004FF04070E1EE100A7047FFF713B90000DF
:1040900002400000000000A00000000005400000F9
:1040A000000000C8000000000C4000000000409C20
:1040B00000000000194000000020BCBE000000000D
:1040C00034400000BFC91B8E00000004B540000052
:1040D000504BCFD06607E2CF010000006C410000DA
:1040E0003E8251AADFEEA73401000000D942000051
:1040F000DCB5A0E23A301F97FFFFFFFFB445000098
:10410000FD25A0C8E9A3C14FFFFFFFFFFF3F00004F
:104110000000008000000000FF3F00000000008061
:104120000000000041542B4D49504C444953434F2B
:104130005645525253503D302C25732C312C34347B
:104140002C22353630313B353630323B3536303344
:104150003B353630343B353630353B353730303B08
:10416000353730313B353735303B35383231220D3C
:104170000A000000B04100080000002048000000D4
:10418000D0010008F8410008480000209009000014
:10419000EC0100081C00000043000000F8FFFFFFD6
:1041A0000C0000000E0000000F0000002E000000B8
:1041B0000000000000BD010500000000000000003C
:1041C00001020304060708090000000001020304BD
:1041D00001020304060708090000000000000000B7
:1041E00000000000000000000000000000000000CF
:0841F0000000000000000000C7
:040000050800019559
:00000001FF
