:020000040800F2
:10000000D8090020492100080D0300080F0300084B
:1000100013030008170300081B030008000000007A
:100020000000000000000000000000001F030008A6
:100030002103000800000000230300082503000836
:100040006321000863210008632100086321000880
:100050006321000863210008632100086321000870
:100060006321000863210008632100086321000860
:100070006321000863210008632100086321000850
:1000800063210008632100086321000800000000CC
:1000900000000000000000000000000063210008D4
:1000A0006321000863210008632100086321000820
:1000B000632100089B290008D52900086321000856
:1000C0006321000863210008632100086321000800
:1000D000632100080B2F0008492F000800000000D2
:1000E000772A00086321000863210008000000004F
:1000F0000000000000000000000000006321000874
:10010000000000006321000863210008632100084B
:1001100000000000000000000000000000000000DF
:10012000632100086321000863210008632100089F
:100130006321000800000000000000000000000033
:100140000000000000000000000000006321000823
:10015000632100086321000863210008612F000863
:100160006321000863210008000000000000000077
:10017000000000000000000000000000000000007F
:1001800000000000632100080000000000000000E3
:100190006321000800F002F800F044F80AA090E89B
:1001A000000C82448344AAF10107DA4501D100F032
:1001B00039F8AFF2090EBAE80F0013F0010F18BFBB
:1001C000FB1A43F0010318472830000048300000B4
:1001D000103A24BF78C878C1FAD8520724BF30C873
:1001E00030C144BF04680C60704700000023002445
:1001F00000250026103A28BF78C1FBD8520728BF37
:1002000030C148BF0B607047632902F058877329DB
:1002100002F05D87002070471FB502F0BDFF1FBDD3
:1002200010B510BD02F086FF1146FFF7F5FF00F094
:1002300009F802F0A4FF03B4FFF7F2FF03BC02F0D9
:10024000FBFC000002F088FC02F0F0FC02F03AFC3B
:100250004FF4165002F027FD4FF4165002F079FDCE
:1002600002F0CCFB01F0B9FF02F0CAF800201A49F5
:1002700008752FE00120194908601949C1F8880262
:1002800000201849C1F894021348C07DB0B1002085
:100290001249086001201249C1F888020020124961
:1002A00008600D49C87502F08CFA10480078401CAF
:1002B0000E4908704FF47A7002F08BFC0B480078FE
:1002C000782807DB0AA002F067FE00200E490870BC
:1002D00006490870CEE7000065010020A8024142EF
:1002E0000080414200004042940240420000002051
:1002F00041542B4D49504C5550444154453D302CB0
:100300003630302C300D0A0040000020704700BF0E
:10031000FEE700BFFEE700BFFEE700BFFEE7704755
:1003200070477047704700000CB5002001900090A6
:100330007548006840F480307349086000BF724817
:10034000006800F4003000900198401C0190009873
:1003500018B90198B0F5A04FF1D16B48006800F4CE
:10036000003010B10120009001E0002000900098C2
:10037000012844D164484030006840F08050624910
:10038000403108606148006840F440405F490860BF
:100390005D48083000685C4908310860084600681C
:1003A00008600846006840F4805008605848091FFB
:1003B0000860081F006840F08070091F086000BFD7
:1003C0005148006800F000700028F9D040F2027037
:1003D000504908604C480830006820F003004A4942
:1003E000083108600846006840F00200086000BF5D
:1003F00045480830006800F00C000828F8D10CBD12
:1004000010B54548006840F47000434908603E4814
:10041000006840F001003C49086000203A4908317A
:100420000860394800683D490840374908603C4841
:10043000091D0860081F006820F48020091F08605B
:10044000002031490C310860FFF76EFF4FF000606B
:1004500031498039086010BD70B5002000220223A8
:1004600000240221284D08352D6805F00C0020B12C
:10047000042806D0082834D107E02A4D2A4E3560DA
:1004800033E02A4D284E35602FE01F4D2D1D2D687D
:10049000C5F380541C4D2D1D2D6805F03F0154B14E
:1004A000224DB5FBF1F5184E361D3668C6F3881699
:1004B00005FB06F209E01B4DB5FBF1F5124E361DAA
:1004C0003668C6F3881605FB06F20F4D2D1D2D6804
:1004D000C5F301456D1C6B00B2FBF3F5124E3560A0
:1004E00003E0104D104E356000BF00BF064D0835CB
:1004F0002D68C5F303150E4E705D0B4D2D68C5407C
:10050000094E356070BD00000038024000700040A8
:1005100008544107003C024088ED00E0FFFFF6FE72
:10052000103000240024F4000400002000127A009F
:100530000800002032490143324A1160704770B50B
:10054000002100230F22C4781CB32E4C246804F42D
:10055000E064C4F5E064C4F30721C1F10404E3B22C
:100560000A4144789C40E1B28478144021430C074E
:10057000210E254C05786155047804F01F050124EF
:10058000AC4005786D11AD0005F1E025C5F80041DE
:1005900009E0047804F01F050124AC401B4D0678E7
:1005A000761145F8264070BD194A0A400243154BA2
:1005B0001B1F1A60704739B1124A121D126802439C
:1005C000104B1B1D1A6006E00E4A121D1268824372
:1005D0000C4B1B1D1A607047042808D14FF0E02116
:1005E000096941F004014FF0E022116107E04FF08A
:1005F000E021096921F004014FF0E0221161704708
:100600000000FA050CED00E000E400E080E100E00D
:1006100080FFFF1F002041490860091D0860091D77
:100620000860091D08603E483C4914310860704765
:1006300000213A498279002A3AD00A4612680368B2
:100640009A430B461A600A1D126803689A430B1DF1
:100650001A60027911440A6803681A430A602F4A33
:100660000832126803689A432C4B08331A601A1D2B
:10067000126803689A43294B0C331A604279102A96
:100680000ED11A1F126803681A43244B08331A60EC
:100690001A1D126803681A43204B0C331A600DE0D0
:1006A0001E49427911440A6803681A430A6005E04A
:1006B000027911440A6803689A430A60704700216E
:1006C000016001710C214171002181717047134952
:1006D000103109680143114A103211607047014618
:1006E00000200E4A143212680A400AB1012000E0CC
:1006F0000020704709491431086070470146002006
:10070000064A143212680A400AB1012000E00020B3
:10071000704702491431086070470000003C0140F6
:10072000FFFF7F0010B504469848844208D101219C
:10073000084600F07CFB0021012000F078FB76E009
:100740009348844208D10121022000F070FB00216F
:10075000022000F06CFB6AE08E48844208D101213F
:10076000042000F064FB0021042000F060FB5EE048
:100770008948844208D10121082000F058FB00215B
:10078000082000F054FB52E08448844208D1012143
:10079000102000F04CFB0021102000F048FB46E048
:1007A0007F48844208D10121202000F040FB002135
:1007B000202000F03CFB3AE07A48844208D1012135
:1007C000402000F034FB0021402000F030FB2EE000
:1007D0007548844208D10121802000F028FB0021C7
:1007E000802000F024FB22E07048844208D10121DF
:1007F000801500F01CFB0021A01500F018FB16E08E
:100800006B48844208D10121401500F010FB002103
:10081000601500F00CFB0AE06648844207D1012114
:10082000001500F004FB0021201500F000FB10BDB6
:10083000F0B50A4600210023002400BF3DE0012559
:1008400005FA01F3156805EA03049C4234D10568F2
:100850004F000326BE40B543056015794E00B540F4
:100860000668354305601579012D02D01579022DF2
:1008700016D185684F000326BE40B5438560557983
:100880004E00B540866835438560456801268E4038
:10089000B5434560456896798E40B6B235434560AC
:1008A000C5684F000326BE40B543C560D5794E00EC
:1008B000B540C6683543C560491C1029BFD3F0BD9B
:1008C0004FF6FF7101600021017141718171C171A9
:1008D000704708B54FF480320092009A0A430092A4
:1008E000009AC261C161009AC261C2690092C26984
:1008F000009208BD0246002013690B400BB1012095
:1009000000E0002070470146086980B27047024647
:10091000002053690B400BB1012000E0002070471C
:100920000146486980B27047018370474183704730
:100930000AB1018300E04183704741617047426919
:100940004A4042617047F0B5002300244D07ED0E88
:1009500002FA05F3CE1000F1200555F826504E0797
:10096000F70E0F26BE40B543CF1000F1200646F823
:100970002750CE1000F1200555F8265045EA030413
:10098000CE1000F1200545F82640F0BD00000240E1
:100990000004024000080240000C02400010024027
:1009A0000014024000180240001C024000200240D7
:1009B00000240240002802400E49086070470D499B
:1009C000486070470B49886070474AF6AA20094979
:1009D000086070474CF6CC400649086070470146F5
:1009E0000020044AD2680A400AB1012000E0002039
:1009F0007047000000300040FA48006840F00100F5
:100A0000F84908600020F74908310860F548006897
:100A1000F5490840F3490860F448091D0860F448A6
:100A2000F04984310860EF48006820F48020ED49E7
:100A300008600020EB490C310860EA498C310860FD
:100A400070470021E74A921C1170114608707047E8
:100A500010B501460022002300204A11012A02D1CC
:100A6000E04C236808E0022A03D1DE4C703423688E
:100A700002E0DC4C7434236801F01F02012494402E
:100A80001C400CB1012000E0002010BD38B5002052
:100A900000900024002500BF3120FFF7D9FF054654
:100AA0000098401C00900098B0F5A04F01D0002D98
:100AB000F2D03120FFF7CCFF08B1012400E0002480
:100AC000204638BD01460020C64A106820F0F800D4
:100AD00040EAC10010607047C649086070470021B5
:100AE000C04A703211701170012802D004280AD156
:100AF00004E00121BB4A7032117005E00521B94ABA
:100B00007032117000E000BF00BF7047BA49086042
:100B1000704770B5049C41EA82150126C6EB530666
:100B200045EA0645054345EA0465AE4E361D356087
:100B300070BDB04908667047820142EA0172A94B54
:100B400084331A607047AB498866704710B58301DB
:100B500043EA016343EA0273A24C8834236010BD68
:100B6000A44908677047A349C8647047024600203B
:100B70009C4B0833186820F0EC6042EA01031843EC
:100B8000984B08331860704702460020954B083395
:100B9000186820F0784042EA01031843914B08336B
:100BA00018607047014600208E4A0832106820F015
:100BB00003000843106070478A480830006800F05E
:100BC0000C00704701460020864A0832106820F069
:100BD000F00008431060704701460020814A083247
:100BE000106820F4E0500843106070470146002070
:100BF0007C4A0832106820F4604040EAC10010606E
:100C00007047F0B5002100220024022500260223AF
:100C1000744F08373F6807F00C0121B1042905D053
:100C2000082937D105E0754F076036E0744F07603B
:100C300033E06C4F3F1D3F68C7F38056694F3F1D3F
:100C40003F6807F03F036EB16D4FB7FBF3F7DFF876
:100C500094C10CF1040CDCF800C0CCF3881C07FB39
:100C60000CF40CE0654FB7FBF3F7DFF878C10CF13B
:100C7000040CDCF800C0CCF3881C07FB0CF4594FC3
:100C80003F1D3F68C7F301477F1C7D00B4FBF5F7AC
:100C9000076002E0594F076000BF00BF514F08379F
:100CA0003F6807F0F0010909564F7A5C0768D740A2
:100CB00047604C4F08373F6807F4E051890A514FAD
:100CC0007A5C4768D7408760464F08373F6807F42B
:100CD0006041490B4B4F7A5C4768D740C760F0BD15
:100CE000002100F44072B2F5407F0AD13D4A08323B
:100CF000116821F4F811444A02401143394A08327C
:100D00001160384A70321268C0F30B031A43354B36
:100D100070331A6070473849443908607047364963
:100D20004039086070473949086070470146002023
:100D30002C4A8C32106820F01F004A1E1043294AAA
:100D40008C321060704701460020264A8C321068B1
:100D500020F4F8504A1E40EA0220224A8C321060E9
:100D60007047014600201F4A8C32106820F4403042
:100D700008431060704726490860704739B1194A26
:100D8000303212680243174B30331A6006E0154ABE
:100D9000303212688243134B30331A60704739B1D6
:100DA000104A3432126802430E4B34331A6006E0A4
:100DB0000C4A3432126882430A4B34331A6070474B
:100DC00039B1084A403212680243064B40331A6078
:100DD00006E0044A403212688243024B40331A60F4
:100DE0007047000000380240FFFFF6EA1030002490
:100DF0000030002000004742800E47420024F400EB
:100E000000127A0018000020FFFCFF0F5C0147422F
:100E1000E011474229B1684A12680243664B1A60E2
:100E200004E0654A12688243634B1A60704739B127
:100E3000614A343A126802435F4B343B1A6006E061
:100E40005D4A343A126882435B4B343B1A60704708
:100E500039B1594A303A12680243574B303B1A6055
:100E600006E0554A303A12688243534B303B1A60D1
:100E7000704739B1504A243A126802434E4B243B22
:100E80001A6006E04C4A243A126882434A4B243BDB
:100E90001A60704739B1484A203A12680243464BFB
:100EA000203B1A6006E0444A203A12688243424BD3
:100EB000203B1A60704739B13F4A0C321268024336
:100EC0003D4B0C331A6006E03B4A0C3212688243F9
:100ED000394B0C331A60704739B1374A10321268F7
:100EE0000243354B10331A6006E0334A1032126861
:100EF0008243314B10331A60704739B12E4A1C328D
:100F0000126802432C4B1C331A6006E02A4A1C323A
:100F100012688243284B1C331A60704739B1264A45
:100F2000203212680243244B20331A6006E0224A22
:100F3000203212688243204B20331A607047012808
:100F400008D11D492C31096841F008011A4A2C3298
:100F5000116007E018492C31096821F00801164A90
:100F60002C321160704739B1134A373A1278024374
:100F7000114B373B1A7006E00F4A373A127882431A
:100F80000D4B373B1A7070470B483030006840F00B
:100F90008070094930310860704701460020064AD8
:100FA000383A12680A400AB1012000E00020704778
:100FB00001493639087070474438024010B50121A4
:100FC0008803FFF767FF00214FF48040FFF762FFBF
:100FD00010BD1C49086070471B490862704730B556
:100FE00000228B071C0F0F2303FA04F2154B083362
:100FF0008C1053F824309343124C08348D1044F86D
:10100000253023468C1053F824308C07240F00FA27
:1010100004F423430B4C08348D1044F8253030BDC4
:101020000949DC31086070470849086070470020B2
:1010300004492031096801F4807109B1012000E000
:10104000002070470038014000002742000427427A
:1010500010B50446FE48844208D101210846FFF736
:1010600019FF00210120FFF715FF9DE0B4F1804F2B
:1010700008D101210846FFF7FCFE00210120FFF7FF
:10108000F8FE91E0F348844208D101210220FFF7E5
:10109000F0FE00210220FFF7ECFE85E0EE488442DE
:1010A00008D101210420FFF7E4FE00210420FFF70E
:1010B000E0FE79E0E948844208D101210820FFF7E9
:1010C000D8FE00210820FFF7D4FE6DE0E4488442FA
:1010D00008D101211020FFF7CCFE00211020FFF7DE
:1010E000C8FE61E0DF48844208D101212020FFF7DB
:1010F000C0FE00212020FFF7BCFE55E0DA48844204
:1011000008D101210220FFF7C5FE00210220FFF7D0
:10111000C1FE49E0D548844209D101210804FFF706
:10112000B9FE00214FF48030FFF7B4FE3CE0D04818
:10113000844209D101214804FFF7ACFE00214FF49D
:101140000030FFF7A7FE2FE0CA48844209D10121F1
:101150008804FFF79FFE00214FF48020FFF79AFEDE
:1011600022E0C548844208D101214020FFF781FEDA
:1011700000214020FFF77DFE16E0C048844208D1E0
:1011800001218020FFF775FE00218020FFF771FE0E
:101190000AE0BB48844207D101218015FFF769FEB0
:1011A0000021A015FFF765FE10BD00220288A84BA4
:1011B00098420ED0AC4B98420BD0B0F1804F08D083
:1011C000A44B984205D0A44B984202D0A34B98421E
:1011D00004D14FF68F731A404B881A43A04B9842A4
:1011E00007D0A04B984204D04FF6FF431A400B891A
:1011F0001A4302804B68C3620B880385944B984264
:1012000002D0994B984201D18B7A038601238382C5
:1012100070474FF0FF314160002101800181418022
:10122000817270470185828270470A4600210188D9
:101230004FF68F7319401143018070474162704728
:10124000C16270470146486A70470146088D704781
:1012500021B1028842F00202028004E002884FF6C7
:10126000FD731A400280704721B1028842F00402E7
:10127000028004E002884FF6FB731A400280704738
:1012800021B1028842F08002028004E002884FF619
:101290007F731A400280704702884FF6F7731A4036
:1012A000028002880A430280704702884FF6FF439B
:1012B0001A40028002880A430280704721B10288E6
:1012C00042F00102028004E002884FF6FE731A40E9
:1012D0000280704770B5002400220023058C4FF671
:1012E000FE7635400584028C8388048B4FF68F751B
:1012F0002C40B51E2C400D882C43751E2A408D892C
:101300002A434D882A43524DA84202D0564DA84246
:1013100013D14FF6F7752A40CD892A434FF6FB7556
:101320002A408D882A434FF6FF652B404FF6FF5524
:101330002B400D8A2B434D8A2B43838004838D6879
:101340004563028470BD70B5002400220023058C23
:101350004FF6EF7635400584028C8388048B48F67F
:10136000FF752C404FF6FF452C400D884FF6FF7659
:1013700006EA05252C434FF6DF752A408D8906EADB
:1013800005152A434D8806EA05152A43304DA84223
:1013900002D0354DA8421DD14FF67F752A40CD8928
:1013A0004FF6FF7606EA05152A434FF6BF752A4029
:1013B0008D8806EA05152A434FF6FF352B404FF27C
:1013C000FF752B400D8A06EA85052B434D8A06EAF8
:1013D00085052B43838004838D688563028470BDFB
:1013E00070B5002400220023058C4FF6FF663540BF
:1013F0000584028C8388848B4FF68F752C404FF6C2
:10140000FC752C400D882C434FF6FF552A408D89E2
:101410004FF6FF7606EA05252A434D8806EA05259C
:101420002A430B4DA84202D00F4DA84238D14FF2AB
:10143000FF752A40CD894FF6FF7606EA05252A4337
:101440004FF6FF352A408D8806EA05252A4319E024
:10145000000001400004004000080040000C004073
:101460000010004000140040000401400040014012
:10147000004401400048014000180040001C0040AA
:10148000002000404EF6FF752B404DF6FF752B40B7
:101490000D8A06EA05152B434D8A06EA05152B43EE
:1014A000838084838D68C563028470BD70B500221B
:1014B00000230024058C4EF6FF7635400584038C0E
:1014C0008488828B48F6FF752A404FF6FF452A40F4
:1014D0000D884FF6FF7606EA05252A434DF6FF757F
:1014E0002B408D8906EA05352B434D8806EA0535E4
:1014F0002B43FE4DA84202D0FD4DA84208D14BF629
:10150000FF752C400D8A4FF6FF7606EA85152C43B1
:10151000848082838D680564038470BD002101800E
:101520004180818081608181C181018241827047D7
:1015300070B50346002000241846183001258D4060
:10154000ACB21D8CA5431D8409B108290AD100EB5A
:10155000610005684FF68F763540056005681543D4
:1015600005600FE00D1FC5F34E052844056848F6D9
:10157000FF763540056005684FF6FF7606EA0226DD
:101580003543056070BD4163704781637047C16337
:101590007047016470470A460021018B4FF68F7334
:1015A00019401143018370470A460021018B48F618
:1015B000FF7319404FF6FF7303EA022319430183B7
:1015C00070470A460021818B4FF68F7319401143F3
:1015D000818370470A460021818B48F6FF731940CA
:1015E0004FF6FF7303EA02231943818370470A46CB
:1015F0000021018B4FF6F7731940114301837047A7
:101600000A460021018B4FF2FF7319404FF6FF731A
:1016100003EA02231943018370470A460021818BA4
:101620004FF6F77319401143818370470A46002132
:10163000818B4FF2FF7319404FF6FF7303EA0223C9
:101640001943818370470A460021018B4FF6FB73D3
:1016500019401143018370470A460021018B4FF660
:10166000FF3319404FF6FF7303EA02231943018346
:1016700070470A460021818B4FF6FB7319401143D6
:10168000818370470A460021818B4FF6FF33194052
:101690004FF6FF7303EA02231943818370470A461A
:1016A0000021018B4FF67F7319401143018370476E
:1016B0000A460021018BC1F30E014FF6FF7303EAC6
:1016C00002231943018370470A460021818B4FF69C
:1016D0007F7319401143818370470A460021818B33
:1016E000C1F30E014FF6FF7303EA0223194381830E
:1016F00070470A460021018C4FF6FD7319401143D3
:10170000018470470A460021018C4FF6F773194097
:101710001143018470470A460021018C4FF6DF73A4
:1017200019404FF6FF7303EA02131943018470470F
:101730000A460021018C4FF67F7319404FF6FF7364
:1017400003EA02131943018470470A460021018C01
:101750004FF6FF5319404FF6FF7303EA0223194374
:10176000018470470A460021018C4FF2FF73194033
:101770004FF6FF7303EA02231943018470470A46B8
:101780000021018C4DF6FF7319404FF6FF7303EAF9
:10179000023319430184704730B5002301248C4083
:1017A000A3B2048C9C430484048C02FA01F5ADB20C
:1017B0002C43048430BD30B5002304248C40A3B2F4
:1017C000048C9C430484048C02FA01F5ADB22C43D2
:1017D000048430BD828B4FF2FF331A408283828BA8
:1017E0004FF6FF7303EA01231A4382837047F0B573
:1017F0000C461546002100220026078C4EF6FF7C81
:1018000007EA0C070784818B028C4FF6FF7707EA03
:10181000043640F6FF4739404FF6FF7707EA0527C1
:1018200039434FF6FF7707EA0337394345F6FF7729
:101830003A4046F480573A4381830284F0BD828B5C
:101840004FF6F3731A408283828B0A438283704778
:10185000F0B50C461546002100220026078C4FF6F5
:10186000FF6C07EA0C070784818B028C4FF6FF7729
:1018700007EA04264FF60C7739404FF6FF7707EA60
:1018800003172F4339434FF2FF573A4046F480770E
:101890003A4381830284F0BD028B4FF2FF331A403A
:1018A0000283028B4FF6FF7303EA01231A4302837C
:1018B0007047F0B50C461546002100220026078C23
:1018C0004FF6EF7C07EA0C070784018B028C4FF67A
:1018D000FF7707EA041640F6FF4739404FF6FF77D7
:1018E00007EA033739434FF6FF7703E00000014072
:1018F0000004014007EA052739434FF65F773A4075
:1019000046F010073A4301830284F0BD028B4FF684
:10191000F3731A400283028B0A4302837047F0B5C7
:101920000C46154600210022068C4FF6FE773E40FD
:101930000684018B028C4FF60C7631407E1C06EA41
:1019400003162E4331434FF6F576324044F001063C
:10195000324301830284F0BD70B505460C462088F1
:1019600050B92389A28861882846FFF7D8FFE1880B
:101970002846FFF7CBFF25E0208804280AD12389D9
:10198000A28861882846FFF794FFE1882846FFF780
:1019900083FF17E0208808280AD12389A28861885C
:1019A0002846FFF755FFE1882846FFF748FF09E082
:1019B0002389A28861882846FFF719FFE188284615
:1019C000FFF708FF70BD0021018041800121818067
:1019D0000021C180018170472DE9F04105460C4688
:1019E00000260127608808B9022600E00026A088AA
:1019F000012801D1022700E001272088A0B923890E
:101A0000A28861882846FFF78AFFE1882846FFF709
:101A10007DFF23893A4631462846FFF74AFFE18891
:101A20002846FFF739FF13E02389A28861882846FA
:101A3000FFF73FFFE1882846FFF72EFF23893A464C
:101A400031462846FFF76BFFE1882846FFF75EFF27
:101A5000BDE8F0810146486B70470146886B7047CE
:101A60000146C86B70470146086C70470A884B886E
:101A70001A438B881A43CB881A430B891A434B8924
:101A80001A438B891A43A0F8442070470021018033
:101A900041808180C180018141818181704731B164
:101AA000B0F8442042F40042A0F8442005E0B0F829
:101AB0004420C2F30E02A0F84420704721B182886E
:101AC00042F00402828004E082884FF6FB731A40E1
:101AD0008280704721B1828842F00102828004E056
:101AE00082884FF6FE731A40828070471AB183894C
:101AF0000B43838102E083898B438381704781821A
:101B0000704702460020138A0B400BB1012000E011
:101B100000207047CA430282704730B50246002059
:101B200000230024158A05EA0103958905EA0104CA
:101B300013B10CB1012000E0002030BDCA43028285
:101B4000704741EA0203A0F8483070471AB1838910
:101B50000B43838102E083898B438381704721B1EA
:101B6000828842F00802828004E082884FF6F77390
:101B70001A408280704701894FF6F8721140018146
:101B800070470A46002101894FF68F7319401143AF
:101B90000181704730B504460D4629462046FFF7BF
:101BA000F0FF208940F00700208130BD2DE9F04191
:101BB00004460D4616461F46602D06D13B460122BF
:101BC00031462046FFF775FE05E03B4601223146CF
:101BD0002046FFF7A4FE29462046FFF7D2FF2089C2
:101BE00040F007002081BDE8F08130B50C460021AF
:101BF0000189C9B24FF6FF7505EA03251543254350
:101C00002943018130BD2DE9F04105460E461746B6
:101C10009846002443463A4631462846FFF7E5FFFA
:101C20002C894FF6F870044044F007044FF68F708B
:101C3000044044F070042C81BDE8F081F0B5044606
:101C40000D4616461F463B46324629462046FFF7BC
:101C5000CCFF208940F480402081F0BD82884FF67F
:101C60008F731A40828082880A438280704702897B
:101C70004FF6F8731A40028102890A4302817047C5
:101C800002894FF67F731A40028102890A4302815A
:101C90007047F0B50C4615461E4600210022002371
:101CA0000189028B038C4FF6F877394021434FF6B8
:101CB000FC473A4040F201173A434FF6DD773B408C
:101CC0004FF6FF7707EA06172F433B430181028354
:101CD0000384F0BD21B1828842F08002828004E05A
:101CE00082884FF67F731A4082807047A0F85010A8
:101CF0007047000010B50446FA48844208D101211B
:101D00001020FFF7C7F800211020FFF7C3F857E0B5
:101D1000F548844209D101214804FFF7AAF80021BF
:101D20004FF40030FFF7A5F84AE0F048844209D1AB
:101D300001218804FFF79DF800214FF48020FFF770
:101D400098F83DE0EA48844209D10121C804FFF730
:101D500090F800214FF40020FFF78BF830E0E548C1
:101D6000844209D101210805FFF783F800214FF4CF
:101D70008010FFF77EF823E0DF48844208D101217C
:101D80002020FFF787F800212020FFF783F817E0D5
:101D9000DA48844209D101218807FFF76AF8002157
:101DA0004FF08040FFF765F80AE0D548844207D13C
:101DB00001214005FFF75DF800216005FFF759F8A4
:101DC00010BD2DE9FF4705460E460024A14600BF81
:101DD000A046B08900B100BF2C8A24F44054F0889A
:101DE00004432C82AC8941F20C608443B088318971
:101DF0000843718908430443AC81AC8A24F44074DD
:101E0000B0890443AC826846FEF7FBFEB5488542C4
:101E100002D0B948854202D1DDF80C9001E0DDF82E
:101E20000890A88900F4004040B109EBC90000EB1C
:101E3000091031684900B0FBF1F707E009EBC90070
:101E400000EB091031688900B0FBF1F76420B7FBA3
:101E5000F0F004012009642101FB1078A88900F446
:101E6000004040B1322000EBC800B0FBF1F000F0C0
:101E70000700044308E0322000EB08106421B0FBA7
:101E8000F1F000F00F0004432C81BDE8FF874FF410
:101E90001651016000218180C18001810C214181A6
:101EA00000218181704710B502460020108A20F47D
:101EB00070600B884C8823438C882343CC88234351
:101EC0001843108210BD0021018041808180C180B3
:101ED000704721B1828942F40052828104E08289F4
:101EE0004DF6FF731A4082817047028B02F47F42E5
:101EF0000283028B0A430283704721B1828942F434
:101F00000042828103E08289C2F30E02828170471F
:101F100021B1828A42F40062828204E0828A4FF216
:101F2000FF731A4082827047C1F3080282807047B3
:101F300001468888C0F308007047028A4FF6F073A4
:101F40001A400282028A0A430282704721B18289C2
:101F500042F00202828104E082894FF6FD731A404A
:101F60008281704782894FF2FF731A408281828991
:101F70000A4382817047028A4FF6DF731A40028259
:101F8000028A0A430282704721B1028A42F48042E7
:101F9000028204E0028A4BF6FF731A400282704705
:101FA000818941F001018181704721B1828A42F02B
:101FB0000802828204E0828A4FF6F7731A40828216
:101FC0007047028BD2B20283028B42EA0122028363
:101FD000704721B1828A42F02002828204E0828A24
:101FE0004FF6DF731A408282704721B1828A42F035
:101FF0001002828204E0828A4FF6EF731A408282D6
:102000007047828A4FF6FB731A408282828A0A43A3
:102010008282704721B1828A42F00202828204E009
:10202000828A4FF6FD731A40828270471AB1838A02
:102030000B43838202E0838A8B4383827047F0B52F
:102040000346002400260025002040F66A17B94206
:1020500000D100BF1846C1F3421401F01F0601274A
:1020600007FA06F5012C01D10C3004E0022C01D155
:10207000103000E014301AB107682F43076002E007
:102080000768AF430760F0BD02460020B1F5007F4E
:1020900000D100BF13880B400BB1012000E00020ED
:1020A000704701F40072B2F5007F00D100BFCA434F
:1020B0000280704770B502460024002300250020EE
:1020C00040F66A16B14200D100BFC1F3421501F0DB
:1020D0001F03012606FA03F3012D13D1968933401D
:1020E00017E000000010014000440040004800409C
:1020F000004C0040005000400014014000780040B7
:10210000007C0040022D02D1168A334001E0968AFD
:1021100033400C12012606FA04F41688344013B139
:102120000CB1012000E0002070BD10B5002200239A
:1021300040F66A14A14200D100BF0A120124944063
:10214000A3B2DC43048010BD09488047094800471A
:10215000FEE7FEE7FEE7FEE7FEE7FEE7FEE7FEE757
:10216000FEE7FEE704480549054A064B70470000B4
:102170000104000895010008D8030020D8090020B8
:10218000D8050020D805002070B505460C4645F25C
:102190005550FEF711FC2846FEF711FC2046FEF7CD
:1021A00011FCFEF712FCFEF715FC70BD10B5FEF732
:1021B0000CFC10BD10B5FE4800F085FE002404E0C4
:1021C0000020FB490855601CC4B2642CF8DB0020D9
:1021D000F8490870FFF7EAFF10BD10B5F6A000F04F
:1021E000DBFE4FF4967000F0F4FCF5A1F04800F02F
:1021F00046FFF4490860FFF7DDFF0EE0FFF7DAFF66
:10220000EDA000F0C9FE4FF4967000F0E2FCECA1E6
:10221000E74800F034FFEB490860EA48006800280E
:10222000ECD0E9A000F0B8FE4FF4967000F0D1FCBD
:10223000E8A000F0B1FE4FF4967000F0CAFCE8A1EF
:10224000DB4800F01CFFDF490860FFF7B3FF0EE03A
:10225000FFF7B0FFDFA000F09FFE4FF4967000F094
:10226000B8FCDFA1D24800F00AFFD6490860D54883
:1022700000680028ECD0DBA000F08EFE4FF49670D2
:1022800000F0A7FCCEA1CA4800F0F9FECD490860D5
:10229000FFF790FFD7A000F07FFE4FF4967000F09C
:1022A00098FCD7A1C24800F0EAFEC6490860FFF7D3
:1022B00081FF0EE0FFF77EFFCEA000F06DFE4FF431
:1022C000967000F086FCCEA1B94800F0D8FEBD495A
:1022D0000860BC4800680028ECD0CCA000F05CFE90
:1022E0004FF4967000F075FCCBA1B14800F0C7FE2A
:1022F000B449086008460068002831D008460068E4
:10230000007A30380968C979303901EB810100EB76
:102310004100C349087008460078632804D0A948E2
:102320000068C0793038B8B915E00020BC4981F8A0
:102330007200BCA000F0C7FDC1A000F02DFE4FF45C
:10234000967000F046FC4FF4967000F042FC4FF49B
:10235000967000F03EFCE8E70120B14981F8720078
:10236000FFF728FF10BD10B500240AE004F130018A
:10237000B6A000F011FE4FF4967000F02AFC601C2D
:10238000C4B2052CF2DBFFF715FFB4A000F004FE89
:102390004FF4967000F01DFC85488078B6490870AF
:1023A00010BD70B504460D462B462246B248017852
:1023B000B2A000F0F1FD4FF4967000F00AFC80A18D
:1023C0007B4800F05CFE7F49086005E07CA178480E
:1023D00000F055FE7B4908607A4800680028F5D077
:1023E000FFF7E8FE70BD10B5AFA1714800F047FEE1
:1023F000744908600846006808B1FFF7DBFE10BDAD
:1024000010B50024AAA000F0C7FD4FF4967000F0AC
:10241000E0FBABA1664800F032FE6A49086005E0C7
:10242000A7A1634800F02BFE664908606548006874
:102430000028F5D0FFF7BEFEA5A000F0ADFD4FF4DB
:10244000967000F0C6FB5EA1594800F018FE5D4989
:10245000086005E05AA1564800F011FE594908608D
:10246000584800680028F5D0FFF7A4FEA1A000F0AE
:1024700093FD4FF4967000F0ACFBA4A14C4800F023
:10248000FEFD5049086005E0A0A1494800F0F7FDB5
:102490004C4908604B4800680028F5D0642000F0E3
:1024A00098FB09E004F1100046490968095C5C48A2
:1024B00073300155601CC4B204F110004149096831
:1024C000085C2C28EED1FFF775FE002493A1384854
:1024D00000F0D5FD3B49086005E090A1344800F0CC
:1024E000CEFD38490860374800680028F5D06420E0
:1024F00000F06FFB09E004F1110032490968095C42
:1025000047487D300155601CC4B204F111002D49CB
:102510000968085C2C28EED1FFF74CFE4FF47A7066
:1025200000F057FB3E497D31804800F035FD4FF407
:10253000967000F04EFB22A11D4800F0A0FD21493D
:10254000086005E01EA11A4800F099FD1D490860C9
:102550001C4800680028F5D0FFF72CFE10BD70B5B0
:102560000024002572A1124800F089FD1549086079
:1025700008460068002819D0642000F02AFBE1E03A
:1025800004F10B000F490968085C2C2801D1681C74
:10259000C5B204F10B000B490968095C204887307B
:1025A0000155022D03DB3122611CC7E008E1C7E0C1
:1025B0007D0100204000002041540D0A0000000071
:1025C0004F4B00002800002041542B4346554E3D00
:1025D000310D0A0041542B43494D490D0A000000BA
:1025E0003436300041542B43474154543D310D0A99
:1025F0000000000041542B43474154543F0D0A0052
:102600002B43474154543A310000000041542B43BE
:102610004553510D0A0000002B4345535100000063
:1026200048000020D0C5BAC5CBD1CBF7CAA7B0DCD3
:10263000A3ACC7EBB2E9BFB4D4ADD2F2210D0A000E
:1026400041542B4E52420D0A0000000041542B4EC3
:10265000534F434C3D25630D0A00000041542B4E5F
:10266000534F43523D444752414D2C31372C333068
:1026700030352C310D0A00003000002041542B4E23
:10268000534F53543D25632C3131342E3131352E87
:102690003134382E3137322C393939392C25732CD5
:1026A00025730D0A000000002B51534F4E4D490079
:1026B00041542B4D49504C4352454154450D0A005D
:1026C0002B4D49504C4352454154453A300000008F
:1026D00041542B4D49504C4144444F424A3D302CCB
:1026E000333333362C312C2231222C382C300D0A46
:1026F0000000000041542B4D49504C4F50454E3D79
:10270000302C3630302C36300D0A00002B4D49501D
:102710004C4F4253455256453A0000002B4D49500C
:102720004C444953434F5645523A0000A4310008E7
:102730002B4D49504C524541443A0000425402E06E
:10274000601CC4B21CE700BF0CE004F10B003D4963
:1027500009680A5C3C48A11C42543C4800F0B3FBA9
:10276000601CC4B204F10B0036490968085C0D28EE
:10277000EBD12C2133480068401C00F076FC314935
:102780000860FFF717FD304931A000F005FC4FF459
:10279000967000F01EFAAFF2D8112C4800F06FFCD2
:1027A0002849086006E0AFF2E811284800F067FC0D
:1027B00024490860234800680028F4D0FFF7FAFC99
:1027C00070BD10B52BA2204914392DA000F0E4FBF8
:1027D0004FF4967000F0FDF9AFF21C211B4800F099
:1027E0004EFC1849086006E0AFF22C21174800F0B3
:1027F00046FC14490860134800680028F4D0FFF72D
:10280000D9FC2BA2104914392CA000F0C5FB4FF4C1
:10281000967000F0DEF9AFF258210C4800F02FFC62
:102820000849086006E0AFF26821084800F027FC7C
:1028300004490860034800680028F4D0FFF7BAFC98
:1028400010BD000028000020CF0000207D010020E6
:1028500041542B4D49504C524541445253503D2513
:10286000732C342C342C322E33352C302C300D0A72
:102870000000000033392E393839333900000000A8
:1028800041542B4D49504C4E4F544946593D302CE4
:1028900025732C333333362C302C353531332C31F2
:1028A0002C382C222573222C312C300D0A000000EC
:1028B0003131362E333035363500000041542B4D42
:1028C00049504C4E4F544946593D302C25732C33BA
:1028D0003333362C302C353531342C312C392C22F5
:1028E0002573222C302C300D0A0000007FB50546E0
:1028F0000C4601210220FEF763FA0295ADF8044070
:102900000020ADF80C00ADF8060001A93748FEF72D
:102910004CFC012211463548FFF7E8F81D208DF8E0
:10292000000000208DF8010003208DF80200012036
:102930008DF803006846FDF702FE00212B48FEF7E4
:10294000BDFC7FBD7FB505460C4601210420FEF786
:1029500037FA0295ADF804400020ADF80C00ADF850
:10296000060001A92248FEF720FC0122114620485A
:10297000FFF7BCF81E208DF8000003208DF8010041
:102980008DF8020001208DF803006846FDF7D7FDA1
:1029900001211748FEF792FC7FBD10B501211348B5
:1029A000FFF7BBF8A8B101211048FFF7C7F811489D
:1029B0000078401C0F490870084600781E2808DB84
:1029C0000020087001200C49087000210748FEF71C
:1029D00075FC10BD10B501210548FFF79EF818B130
:1029E00001210348FFF7AAF810BD000000040040D1
:1029F00000080040310000203200002000B585B002
:102A000001210420FEF7BAF94FF400500390002092
:102A10008DF8100001208DF8130000208DF81100B2
:102A200003A92248FDF704FF01218803FEF7F2F90C
:102A30000D210220FEF7D3FA4FF400500190002040
:102A40008DF808000C208DF8090001208DF80A008F
:102A500001A8FDF7EDFD28208DF8000002208DF87B
:102A6000010001208DF802008DF803006846FDF793
:102A700066FD05B000BD10B54FF40050FDF73EFEF9
:102A800098B10BA000F01FFA01200D49C875084647
:102A9000007D401CC82190FBF1F201FB12000849A7
:102AA00008754FF40050FDF734FE10BD00080240D9
:102AB000BCECB2E2B5BDB0B4BCFC0D0A0000000035
:102AC000650100201CB501210D20FEF757F90420F7
:102AD000009001208DF8040000208DF806000220EF
:102AE0008DF8050069461648FDF7A2FE4FF4806098
:102AF000009001208DF8040000208DF806000220CF
:102B00008DF8050069460F48FDF792FE20200090E1
:102B100001208DF8040000208DF8060002208DF8B9
:102B2000050069460848FDF783FE00200749086054
:102B300001200749C1F88802064908601CBD000051
:102B4000000C02400008024000000240A80241427E
:102B5000008041429402404210B56FF00400FDF73E
:102B60003BFD2E4800682E49B0FBF1F02D4908705E
:102B70000846007800EB4001C1EBC0104FF6FF7132
:102B800001EAC0002849088010BD0146254A127894
:102B90004A434FF0E0235A6100229A611A461269B3
:102BA00042F001021A6100BF4FF0E022106900F00C
:102BB00001021AB100F48032002AF5D04FF0E02271
:102BC000126922F001024FF0E0231A6100229A619B
:102BD00070470146144A12884A434FF0E0235A6175
:102BE00000229A611A46126942F001021A6100BF7E
:102BF0004FF0E022106900F001021AB100F48032B7
:102C0000002AF5D04FF0E022126922F001024FF0C5
:102C1000E0231A6100229A6170470000040000203E
:102C200000127A00340000203600002010B54FF466
:102C3000A060FDF77FFC10BD00BF704700BFCE4A0B
:102C4000128802F04002002AF9D0C2B2CA4B9A8020
:102C5000704710B5044600BF8021C748FFF714FA3B
:102C60000028F9D02146C448FFF75EF910BD10B521
:102C7000044600BF8021C148FFF706FA0028F9D0BA
:102C80002146BE48FFF750F910BD10B5044600BFFD
:102C90008021BB48FFF7F8F90028F9D02146B84851
:102CA000FFF742F910BD10B588B00446012108466F
:102CB000FEF764F801211020FEF7ACF80722092185
:102CC000B048FDF740FE07220A21AE48FDF73BFE63
:102CD0004FF4C060069002208DF81C008DF81D0096
:102CE00000208DF81E0001208DF81F0006A9A548C0
:102CF000FDF79EFD02940020ADF80C00ADF80E002B
:102D0000ADF81000ADF814000C20ADF8120002A9C7
:102D10009948FFF756F8012240F225519648FFF7EF
:102D20008EF925208DF8040003208DF805008DF81C
:102D3000060001208DF8070001A8FDF700FC012125
:102D40008D48FFF7C6F840218B48FFF7AAF908B075
:102D500010BD10B588B0044601210846FEF70EF8F4
:102D600001214804FEF72CF8072202218548FDF7CF
:102D7000EAFD072203218348FDF7E5FD0C200690BC
:102D800002208DF81C008DF81D0000208DF81E001B
:102D900001208DF81F0006A97A48FDF749FD02942D
:102DA0000020ADF80C00ADF80E00ADF81000ADF845
:102DB00014000C20ADF8120002A97048FFF701F8CA
:102DC000012240F225516C48FFF739F926208DF891
:102DD000040003208DF805008DF8060001208DF811
:102DE000070001A8FDF7ABFB01216448FFF771F86C
:102DF00040216248FFF755F908B010BD10B588B002
:102E0000044601210420FDF7B9FF01212020FEF72F
:102E100001F8082206215C48FDF795FD08220721EC
:102E20005948FDF790FDC020069002208DF81C0047
:102E30008DF81D0000208DF81E0001208DF81F0068
:102E400006A95148FDF7F4FC02940020ADF80C00EF
:102E5000ADF80E00ADF81000ADF814000C20ADF880
:102E6000120002A94648FEF7ACFF012240F22551AC
:102E70004148FFF7E4F847208DF8040003208DF85F
:102E800005008DF8060001208DF8070001A8FDF768
:102E900056FB01213A48FFF71CF840213848FFF75C
:102EA00000F908B010BD0AE000BF3349098801F0FD
:102EB00040010029F9D001782F4A9180401C017807
:102EC0000029F1D170470BE000BF2C49098801F0BF
:102ED00040010029F9D00178284A121D1180401CB8
:102EE00001780029F0D170470BE000BF2449098820
:102EF00001F040010029F9D00178214A121D11800A
:102F0000401C01780029F0D1704710B540F22551DE
:102F10001948FFF7CFF8B0B11748FFF709F8C4B266
:102F20001548FFF705F8C1B2184802780078401C30
:102F3000164B18701648815418460078C72802DDD1
:102F400000201946087010BD10B540F225510B48FD
:102F5000FFF7B0F818B10948FEF7EAFFC4B210BD98
:102F600010B540F225510648FFF7A4F818B10448FF
:102F7000FEF7DEFFC4B210BD001001400044004067
:102F80000014014000000240000802404000002000
:102F90007D010020704700000FB4044910B503AA5A
:102FA000029800F099F810BC5DF814FB3C0000207A
:102FB0002DE9F0410E460446002020622046E168DB
:102FC000884730B3252805D0D4E901219047206AED
:102FD000401CF2E7E168204600278847050018D02A
:102FE000A5F14100192802D820354FF40067324678
:102FF000294620462760FDF707F940B1012804D093
:10300000F61D26F007060836D8E7361DD6E728460F
:10301000DAE7206ABDE8F08170B50C460546012A62
:1030200005D02878800600D5EA69002302E0012354
:1030300005E05B1C934202D2E05C0028F9D1A8694C
:10304000E618C01AA861286A184428622846AFF317
:10305000008004E0D5E9012114F8010B9047B44247
:10306000F8D32846AFF3008070BD401ECAB210F8F6
:10307000011F8A4202D00029F9D10020704730B5E3
:1030800005460B462A4613F8014B12F8010B08B10E
:10309000A042F8D01CB1002802D06D1CF1E72846F0
:1030A00030BD704770477047704710B5436913B122
:1030B000AFF3008001E0FFF7AFFF012010BD1278F1
:1030C00000F124010A7000224A700122EDE7116824
:1030D0004FF0FF32E9E70000074B70B50D467B4427
:1030E00000F011F80446284600F020F810B14FF027
:1030F000FF3070BD204670BD5BFBFFFF01694A1CBD
:1031000002610878704700B58FB0CDE90131002128
:10311000059105497944CDE9031011466846FFF74A
:1031200047FF0FB000BD0000E5FFFFFF007B00F090
:1031300080007047754600F02BF8AE4605006946E2
:10314000534620F00700854618B020B5FFF70AF86F
:10315000BDE820404FF000064FF000074FF0000898
:103160004FF0000B21F00701AC46ACE8C009ACE819
:10317000C009ACE8C009ACE8C0098D46704710B57D
:103180000446AFF300802046BDE81040FDF753B879
:1031900000487047740300204FF04070E1EE100AC1
:1031A0007047000041542B4D49504C444953434F04
:1031B0005645525253503D302C25732C312C333907
:1031C0002C22353531333B353531343B35353135CE
:1031D0003B353531363B353531373B353531383B8D
:1031E000353730353B35373530220D0A00000000C9
:1031F000103200080000002048000000D001000844
:10320000583200084800002090090000EC01000836
:103210000000000000BD01050000000000000000EB
:10322000010203040607080900000000010203046C
:103230000102030406070809000000000000000066
:10324000000000000000000000000000000000007E
:08325000000000000000000076
:040000050800019559
:00000001FF
