:020000040800F2
:1000000030090020A1010008F9310008AF260008DE
:1000100000000000000000000000000000000000E0
:100020000000000000000000000000001133000884
:100030000000000000000000FB3100083D33000814
:10004000B3010008B3010008B3010008B3010008C0
:10005000B3010008B3010008B3010008392000080B
:10006000B3010008B3010008B3010008B3010008A0
:10007000B3010008B301000800000000B30100084C
:1000800000000000B30100080000000000000000B4
:10009000B301000800000000B3010008B30100082C
:1000A000B3010008B3010008B3010008B301000860
:1000B000B3010008E1320008B3010008B3010008F1
:1000C00000F002F800F05DF80CA030C808382418E1
:1000D0002D18671EA246AB4654465D46AC4201D180
:1000E00000F04FF87E460F3EB6460FCC0126334255
:1000F00000D0FB1A3343A246AB461847A83F000086
:10010000C83F0000103A02D378C878C1FAD8520725
:1001100001D330C830C101D504680C6070470000BD
:100120000023002400250026103A01D378C1FBD813
:10013000520700D330C100D50B60704710B5662957
:1001400002D103F0BFFE10BD642902D100F030F9E6
:1001500010BD632902D100F0F9FE10BD732902D150
:1001600000F0FCFE10BD002010BD1FB500F00EFF1A
:1001700004000020002103F0D7FDE0601FBD10B592
:1001800010BD01F03BFB1146FFF7EFFF03F0E6FB6C
:1001900001F053FB03B4FFF7F2FF03BC01F008FCCE
:1001A0000748804707480047FEE7FEE7FEE7FEE70F
:1001B000FEE7FEE704480549054A064B7047000084
:1001C000C1330008C10000083003002030090020BE
:1001D0003005002030050020FEB5044610460D46CF
:1001E000184373D0A6468C460020A41A01469D41B0
:1001F00067D36646002701243D46B61A9D4102D3C7
:1002000013463A462124654676462F04360C3E4373
:100210002D0CB61A9D4104D3150C1B042B4312045C
:100220001034654676462F06360A3E432D0AB61A26
:100230009D4104D3150E1B022B4312020834654660
:1002400076462F0736093E432D09B61A9D4104D341
:10025000150F1B012B431201241D65467646AF077F
:10026000B6083E43AD08B61A9D4104D3950F9B00D6
:100270002B439200A41C65467646EF0776083E4362
:100280006D08B61A9D411AD392185B41641C16E0A2
:100290000018764665464941B71A9D410191009084
:1002A00009D36046B11A98418E4684460098019958
:1002B0000025401C6941DD0752082A435B08641E83
:1002C000E6D57246634603B0F0BDFFE720462843FB
:1002D00007D00020C0430146C046C04622462B46F8
:1002E000F1E700200146F7E70FB41CB5074B06AA5B
:1002F0007B4469460090059800F005FE00206946A1
:1003000000F014FE1CBC08BC04B01847390C0000F7
:1003100070B5044685690068C10601D5302600E045
:100320002026C00707D070BD62683046A16890479C
:10033000206A401C20626D1EF6D570BD70B5044663
:1003400085690078C00707D170BD6268A168202068
:100350009047206A401C20626D1EF6D570BD70B5B6
:100360000C460546012A05D02878800600D5EA69A2
:10037000002302E0012305E05B1C934202D2E05C13
:100380000028F9D1A869E618C01AA861286AC0181F
:1003900028622846FFF7BCFF04E06A682078A96855
:1003A000641C9047B442F8D32846FFF7C7FF70BDDE
:1003B000F7B5002575291068009914A611D0C0461C
:1003C000C046002802DA404211A608E000990968F8
:1003D0008A0701D50FA602E0490704D50EA601251C
:1003E00001E0C046C046009F0024243704E000F02E
:1003F000B9FD30313955641C0028F8D12B463246FE
:100400002146009800F017FBFEBD00000000000030
:100410002D0000002B00000020000000F3B5044672
:10042000002081B020622046E168884700287AD009
:10043000252802D06268A16871E0E16820460025A5
:10044000884706460020E0610746A0612A2E0AD0B0
:10045000304603F062FC002827D0B8000019303E77
:100460000090866119E00298BA00121902C89161E1
:1004700002902046E1688847012F064617D1E069BF
:1004800000281FDA202085431CE000980A2180699B
:10049000484300998019303888612046E1688847D0
:1004A000064603F03AFC0028EFD1012F0AD02E2E89
:1004B00008D12046E16888470646202005437F1C76
:1004C000022FC3DBA069002803DA4042A0610120AB
:1004D0000543E80701D010208543002E23D0304685
:1004E0004138192803D80120C00205432036204690
:1004F00025603146029A1546FFF720FE00280BD0F2
:10050000012806D0ED1DE808C000083002908AE7F7
:1005100009E02D1D029586E762683046A168904784
:10052000206A401C7EE7206AFEBD30B505460B46BA
:100530002A461C781078521C5B1C002801D0A0426F
:10054000F7D0002C03D0002802D06D1CEFE728461E
:1005500030BD000030B5441C03E00178401C002988
:100560000DD08107F9D10B4BDD0104C8D11A91439D
:100570002940FAD0001B0A0603D0C01E30BD001B64
:1005800030BD0A0401D0801E30BD0902FCD0401EDF
:1005900030BD00000101010101E004C0091F042970
:1005A000FBD28B0701D50280801CC90700D00270E6
:1005B000704700290BD0C30702D00270401C491EAF
:1005C000022904D3830702D50280801C891EE3E739
:1005D0000022EEE70022DFE7002203098B4273D3FB
:1005E000030A8B4258D3030B8B423CD3030C8B4240
:1005F00021D312E003460B437FD4002243088B42F1
:1006000074D303098B425FD3030A8B4244D3030B99
:100610008B4228D3030C8B420DD30902FF2212BA5E
:10062000030C8B4202D31212090265D0030B8B42DA
:1006300019D300E0090AC30B8B4201D3CB03C01AC4
:100640005241830B8B4201D38B03C01A5241430B9F
:100650008B4201D34B03C01A5241030B8B4201D38F
:100660000B03C01A5241C30A8B4201D3CB02C01AFA
:100670005241830A8B4201D38B02C01A5241430A72
:100680008B4201D34B02C01A5241030A8B4201D361
:100690000B02C01A5241CDD2C3098B4201D3CB0108
:1006A000C01A524183098B4201D38B01C01A5241B7
:1006B00043098B4201D34B01C01A524103098B42BB
:1006C00001D30B01C01A5241C3088B4201D3CB00A6
:1006D000C01A524183088B4201D38B00C01A524189
:1006E00043088B4201D34B00C01A5241411A00D239
:1006F00001465241104670475DE0CA0F00D04942A2
:10070000031000D3404253409C46002203098B4211
:100710002DD3030A8B4212D38901FC2212BA030A99
:100720008B420CD3890192118B4208D3890192111B
:100730008B4204D389013AD0921100E08909C309A0
:100740008B4201D3CB01C01A524183098B4201D3A2
:100750008B01C01A524143098B4201D34B01C01A8D
:10076000524103098B4201D30B01C01A5241C30805
:100770008B4201D3CB00C01A524183088B4201D374
:100780008B00C01A5241D9D243088B4201D34B008F
:10079000C01A5241411A00D20146524110466346E6
:1007A0005B1001D34042002B00D54942704763469D
:1007B0005B1000D3404201B50449002802DC491C0B
:1007C000084000E00846C046C04602BDFFFFFF7F6C
:1007D00070477047704700000121C9050123411887
:1007E00042001B06D3185B0E0AD0C1100722D206A6
:1007F000891840075242D14201D5520089187047EA
:10080000090208D50146002A03D0C10FC9070020FC
:10081000704710467047420202D0002002497047DC
:10082000072109050143F4E70000F87FF0B5FF2533
:100830002D04C609C209FF2704462E400137CB0903
:100840003E4348402A402B400746002A6BD0002BED
:1008500069D0AA4267D0AB4265D0002800DA3246A0
:100860000125ED0529432C4309022002090AD21A69
:100870004B0C7F24E31A434C000A7C44E35C7D2448
:100880002404121914145B00A218884201D3521CCC
:1008900000E0400049420C465C4324115C43DB010C
:1008A0006415E318040A5C43C502200D0C4644435A
:1008B0006419250A5D432303EC0C0D4665430003D0
:1008C0000019EB184C42A34201D35B18401CD4051D
:1008D0002018002B07D05B00C91804D3401C002946
:1008E00001D1400840003F2189048A4209D3002AEF
:1008F00008DC1106090F04D0032149074018C00F76
:10090000C007F0BD01224100120689187F2252065D
:100910009142F6D205214907C84201D59010F0BD99
:10092000FF20C005F0BD002F00DA32461648AA426B
:1009300007D2AB4205D21902090E17D0F80FC00733
:10094000F0BDFF2563002D06AB42F9D84900A9424E
:10095000F6D8AB4201D1A942F2D0A94201D100217F
:1009600001E061004908D0050843F0BD1102090EFD
:10097000FBD0FF200243D005F0BD0A4601461046D9
:1009800054E70000563600000000C07F10B5014655
:100990009E240002CA15A307002A02D01843002A89
:1009A00004DBA21A002A0CDDD04010BD1206120E84
:1009B00001D140004008A21A03D4D0404042002890
:1009C000F3DDFF2248001206904201D9002010BD3D
:1009D000C817C043584010BD1F22030C02D10F227C
:1009E00000041CD0030E01D10002083A030F01D10C
:1009F0000001121F830F01D18000921E002801DB2D
:100A00004000521ED205511802125118192290406E
:100A100004D3491C002801D1490849000846704701
:100A2000C10FC90700D04042012292071143D3E70A
:100A300001218907D0E7FFB504460D4681B0243077
:100A400000902168880604D51022E0699143216056
:100A500000E00120A84201DD471B00E000270498C8
:100A6000A1697A191018081AA0612078C00602D46A
:100A70002046FFF74DFC002608E003986268A16855
:100A8000805D9047206A401C761C20620498864254
:100A9000F3DB2078C0060AD52046FFF739FC06E0D4
:100AA0006268A16830209047206A401C2062384666
:100AB0007F1E0028F4DC07E000986268A168405DB2
:100AC0009047206A401C206228466D1E0028F3DCF7
:100AD0002046FFF733FC2078000602D5022005B03F
:100AE000F0BD0120FBE70000FFB50C461E468FB0AD
:100AF00003CA089009914F007D0D00D16D1E0021A1
:100B000008460020C0460321099A89050840002AAA
:100B100003DA8200801840080840800D01280A90FE
:100B200002DD0020C0430A90089807430DD0F0482A
:100B3000F049281848430714189800281DD075421A
:100B4000291E1DDD0A9842421BE01898012802D098
:100B50000020302104E00020F24305E02154401C35
:100B6000B042FBDB30460022189B002121540F9934
:100B70008B600A60486013B0F0BDBD1B6D1CDFE7E1
:100B80000A9A002900DA69420BA800F085FA0BAB3B
:100B900007CB03AB07C30899099800F0E9FA6B4645
:100BA00007C30146D4480918002D00910BDDD24936
:100BB00003980A9A49424018002303A90390684603
:100BC00000F046FD08E003990A9A0023081803A9DB
:100BD0000390684600F0E6FC6B4607C30004000C77
:100BE00003D00020C043410800E01046189A002AB4
:100BF00003D00022009215461EE0751E05D400F0B9
:100C0000C9F9303262556D1EF9D5012208430796A5
:100C100002D000227F1C04E02078302801D100227D
:100C20007F1E002A069787D01EE0112D07DA00F0FC
:100C3000B1F9303262556D1C02460A43F5D10843C2
:100C400003D00098002819D00EE00021681E05E0AE
:100C5000235C625C63542254401E491C8142F7DBD2
:100C6000A81B401E07950690079A18990020A054CB
:100C70000F98079B069A81600CC07CE71126002024
:100C8000189059E7D21DF0B50D460446D10893B02F
:100C9000C90003C90C900D9102F0D8FF02460D98CF
:100CA000C00F01D02D2007E02068810701D52B203F
:100CB00002E04007C00F4001032A0F9001D0072A2D
:100CC00005DB03462946204600F0A2F90EE1207814
:100CD000800601D5E76900E006272846652D04D087
:100CE000662814D0672D69D12DE00020112F0090C7
:100CF00001DB112300E07B1C0CAA03A910A8FFF75D
:100D0000F3FE1199002610987D1C0E9142E00120FF
:100D10003B460CAAC0070B900120009003A910A825
:100D2000FFF7E2FE119D12981099002600280E95FB
:100D300001D1781C0D18781B02D446427D1C761E0A
:100D4000E81B00903AE0012F00DA01270020112F64
:100D5000009001DD112300E03B460CAA03A910A876
:100D6000FFF7C2FE11993D46109800260E9121789A
:100D700009070BD40E99A94200DA0D4603A9012DEB
:100D800004DD4A19203AD27F302A06D0B84201DA6F
:100D9000011D04DA012100910FE06D1EEFE700282C
:100DA00002DC86192D1A03E0411CA94200DD0D4624
:100DB000801B401C00900120C0070B90207800078A
:100DC00005D40098A84202DB0020C0430090694689
:100DD0000020C8720B98012102AF0337C90788426F
:100DE00025D0022010902B2011900B9800280BDAB0
:100DF00040420B902D20119006E00B9800F0B2F8C5
:100E000030317F1E0B9039701099481E00291090C8
:100E1000F3DC0B980028F0D111987F1E38702088E1
:100E2000000501D5452000E065207F1E387001A82F
:100E3000C01BC01D0B900F98002800D00120411945
:100E40000098C01709180B980818A169081A401EC5
:100E5000A0612078C00602D42046FFF759FA0F9807
:100E6000002805D06268A1689047206A401C206273
:100E70002078C00625D52046FFF74AFA21E0002E4B
:100E800007DB0E98B04204DD03A86268805DA168AC
:100E900002E06268A16830209047206A761C401CFE
:100EA00020620098401E002800900AD100F06EF8E1
:100EB000C06862680168405CA1689047206A401C75
:100EC000206228466D1E0028D9DC07E06268387869
:100ED000A1687F1C9047206A401C20620B99481E25
:100EE00000290B90F2DC2046FFF728FA032042E6A7
:100EF00001FCFFFF104D0000E1DFFFFF01694A1C0C
:100F000002610878704700B58FB002910021059109
:100F10000549019379440391114604906846FFF70F
:100F20007DFA0FB000BD0000E5FFFFFF0A681070FA
:100F3000521C0A60704710B54369002B02D0C046AE
:100F4000C04601E0FFF70BFA012010BD1278014600
:100F500024310A7000224A700122ECE71168002255
:100F6000D243E8E701468008081A02091018020A6D
:100F70001018020C1018C008820012185200891AAA
:100F800001E0401C0A390A29FBD27047004870472B
:100F9000400000200B4670B50246890780080843D0
:100FA00019469D08141AA94125090807054308098F
:100FB0002C194841250A01060D43010A2C1941410B
:100FC000200C0D0428430D0C00194D41002140193F
:100FD0004D41C00869070843E908840F8D00254387
:100FE000840024184D4124196D41121BAB4107E0C8
:100FF0000925ED432C11521963410024401C614125
:101000001C460A250026551BB441F1D270BD0000D4
:10101000F8B51F46044601230068DB02032601469B
:101020001840072A05DB002801D017A506E017A500
:1010300004E0002801D016A500E016A51020814389
:101040002160A069C01E002FA06101D0401EA061D8
:101050002046FFF75DF9002F09D038466268A16885
:101060009047206A401C2062C01C206206E0206A73
:10107000FAE762682878A1686D1C9047761EF8D25E
:101080002046FFF75BF9F8BD4E414E006E616E00E1
:10109000494E4600696E6600F7B516468AB0334879
:1010A00078446C4603467C33C06F5A689B680DC415
:1010B0002E487844763003AC0DC80DC43720C001EB
:1010C000081837211B30FFF795FA05460C46803D7E
:1010D0001B3C02D56442012000E00020002709905B
:1010E00010E0E0070CD00C202049784379443246C8
:1010F0004C3941186846012300F054FA6B4607C387
:1011000064107F1C002CECD1184F7F442E3F16E05A
:10111000E80712D02001C0190EC806910893079263
:101120000068F04201D1981908903246012306A9BF
:1011300003A800F037FA03AB07C36D10641C002D41
:10114000E6D10998002806D032466946012303A853
:1011500000F07EFA05E001233246694603A800F05C
:1011600021FA0A9B07C30DB0F0BD0000702E0000ED
:10117000034640000A4610B5400D0BD00121C907B7
:101180000F24A40200191C0364082143540D2143B9
:10119000D20207E000210120F2E7D40F49002143E9
:1011A0005200401E0029F8DADB0FDB07184310BDA0
:1011B000FFB50D46144685B04868516802F02DFD14
:1011C00000910190A868A16802F027FD02910390A8
:1011D000A868616802F021FD029A12188242029208
:1011E00001D2012000E00020019A0B18D21800283B
:1011F000019202D08A4202D903E08A4201D2012040
:1012000000E000200099081800906868A16802F0CA
:1012100004FD029A12188242029201D2012000E0DB
:101220000020019A0B18D2180028019202D08A429D
:1012300002D903E08A4201D2012000E00020009997
:1012400008180090286821684000490040084908B3
:101250004018FA49471814E001994000C90F0843A3
:101260000090019802994000C90F0843019002982C
:1012700003994000C90F08430290039840007F1E65
:10128000039000980028E7DA0898002801D0EC4E77
:1012900000E00026B74201DA012000E0002000282B
:1012A00004902AD0F71BF806C00E15D0029B20210F
:1012B000091A039A8B401A430392029A019BC24077
:1012C0008B401A430292019A009BC2408B400099C6
:1012D0001A430192C14000917B110DD06F4603204B
:1012E000C11A03D500218200B95003E08A008100B1
:1012F000BA587A50401EF3D5374603980299002811
:1013000000D00120014308980291002808460CD023
:10131000002800D001200199019A490508430121C4
:10132000D20AC902D202019200E001210E9B0122E1
:10133000D207012B02D0002B03D013E0002807D1E5
:1013400020E0904204D890420CD1019B0B4209D07E
:10135000019B5918019105D10099491C009101D1B7
:101360007F1C009200280DD0102108460020C046A6
:101370000498002806D00F98002803D008210846BA
:101380000020C04628682168019B009A4840C10F90
:101390000598C90739430EC009B0F0BDFFB587B045
:1013A000099A08980899536892684068896896462F
:1013B0000022039317469446089A12685300099A2C
:1013C0005B081268520052089A1A9E4BD4180A9A67
:1013D000002A01D0352200E040220692002201239B
:1013E00015460492DB07059324E0002D05D17546D0
:1013F0000346039E4D1BB34109D375466646039BC6
:10140000491B049D9841059B7519AC465F41634695
:101410003B4308D0059B049EDD0776082E435B08FE
:101420000496059301E0521E641EC50FED0749188E
:101430004041521C069B9A42D7DB002D04D17546D1
:10144000039A6B1A824101D203200CE0039A0B46E7
:101450006B404240134303D0014303D0012002E01C
:10146000022000E0002061460191002100970291D6
:101470000A99002905D0614640020143704B019151
:1014800002E08007002302909C4201DA012000E084
:10149000002007003AD01A1BD006C00E15D0029DBE
:1014A0002021019C091AC5408C402543029C8C4098
:1014B00000D001242543019C0295009DC4408D402D
:1014C00000992C430194C140009154111DD06D46E8
:1014D0000221002202290CD10320001B07E0002872
:1014E00004DB8600AE59002E00D00122401C0328E8
:1014F000F5DB081B02D588002A5004E0800028583C
:1015000010438A00A850491EE3D51C460A980028BB
:1015100002980CD0002800D001200199019A4905B9
:1015200008430121D20AC902D202019200E001213E
:10153000109B0122D207012B02D0002B03D013E015
:10154000002807D11FE0904204D890420CD1019BA3
:101550000B4209D0019B5918019105D10099491CF2
:10156000009101D1641C009200280CD01021084683
:101570000020C046002F06D01198002803D0082173
:1015800008460020C04608980999019A009B006807
:1015900009684840C10F0798C907214382600AC003
:1015A0000BB0F0BD00B585B0019300920A4601462C
:1015B000002302A8FFF7FCFD02A807C805B000BD84
:1015C000FFB50A461F4685B0079901930123009194
:1015D000014602A8FFF7ECFD02990398049ECA0F8A
:1015E0004900D20700920F22490892028C1A00216A
:1015F000002800DB0C46450013486D08844214D3D4
:10160000079A002A04DA441E0026104DF64302E031
:1016100004460D460E46102108460020C046002F05
:1016200003D0042108460020C0462005E90A0843EB
:10163000009908436905F20A1143ADE602C0FFFFB5
:10164000013C0000FF3F0000FF070000FFFFFF7F9D
:1016500000B585B0019300920A460146002302A816
:10166000FFF79CFE02A807C8A8E7FFB50A461F4679
:1016700085B00799019301230091014602A8FFF765
:101680008DFE02990398049ECA0F4900D20700926A
:101690000F22490892028C1A0021002800DB0C4618
:1016A000450011486D08844214D3079A002A04DAD1
:1016B000441E00260D4DF64302E004460D460E463C
:1016C000102108460020C046002F03D00421084600
:1016D0000020C0462005E90A08430099084369052F
:1016E000F20A114358E60000FF070000FFFFFF7FEA
:1016F000F8B5264C4E00069DA6420AD8A64201D156
:10170000002806D15E00A64203D8A6420AD1002ACC
:1017100008D00D242404254233D02946002000F0AF
:10172000EDF8F8BD0C461C4311D4994207D0C81AF5
:1017300002D3EFF30080F8BDEFF30080F8BD801A0C
:1017400002D3EFF30080F8BDEFF30080F8BD092469
:101750002407E5008B4207D0581A02D3EFF300802C
:1017600006E0EFF3008007E0101A03D3EFF30080E8
:10177000A04303E0EFF30080A043284380F30088F8
:10178000F8BD009500F0D2F8F8BD00000000E0FFC1
:1017900010B5FF231B0644009C421DD84C009C4200
:1017A0001AD80346124A0B4307D4401A02D3EFF368
:1017B000008010BDEFF3008010BD081A03D3EFF3D3
:1017C0000080904305E0EFF3008001219043C907BA
:1017D000084380F3008810BD0D231B041A4204D077
:1017E0001146002000F08AF810BD00F0A9F810BDE5
:1017F0000000009000487047200000207546FFF769
:10180000F9FFAE46050069465346C008C00085464C
:1018100018B020B5FEF7CEFC60BCB6460026002707
:10182000C0C5C0C5C0C5C0C5C0C5C0C5C0C5C0C590
:10183000403D490849008D46704710B50446C046F2
:10184000C0462046FEF7A6FC10BD000082078B07AD
:101850009A423FD170B5920F0AD0032402780B78D8
:10186000401C491C002A33D09A4231D12042F5D184
:10187000214EF40104C808C9951B9543254018D191
:101880009A420FD104C808C9951B9543254010D131
:101890009A4207D104C808C9951B9543254008D131
:1018A0009A42E7D012BA1BBA01209A4200D24042B3
:1018B00070BD12BA1BBA2DBA18241000E0401900EE
:1018C000E140401A05D12E00E64002D1083CF4D197
:1018D000D01A70BD02780B78401C491C002A09D030
:1018E0009A4207D102780B78401C491C002A01D08B
:1018F0009A42EFD0D01A704701010101C80212D5F7
:101900004803400F002804D0C803C0430121884089
:101910007047EFF300800001000903210907084325
:1019200080F30088704700207047000010B5002049
:101930000249029A00F00CF810BD00000000F87F88
:1019400010B5024800F004F810BD00000000C07F90
:1019500010B50C461107090F092904D00A290AD02D
:1019600008290CD104E011460820FFF7C7FF06E064
:10197000510606D501E0510601D50120C0072146D8
:1019800010BDD10607D501010909CC084907000E91
:101990000006044309E0410F20024907000A014301
:1019A000200E00061D22D14101430846E7E7000052
:1019B00001491820ABBEFEE7260002007047000078
:1019C000F0B581B054A001F005FC4B208400204606
:1019D00001F09EFB54485549FEF7A7FD544F38606F
:1019E000002808D1504D514E28463146FEF79DFD46
:1019F00038600028F8D000F0DBFA4EA001F0EAFBD6
:101A0000204601F085FB48485349FEF78EFD3860BB
:101A1000002808D1444D504E28463146FEF785FD3A
:101A200038600028F8D000F0C3FA4CA001F0D2FBD7
:101A3000204601F06DFB3C484E49FEF776FD3860CC
:101A4000002808D1384D4B4E28463146FEF76DFD33
:101A500038600028F8D0642001F05AFB3868007C18
:101A60002C280CD039680023F24A1D46D31873265F
:101A700098556D1CEBB25818007C2C28F6D100F05C
:101A800097FA29483C49FEF750FD3860002808D1F4
:101A9000254D394E28463146FEF747FD386000286F
:101AA000F8D0642001F034FB3868407C2C280CD03E
:101AB00039680023DF4A1D46D3187D2698556D1CD2
:101AC000EBB25818407C2C28F6D100F071FA7D203A
:101AD000C00001F01DFBF54A7D32F54D274928462F
:101AE000FEF702FC284601F075FB204601F010FBD2
:101AF0000D481949FEF719FD3860002808D10A4C35
:101B0000154D20462946FEF710FD38600028F8D014
:101B100000F04EFA01B0F0BD41542B4D49504C43FA
:101B200052454154450D0A00C80100205F4000089D
:101B30002003002041542B4D49504C4144444F4216
:101B40004A3D302C333332322C312C2231222C3985
:101B50002C300D0A000000009C40000841542B4D21
:101B600049504C4F50454E3D302C3630302C36309D
:101B70000D0A00007F4000088D400008E93F000882
:101B800010B500F015FA08A001F024FB642001F064
:101B9000BFFAF4488078E54C607000F009FA60788C
:101BA00001F084FC10BDC04641542B4E534F4352AC
:101BB0003D444752414D2C31372C333030352C3198
:101BC0000D0A000010B508A001F004FB32242046E5
:101BD00001F09EFA0DA001F0FDFA204601F098FAFE
:101BE000FFF7CEFF10BDC04641542B4350534D5319
:101BF0003D312C2C2C30313030303131312C3030E3
:101C00003030303030310D0A0000000041542B4E8E
:101C100050534D523D310D0A00000000F0B589B01F
:101C200000F0D0FF002801D100F09CFF00210891B6
:101C300002200790069101910591012000900490E7
:101C400004200390694803A900F0D6FE684801F01B
:101C5000C1FA4B208400204601F05AFA65486649D3
:101C6000FEF763FC654D286000F0A2F928680028A3
:101C700010D1604E604F00F09BF95D4801F0AAFA68
:101C8000204601F045FA30463946FEF74EFC286002
:101C90000028F0D05AA001F09DFA204601F038FA51
:101CA0005A4801F097FA204601F032FA5148584953
:101CB000FEF73BFC286000F07BF92868002810D173
:101CC0004C4E534F00F074F9504801F083FA20460F
:101CD00001F01EFA30463946FEF727FC286000283E
:101CE000F0D04CA001F076FA204601F011FA414EF6
:101CF00041493046FEF719FC286000F059F949487F
:101D000001F068FA204601F003FA47493046FEF731
:101D10000CFC286000F04CF92868002810D1354EE2
:101D2000414F00F045F93F4801F054FA204601F0D8
:101D3000EFF930463946FEF7F8FB28600028F0D06E
:101D40003A4801F047FA2E460294204601F0E0F9A5
:101D500028483749FEF7E9FB286041790A2779438B
:101D6000807940181038334D28703246019E15E0B6
:101D7000144600F01DF92D4801F02CFA029801F0EC
:101D8000C7F91C482A49FEF7D0FB2246206041795A
:101D900079438079401810382870761C2878632899
:101DA000E6D0F0B2032803D8116849793029DFD092
:101DB000032803D872200099295410E072200021D2
:101DC00029541DA001F072FB00F086FEC8242046B5
:101DD00001F09EF900F05EFE204601F099F900F056
:101DE000E7F87220285C09B0F0BDC046000400503E
:101DF00056400008C80100209C4000082003002035
:101E000041542B4346554E3D310D0A0043400008D6
:101E10005B40000841542B43474154543D310D0A67
:101E20000000000037400008764000084D400008E0
:101E30009F40000880000020E4BFA1E58FB7E69036
:101E40009CE7B4A2E5A4B1E8B4A5EFBC8CE8AFB7B9
:101E5000E69FA5E79C8BE58E9FE59BA0210D0A00E0
:101E600070B5FEF793FD0346104A7332104C11A172
:101E70002046FEF739FA204601F0ACF9642001F063
:101E800047F952481649FEF750FB384E306000289B
:101E900008D14E4C124D20462946FEF746FB3060D5
:101EA0000028F8D000F084F870BDC0468000002003
:101EB0009002002041542B4D49504C4E4F544946FE
:101EC000593D302C25732C333332322C302C35379E
:101ED00030302C342C342C25642C302C300D0A005E
:101EE0009C40000870B511484278114C11A1204661
:101EF000FEF7FAF9204601F06DF97D20000101F0AE
:101F000007F932481849FEF710FB184E30600028D8
:101F100008D12E4C144D20462946FEF706FB3060B2
:101F20000028F8D000F044F870BDC04680000020C2
:101F30009002002041542B4E534F5354463D25638D
:101F40002C34372E39322E3134362E3231302C3873
:101F50003838382C30783230302C322C4142333003
:101F60000D0A0000C80100206D4000082003002079
:101F700080B582B000200190009000F02FFE002874
:101F800001D100F007FE01F021F800F0D5FD00F0CE
:101F9000B9FD6846022181710121818049030091C8
:101FA00000F0C8FC01F0BCFC01F08EFC02B080BD6A
:101FB00010B5064C204601F079FAC8212046FEF7FC
:101FC00007FB03480021017010BDC046C801002076
:101FD000E0020020B0B50346303B0A2B1AD2400085
:101FE000134BC018603800884B1E59425941012AD2
:101FF00001D1402210430843042300210D4ADBB2E3
:102000000446DC400F2525405550091D1B1F08299B
:10201000F5D1B0BD452805D06F2805D0722805D16F
:102020004220E1E75E20DFE77220DDE70020DBE70A
:10203000C03F0008A001002080B50A2001F068F828
:1020400000F020FD002804D100F032FB0A2000F04F
:1020500005FB00F0BBFC002801D000F02DFC80BD8A
:10206000EFF3108072B6FEE7F0B58AB004900B680B
:10207000002B00D1A5E05448049A824201D00620EA
:1020800000E0052000900B20000712180A20C24132
:102090000192012500263446039506910BE0184372
:1020A0004A4AD0600B681846E840B61C241D6D1CD7
:1020B000002800D185E0681E039A099082401340F1
:1020C000F0D0089405934F68122F16D80120B8401D
:1020D0003F49084211D00320B04004998C688443E2
:1020E0000698C068B04020438860F806C00F099B7E
:1020F00098404C68944304434C6003210791B140DD
:10210000049BDC688C43069A9068B0402043D860FA
:1021100010200743C943122F10D11C2002910899A7
:1021200008400F2484400999CF08BF00DF19396A9D
:10213000A143146984400C4302993C62186808402A
:1021400051680C46079F3C40B44004431C60C800E3
:102150001146059B089CA5D5F84A1068012101434A
:1021600011600C2727400199042900D30099B94038
:102170000F20B840099F079A9743164ABC588443DA
:102180000C43BC50114A106806994F68FC0301D5F6
:10219000184300E0984310605068BC0301D5184311
:1021A00000E0984350609068FC0201D5184300E0BD
:1021B0009843089C9060D068BA0200D56FE79843B6
:1021C0006EE70AB0F0BDC046001C0050000401409C
:1021D0000600060008000140014800687047C0463C
:1021E0002803002010B50948016840220A43026014
:1021F0000024204600F00CF8002802D001242046DC
:1022000010BD00F091F9204610BDC04600200240EC
:10221000B0B504467D20C0000C49097801F002FCED
:1022200001460B48006801F0FDFB00F08DF9012527
:10223000032C09D8002807D10025E84321462A4667
:1022400000F07EF9034804602846B0BD1800002065
:10225000140000201C000020F0B581B00446352099
:10226000205C26463436012802D0707802281ED120
:102270003078012802D1022001B0F0BD0220009088
:10228000707001203070FFF7A7FF0546A54F20684A
:10229000816849070ED5FFF79FFF401BB842F6D370
:1022A000002030700098A063032001B0F0BD012031
:1022B00001B0F0BD143000210A468150121D402AA1
:1022C000FBD1204600F0C8F8002001B0F0BDC046A8
:1022D000F0B583B0002870D00546044634346078E9
:1022E000002804D100202070284600F071F8022058
:1022F0000094607028680168012201929143016096
:102300000146143100221346CA501B1D402BFBD13D
:10231000816804220A43826041682C4A0A40696845
:10232000AB6811431943AA6902922F461C37D8CFD4
:10233000EA6A0F4317431F43274302990F4337436A
:102340004760284600F080FA28680168FE22914321
:102350002C460C341CCC0A431A432243296B1143EC
:1023600001600168019A114301607D20C000029064
:10237000FFF732FF06462C4628688068C707FFF73C
:102380002BFF0546002F0DD1A81B02998842254638
:10239000F1D90820A86315E0FFF71EFF401B029942
:1023A00088420DD820688068C006F5D50020A0635B
:1023B0000099019A4A7003B0F0BD012003B0F0BD4E
:1023C0001020A063032003B0F0BDC0460F0000FC46
:1023D000F0B587B0002506950595049503950295FF
:1023E00000681949884201D007B0F0BD012671028A
:1023F0001648C2680A43C260016802273943016077
:102400000168394001910199016831430160006818
:102410003040019006960595049503970C4802906C
:1024200001980C4802AC2146FFF71EFE0696059562
:10243000049503978720000202900520000721469B
:10244000FFF712FE07B0F0BD002400402C10024040
:1024500038F2000000040050F0B581B00446006876
:102460000821C160816804220092114381602646E0
:102470003436FFF7B1FE05462A4F20688068000712
:1024800008D4FFF7A9FE401BB842F6D30098A0631A
:10249000032002E00120707000200021317001B0A3
:1024A000F0BDC046F0B585B006463520305C3546F7
:1024B0003435012802D0687802280AD102A80EC05B
:1024C0006878012821D12878012805D1022005B09B
:1024D000F0BD012005B0F0BD022001906870012020
:1024E0002870FFF779FE0446E24F306880684007A5
:1024F0000BD5FFF771FE001BB842F6D30020287001
:102500000198B063032005B0F0BD029880003168E7
:1025100008184169039A1140049A1143416100204F
:1025200005B0F0BDE9030000E24801680122114353
:102530000160110742680A4342607047341002404C
:1025400080B501F0CFF980BD80B500F0E3FE80BD1D
:10255000F0B581B00121C9050090002816D00026F1
:1025600037460C46354606E04519761C00988642EB
:1025700017460C460CD200F079F8A042014600DB69
:102580002146B8420246EFDC3A46EDE700252A46EE
:10259000681A801A0099891E01F066FA01B0F0BD30
:1025A00070B5FFF7D5FF04462F4EB068201AFEF72E
:1025B00037FA0546F068FEF733FA01462846FEF77B
:1025C00035F970603068844204DC001940420749E4
:1025D000884209DC307C022804D1012000023082CC
:1025E000346070BD401C3074346070BD2F750000C5
:1025F000F0B587B0002606960596049603960296D7
:10260000019600F0E5FA002801D100F0B7FA00F0D9
:1026100047FA059604960396012702972020019019
:102620000520040701AD2046294600F0E5F905978D
:102630000296402001902046294600F0DDF900F086
:1026400051FA322000F064FD00F02AFA00F00EF892
:102650000A2000F003F807B0F0BD000080B5FFF7D6
:1026600077FF0149886080BD00000020B0B500F010
:1026700001FA0128FBD000252C4600F033FA00F0C7
:10268000F9F9411E884161000C1800F009FA681C34
:10269000172D0546F1D3012500F024FA00F000FAC9
:1026A0006D1EF9D00120C00544402046B0BDFEE7B4
:1026B00080B56348FFF7D0FD80BDC046F0B581B05E
:1026C00004460027394601F01DFB05462046FEF76B
:1026D00083F80E46002D054607D13B4A3B4B284662
:1026E000314601F0DFFA002864D100212046009134
:1026F00001F0F0FA0127002807D1354A354B28466A
:10270000314601F0B9FA002854D12F4A2F4B284600
:10271000314601F0C7FA002807D12F4A2F4B28462F
:10272000314601F0BFFA002844D12D4A2D4B2846EE
:10273000314601F0C4FA0227002807D1244A254B6C
:102740002846314601F0BBFA002833D1224A234BF8
:102750002846314601F0A6FA002807D1224A234B29
:102760002846314601F09EFA002823D12049204610
:1027700001F0C8FA002809D1194A1A4B28463146F7
:1027800001F09DFA002801D0032713E0164A174BE9
:102790002846314601F07BFA0099CD43002801D14B
:1027A0002F4600E003271349204601F09EFA002837
:1027B00000D12F4679B2204600F08AFE2048FFF76C
:1027C0004BFE01B0F0BDC046736891ED7CFF234025
:1027D0003D0AD7A370FD33C08FC2F5285CFF584077
:1027E000CDCCCCCCCCFC68C033333333333F8F40BB
:1027F00000E0F9C4003C1C46F0B581B0104800214F
:102800005024022240230C250E4E0327BF030462EE
:1028100041628162C762016301242705E405066005
:1028200044608760C560036142618161C161FFF7F7
:102830004FFD002801D0FFF713FC01B0F0BDC046EA
:10284000E40200200024004070B50446FFF7C4FCF9
:102850000546084E20688068800608D4FFF7BCFC57
:10286000401BB042F6D30120A063032070BD0020BE
:1028700070BDC046E903000081B001208004054915
:102880000A6802430A60096801400091009801B09B
:102890007047C0463810024081B0012080030549CE
:1028A0000A6802430A60096801400091009801B07B
:1028B0007047C0463410024001204003464908607A
:1028C0007047C0460E490A6882430A607047C04696
:1028D0000F490A6882430A607047C04610490A6877
:1028E00082430A607047C04611490A6882430A6001
:1028F0007047C04602490A6802430A607047C046F2
:102900000404014002490A6802430A607047C04655
:102910000C04014002490A6802430A607047C0463D
:102920000004014002490A6802430A607047C04639
:1029300008040140B0B504460068217900290ED092
:10294000002814D06179022914D0012915D000295A
:102950001AD1FFF7B7FF2068FFF7DCFF12E0FFF79F
:10296000BDFF2068FFF7AEFF00252846B0BD00255B
:102970002846B0BDFFF7CEFF01E0FFF7AFFF2068AC
:10298000FFF7B8FF002500E00125A07903280ED845
:10299000784400794000874401020D11E5E7206882
:1029A000FFF796FF2068FFF7BDFF2846B0BD012561
:1029B0002846B0BD2068FFF797FF02E02068FFF7C8
:1029C000B1FF2068FFF79EFF2846B0BD02480068AF
:1029D0008004C00F7047C0461404014005480168D8
:1029E000012008407047C0460248016801220A439E
:1029F0000260704700200240F0B581B005460868CB
:102A0000002833D00C4600270EE062692846314684
:102A100000F056F862682846314600F069F87F1CDD
:102A200020680146F94021D00126BE400640F6D07C
:102A30006068401E012809D8A2682846314600F087
:102A400087F8E2682168284600F066F8226928467F
:102A5000314600F067F860680228DBD1FF2ED4D839
:102A600062692846314600F021F8D3E7002001B022
:102A7000F0BD0000024800684006C00F7047C04625
:102A800010000050024800688004C00F7047C04624
:102A900010080050014804210160704728040050CC
:102AA00001482021016070472800005049434943F4
:102AB0004A430F234B43016A994311430162704714
:102AC000090A494349434A430F234B43416A994307
:102AD00011434162704700000148042101607047C2
:102AE0001804005001482021016070471800005070
:102AF00049434A4303234B4301689943114301600F
:102B0000704700000320800602490A6882430A6079
:102B10007047C046000800504A4343688B43134344
:102B20004360704749434A4303234B43C168994379
:102B30001143C160704700000320800603490A6802
:102B40008243012080061018086070470C0800506E
:102B500049434A4303234B438168994311438160AE
:102B60007047000081B020480168022211430160D3
:102B7000006810400090009801B0704781B01A487A
:102B80000168012211430160006810400090009824
:102B900001B0704781B014480168042211430160FC
:102BA000006810400090009801B0704781B00E4856
:102BB00001680222114301600068104000900098F3
:102BC00001B07047084800688007C00F7047C046D2
:102BD00005480168012008407047C0460248006867
:102BE0004007C00F7047C0462C10024005480168DE
:102BF00001220A43026070470248016820220A430A
:102C0000026070470048004070B50E46054600F06F
:102C100037F80124002801D0204670BD28681049EB
:102C2000014070680843F168014330690843286037
:102C3000B168284600F047F87169284600F03CF872
:102C40000320800200F07AF80028E5D03268002ADC
:102C5000E2D00146284600F01DF80024204670BD51
:102C6000F3E9FFEF054800688006C00F7047C046D3
:102C7000024800684006C00F7047C0461C4800402C
:102C8000016801200840704701480068C0B27047E1
:102C900024480040B0B504460D0E50080902002338
:102CA00008185D412946FDF797FA02490140E160A5
:102CB000B0BDC046FFFF0F0003221202836893439A
:102CC0000B438360704703221203436893430B4313
:102CD00043607047014908607047C046284800407B
:102CE0000120000207490A6802430A607047C04693
:102CF0000320C00203490A6882430120C002101861
:102D0000086070470070004001208004A6490A68EE
:102D100002430A607047C046A7480168F020084097
:102D20007047C04607200102A3480068084070476A
:102D30000720C102A04800680840704780B500F035
:102D400027F80A21C841032806D002280AD0012802
:102D500012D100F077FA80BD00F0B8F8411E88412A
:102D6000C00380BD00F0A6F800280CD000F0A8F841
:102D700000280AD0434880BD00F064FA00F03EFA13
:102D800000F04AFA80BD002080BD3D4880BDC046AD
:102D90008D49096808407047874801680C20084041
:102DA0007047C046844801680C2008407047C04600
:102DB000B0B505460024032829D1032000F066F8A9
:102DC0002C49884208D02C4988420DD02B49884292
:102DD00016D100F037FA19E000F078F8411E88416A
:102DE000C4030C2D3ED114E000F064F800280ED08E
:102DF00000F066F8002837D0224C0C2D32D108E0C4
:102E000000F020FA00F0FAF900F010FA04460C2D58
:102E100028D10C2000F03AF81B4940180221C84183
:102E2000032806D002280CD0012814D100F00AFA99
:102E3000B0BD00F04BF8002801D00120C4032046AB
:102E4000B0BD00F037F800280CD000F039F80028A9
:102E50000ED00C48B0BD00F0F5F900F0CFF900F04D
:102E6000DBF904462046B0BD054C0C2DFAD1D0E765
:102E70000348B0BD0300030002000300010003008B
:102E80000024F40000093D000000F4FF4E490968E9
:102E90000140000408437047012000042D490A68DE
:102EA00002430A607047C0462A4800688003C00F8A
:102EB0007047C046274800684007C00F7047C046AB
:102EC00024480068C006C00F7047C04636480068F6
:102ED0008005C00F7047C0463348016801220A438D
:102EE00002607047304800688007C00F7047C046D6
:102EF0000720410301480068084070470410024061
:102F0000FD2000042C490A6882438D20000410181B
:102F100008607047012000060E490A6802430A60F3
:102F20007047C04603208105234800680840704769
:102F30000120010420480068084070470F208104E8
:102F40001D48006808407047024800688001C00FB3
:102F50007047C0460010024017480168F0229143B4
:102F6000016070470720000213490A6882430A6023
:102F70007047C0460720C0020F490A6882430A60B2
:102F80007047C046032080020F490A6882430A60E6
:102F90007047C0460320000403490A6882430120A9
:102FA0004004101808607047501002400248016841
:102FB00003220A43026070470C1002400248016875
:102FC00003229143016070474C100240034801689E
:102FD00020220A43D0218A43026070471400014036
:102FE000014908607047C046140000200920C00253
:102FF00004490A6882430A6048682A22904348606C
:103000007047C046043801402048016801220A4345
:103010000260704770B50E46054600F043F8012483
:10302000002801D0204670BD28681749014070680B
:103030000843F168014330690843B16901432960DD
:10304000B168284600F057F87169284600F04CF83E
:103050000E48854204D00E48854208D10C2000E07D
:103060000320FFF7A5FE0146002903D1DAE700217E
:103070000029D7D03368002BD4D0B269284600F09D
:1030800015F80024204670BDF369FFEF00380140B9
:1030900000440040024800684006C00F7047C04628
:1030A0001C380140016801200840704710B50446F3
:1030B0000120C00382420CD1480059080818194663
:1030C00000F0B0FC074901400007400F4018E060E5
:1030D00010BD58084018194600F0A4FC80B2E0600A
:1030E00010BDC046F0FF0000032212028368934324
:1030F0000B438360704703221203436893430B43DF
:1031000043607047014908607047C0462838014055
:1031100081B089490A680092401C01D30020C04355
:10312000009A002804D00A68D203D2171018FAD1E6
:1031300001B07047F0B58FB000240E940D940C943C
:103140000B940A94099408940794069405940494A3
:103150000394FFF791FBFFF729FD042002900890EC
:1031600007940694032001900590022704970125F7
:10317000A8020390CB4803AE3146FFF73DFC02980E
:10318000089007940694019805900497E80203902C
:10319000C4483146FFF730FC1D252846214600F083
:1031A000C9FB284600F094FB0E940C200D900C9463
:1031B0000B940A944B20C0010990054809A9FFF718
:1031C00023FDFFF713FDFFF717FD0FB0F0BDC0465D
:1031D0000048004010B50446007800280BD0FFF7E7
:1031E00047FD0128FBD12078FFF774FD601C617852
:1031F00000290446F3D110BD7047704710B504464E
:10320000FFF78AFD0006000F0249085CC440204613
:1032100010BDC046A83F000810B50446FFF782FD68
:10322000000A0749085CC440204610BD10B504469A
:10323000FFF77EFDC00A0249085CC440204610BD6D
:10324000B83F000810B5FFF7A7FD0221C8410328C9
:103250000ED81F4C784400794000874401110F17A5
:1032600001200404FFF744FE400B8440204610BDBB
:1032700001200404FFF73CFE400B8440204610BDB3
:10328000FFF71EFE002804D0134810BD00F004F81C
:1032900010BD104810BDC046B0B5FFF749FE00286C
:1032A00001D00B4D06E0FFF70BFE002801D00A4DC0
:1032B00000E0084DFFF742FE800C08490C5C6C43AF
:1032C000FFF730FE800D411C204600F0ABFBB0BD87
:1032D000001BB7000024F40000093D00E03F000897
:1032E00080B5FFF7BFFC00280DD0FFF7CDFC0649E5
:1032F0000A78064B9854501C0870C0B2C0081928B0
:1033000001D30020087080BDE0020020C801002029
:1033100070470000B0B5401E010E01D00120B0BDC5
:10332000054D68600024E043032100F0DBFAAC6047
:10333000072028602046B0BD10E000E07047000084
:1033400080B5FFF751FBFFF749FB0128FBD1FFF7E1
:10335000CFFCFFF7A1FDFFF7A7FD0128FBD1FFF789
:10336000BBFDFFF7BFFD0128FBD1FFF7B9FCFFF75D
:1033700011FEFFF7C9FCFFF7C3FDFFF7CBFDFFF719
:10338000E3FD0128FBD1FFF7E7FDFFF7EBFDFFF7BA
:10339000F1FDFFF70BFEFFF705FD0C28FBD10748F9
:1033A000FFF71EFE0020FEF733FF002801D0FEF7D6
:1033B00057FEFFF703FEFFF7E5FD80BD0048E8017B
:1033C000012002020E490B6813430B60CA680D4BC3
:1033D0001340CB600A680C4B13400B608A68824331
:1033E0008A6082040B6893430B60FD221204CB6851
:1033F0009343CB6000220A61C0060449086070470D
:10340000001002400C40FF88F6FFF6FE08ED00E0D9
:10341000F0B58DB000260C960B960A960996089684
:1034200007960696059604960396029601960096D0
:10343000FFF732FAFFF7BAFB0596049603960327C7
:103440000297022401944020009016486D462946B8
:10345000FFF7D2FA0596049603960297019480200E
:10346000009010482946FFF7C7FA1B240121204687
:1034700000F060FA204600F02BFA0C960B960C2018
:103480000A900996089607964B20C00106900648B8
:1034900006A9FFF7BFFDFFF7A9FDFFF7B5FD0DB0CA
:1034A000F0BDC046000400500038014010B504468D
:1034B000007800280BD0FFF7EDFD0128FBD1207824
:1034C000FFF720FE601C617800290446F3D110BD8F
:1034D000F0B58BB0032951D80446880001A10858E3
:1034E0008746C046F5340008A13500082936000893
:1034F000AD3600080120C10720468843FDF76CF96E
:1035000002460B4608ADEAA12846FCF7EDFE2878F6
:10351000002800D10CE108A8007807900026DE4FB3
:1035200011E000210A46FEF755FD3546DB490868E3
:103530003860486878606E1C08A8FDF70BF80837FB
:10354000864200D3F4E000252046294600F0C2FB65
:10355000002801D1002E0BD008A8805D2E28E0D1D4
:10356000751C08A8405D01210022FEF733FDDDE750
:10357000012207982946FEF72DFDD7E70024C64D06
:10358000CDA6C64F305D00210A46FEF723FD386800
:103590002860786868600835641C042CF2D1C7E0A4
:1035A0000120C10720468843FDF716F902460B4665
:1035B00008ADBDA12846FCF797FE2878002800D169
:1035C000B6E008A8007807900026B34F11E000216C
:1035D0000A46FEF7FFFC3546B0490868386048687F
:1035E00078606E1C08A8FCF7B5FF0837864200D348
:1035F0009EE000252046294600F06CFB002801D102
:10360000002E0BD008A8805D2E28E0D1751C08A8DC
:10361000405D01210022FEF7DDFCDDE70122079875
:103620002946FEF7D7FCD7E70120C107204688438B
:10363000FDF7D2F802460B4608AD99A12846FCF7E3
:1036400053FE2878002873D008A800780790002639
:10365000914F10E000210A46FEF7BCFC35468F4929
:1036600008683860486878606E1C08A8FCF772FF2C
:10367000083786425CD200252046294600F02AFB06
:10368000002801D1002E0BD008A8805D2E28E1D1A2
:10369000751C08A8405D01210022FEF79BFCDEE7B7
:1036A000012207982946FEF795FCD8E70120C107BB
:1036B00020468843FDF790F802460B4608AD74A1FA
:1036C0002846FCF711FE2878002831D008A8007899
:1036D00007900026704F10E000210A46FEF77AFCA2
:1036E00035466E4908683860486878606E1C08A8DE
:1036F000FCF730FF083786421AD2002520462946BB
:1037000000F0E8FA002801D1002E0BD008A8805D57
:103710002E28E1D1751C08A8405D01210022FEF78A
:1037200059FCDEE7012207982946FEF753FCD8E74B
:103730000120C403584E7168090321400294830399
:1037400005933268D2021A4051184503F26892027A
:103750002A400195891803030493B26852021A4063
:1037600089184704726992033A40009789183269B0
:103770001201802303931A40891803020793F26908
:1037800052011A40891842020692B069830113401F
:103790000B434B4806214B4AFEF784FE70684003FA
:1037A000204031680903059C21400818F168C902CE
:1037B00029404018B1688902049D29404018716968
:1037C000C9033940401831694901039F3940401805
:1037D000F1698901079A11404018B169CB01069936
:1037E0000B40034304213648364AFEF75BFE7068FF
:1037F0008003029908403168490321400818F168A4
:103800000903019A11404018B168C90229404018C3
:1038100071690904009A11404018316989013940E1
:103820004018F169C901079A11404018B1690B02AB
:1038300006990B4003430221214C2046214D2A4684
:10384000FEF730FE7068C00380B23168C907490CCA
:103850000818F168C907890C4018B168C907C90C74
:1038600040187169C907890B40183169C901C9B28B
:103870004018F169C907C90D0143B069C007830D3C
:103880000B43002120462A46FEF70CFE0BB0F0BD8C
:1038900025342E3066000000A8010020A001002081
:1038A00025352E316600000025352E3266000000D9
:1038B00025352E336600000020457272000000009E
:1038C000E40200207F0CFDFF054880210160704765
:1038D0001F21014001208840014908607047C0460F
:1038E00000E100E0002805D40322034693431A4A6E
:1038F0009A1806E00F220240083A03239A43074B26
:10390000D2188007C00E8901C9B28140FF238340CD
:1039100010689843084310607047C0461CED00E0F3
:10392000FF20000602490A6882430A607047C046C9
:1039300004E400E010B5C0B28207D20EFF2393402A
:10394000054C00190324A04304689C438901C9B2B3
:1039500091402143016010BD00E400E08AB0FEF711
:1039600041FCFFF7EDFCFFF753FD24A0FFF79EFDA0
:10397000FEF742FFFEF79CFEFEF73AFE21A0FFF79E
:1039800095FDFFF7D7FBFEF749F92049087000289D
:1039900001D0FEF715F8FEF715F9FEF7E9FA0A204F
:1039A000FEF75CFE1A4D1BA41D4F0A20FEF7F8FD22
:1039B0006868FCF711FF02460B466E46304621460A
:1039C000FCF792FC3046FFF771FD6868FEF776FE63
:1039D0000E480078697C002909D0002807D0002013
:1039E00068740E48FEF73CFA3878401C3870387816
:1039F0000328DAD3FEF776FAD7E7C046757361720B
:103A00007431000068783731310000009D010020DA
:103A1000000000202531302E33660000A450A4445D
:103A20002403002043088B421AD3002203098B424F
:103A300079D3030A8B425ED3030B8B4242D3030C30
:103A40008B4227D30902FF2212BA030C8B4202D306
:103A50001212090203D0030B8B4233D31AE0D3E0D6
:103A6000411A8041401C704703460B4371D4430800
:103A70008B42F5D3002203098B4254D3030A8B42B5
:103A800039D3030B8B421DD3030C8B4202D39446D4
:103A90006EE0090AC30B8B4201D3CB03C01A52411B
:103AA000830B8B4201D38B03C01A5241430B8B42D1
:103AB00001D34B03C01A5241030B8B4201D30B03BA
:103AC000C01A5241C30A8B4201D3CB02C01A5241E1
:103AD000830A8B4201D38B02C01A5241430A8B42A4
:103AE00001D34B02C01A5241030A8B4201D30B028D
:103AF000C01A5241CDD2C3098B4201D3CB01C01AA7
:103B0000524183098B4201D38B01C01A52414309B0
:103B10008B4201D34B01C01A524103098B4201D39E
:103B20000B01C01A5241C3088B4201D3CB00C01A0B
:103B3000524183088B4201D38B00C01A5241430883
:103B40008B4201D34B00C01A5241411A524110001E
:103B50007047CA0F00D04942031000D3404253407F
:103B600000229C4603098B422DD3030A8B4212D3B9
:103B70008901FC2212BA030A8B420CD389019211EB
:103B80008B4208D3890192118B4204D3890137D02B
:103B9000921100E08909C3098B4201D3CB01C01AFD
:103BA000524183098B4201D38B01C01A5241430910
:103BB0008B4201D34B01C01A524103098B4201D3FE
:103BC0000B01C01A5241C3088B4201D3CB00C01A6B
:103BD000524183088B4201D38B00C01A5241D9D283
:103BE00043088B4201D34B00C01A5241411A00D204
:103BF00001465241104663465B1000D34042704775
:103C000063465B1000D3404201B50021004201D061
:103C1000C9430846C046C04602BDF8B5040C8BB285
:103C2000264682B25E43104658430D0C370C3604CC
:103C300000218019164679416E43370C36048019ED
:103C4000264679416E438919F8BD00004900CA0231
:103C50000243100000D004204A0D01D0012210437D
:103C6000044A490D914201D102210843012800D1A3
:103C700005207047FF07000010B500F06BF8EFF368
:103C80000080800001D5012010BD002010BD10B5BE
:103C900000F060F8EFF300804000800F012800D0B2
:103CA000002010BD10B500F087F8EFF30080400051
:103CB000800F012801D0012010BD002010BD10B5DB
:103CC00000F07AF8EFF30080800001D4012010BDED
:103CD000002010BD10B500F0A1F8EFF300808000C7
:103CE00001D5012010BD002010BD10B500F0C0F8B6
:103CF000EFF300804000800F012801D0012010BDAB
:103D0000002010BD10B500F0B3F8EFF30080800084
:103D100001D4012010BD002010BD30380A2801D286
:103D2000012070470020704710B500290AD008789C
:103D3000002807D005487844FDF788FD002801D009
:103D4000002010BD0248784410BD00008E03000022
:103D50008603000070B501252D050C001C4310D40E
:103D6000EC4206D4AC420AD4994200D070BD9042D5
:103D700070BDE94217D4EB4215D4994270BD894217
:103D800070BDEC4206D5AC42F9D58B4200D070BD77
:103D9000824270BD6D004C00EC4204D25C00EC42EB
:103DA00001D28B4270BD034C30B4FDF7A1FC30BC96
:103DB00070BD00BF1900130470B501252D050C005E
:103DC0001C4310D4EC4206D4AC420AD4994200D031
:103DD00070BD904270BDE94217D4EB4215D49942B0
:103DE00070BD894270BDEC4206D5AC42F9D58B421C
:103DF00000D070BD824270BD6D004C00EC4204D218
:103E00005C00EC4201D28B4270BD034C30B4FDF734
:103E10006FFC30BC70BD00BF190016040123DB0528
:103E200002000A430DD4DA4203D49A4207D48842EE
:103E30007047D84214D4D94212D488427047804285
:103E40007047DA4203D59A42F9D5814270475B0048
:103E50004200DA4204D24A00DA4201D2814270477B
:103E600010B5024AFDF794FC10BD00BF0900130411
:103E70000123DB0502000A430DD4DA4203D49A423F
:103E800007D488427047D84214D4D94212D4884209
:103E9000704780427047DA4203D59A42F9D5814291
:103EA00070475B004200DA4204D24A00DA4201D293
:103EB0008142704710B5024AFDF76AFC10BD00BF91
:103EC0000900160403B402487844844603BC6047E2
:103ED000B9CDFFFF8182838485868788898B8C8D0D
:103EE0008E8F919293959697999A9C9D9FA0A2A34D
:103EF000A5A7A8AAACAEB0B2B3B5B7B9BCBEC0C294
:103F0000C5C7C9CCCED1D4D7D9DCDFE2E6E9ECF025
:103F1000F3F7FAFE02400000000000A000000000DD
:103F200005400000000000C8000000000C40000038
:103F30000000409C00000000194000000020BCBEB2
:103F40000000000034400000BFC91B8E00000004C8
:103F5000B5400000504BCFD06607E2CF0100000013
:103F60006C4100003E8251AADFEEA7340100000040
:103F7000D9420000DCB5A0E23A301F97FFFFFFFFF7
:103F8000B4450000FD25A0C8E9A3C14FFFFFFFFF16
:103F9000FF3F00000000008000000000FF3F000025
:103FA0000000008000000000000000000000000091
:103FB00001020304060708090000000001020304CF
:103FC000BE00A000DA00F800E4007C007E00A8003B
:103FD000FE00FC00EE0076001E00F2005E004E00C7
:103FE000030406080C1018203041542B4D49504C46
:103FF000444953434F5645525253503D302C25733C
:104000002C312C34342C22353630313B353630329D
:104010003B353630333B353630343B353630353B47
:10402000353730303B353730313B353735303B3540
:10403000383231220D0A0041542B43474154543F3A
:104040000D0A0041542B43494D490D0A0041542BA0
:104050004353510D0A0041540D0A00343630002BF1
:104060004D49504C4352454154453A30002B4E5037
:10407000534D523A31002B43474154543A31002BAF
:104080004D49504C4F4253455256453A002B4D49ED
:10409000504C444953434F5645523A004F4B002B26
:1040A00043535100E04000080000002020000000C1
:1040B0000401000800410008200000201009000051
:1040C000200100081C00000043000000F8FFFFFF73
:1040D0000C0000000E0000000F0000002E00000089
:1040E000000000000000000000000000A0860100A9
:1040F000000000000000200001000000040000009B
:04000005080000C12E
:00000001FF
