:020000040800F2
:10000000D00A0020FD010008D54700083739000854
:1000100000000000000000000000000000000000E0
:10002000000000000000000000000000454900083A
:100030000000000000000000D747000871490008D8
:100040000F0200080F0200080F0200080F0200084C
:100050000F0200080F0200080F02000845300008D8
:100060000F0200080F0200080F0200080F0200082C
:100070000F0200080F020008000000000F02000835
:10008000000000000F020008000000000000000057
:100090000F020008000000000F0200080F02000815
:1000A0000F0200080F0200080F0200080F020008EC
:1000B0000F020008BD4800080F0200080F020008E8
:1000C00000F002F800F08BF80CA030C808382418B3
:1000D0002D18671EA246AB4654465D46AC4201D180
:1000E00000F07DF87E460F3EB6460FCC0126334227
:1000F00000D0FB1A3343A246AB4618479C59000078
:10010000BC590000103A02D378C878C1FAD8520717
:1001100001D330C830C101D504680C6070470000BD
:100120000023002400250026103A01D378C1FBD813
:10013000520700D330C100D50B60704710B56E294F
:1001400002D100F0FFF910BD702902D100F0C9FA08
:1001500010BD662902D105F06BFB10BD692902D1E3
:1001600000F0BAF910BD642902D100F0B5F910BD54
:10017000752902D100F0B0F910BD6F2902D100F04D
:1001800053FA10BD782902D100F09EFA10BD036821
:10019000DB0901D380231943632902D101F0B2FDA9
:1001A00010BD732902D101F0B5FD10BDE32902D1C4
:1001B00001F0BFFD10BD002010BD1FB501F002FE13
:1001C00004000020002105F00DFA401C60600020B2
:1001D000002105F0F1F9E0601FBD10B510BD02F07F
:1001E00029FA1146FFF7E9FF04F0BEFF02F041FAD9
:1001F00003B4FFF7F2FF03BC02F0F6FA07488047AA
:1002000007480047FEE7FEE7FEE7FEE7FEE7FEE7FA
:1002100004480549054A064B70470000014A00089A
:10022000C1000008D0040020D00A0020D006002021
:10023000D006002070B5054610460C4618430ED077
:1002400000210846891A984127DA00210846491BEF
:10025000A04118DA2846214600F03FF870BD002C76
:1002600003DA01230022DB0707E000210846491BCF
:10027000A04102DA0022D243530810461946C04674
:10028000C0462A4627E000216842A14100F025F837
:10029000002440428C4121461AE000210846491BB7
:1002A000A0410CDA214600205242984103462846DC
:1002B00000F013F8002440428C41214670BD00201C
:1002C00052429841002103466842A14100F005F8DE
:1002D000002452429C41234670BDFEB504461046A0
:1002E0000D46184373D0A6468C460020A41A01463A
:1002F0009D4167D36646002701243D46B61A9D41BD
:1003000002D313463A462124654676462F04360C1E
:100310003E432D0CB61A9D4104D3150C1B042B43F0
:1003200012041034654676462F06360A3E432D0ADF
:10033000B61A9D4104D3150E1B022B43120208343A
:10034000654676462F0736093E432D09B61A9D416C
:1003500004D3150F1B012B431201241D654676465D
:10036000AF07B6083E43AD08B61A9D4104D3950FBA
:100370009B002B439200A41C65467646EF07760847
:100380003E436D08B61A9D411AD392185B41641C16
:1003900016E00018764665464941B71A9D4101911D
:1003A000009009D36046B11A98418E468446009861
:1003B00001990025401C6941DD0752082A435B086A
:1003C000641EE6D57246634603B0F0BDFFE72046E3
:1003D000284307D00020C0430146C046C0462246FD
:1003E0002B46F1E700200146F7E700000FB41CB5EB
:1003F000074B06AA7B4469460090059801F05FFC14
:100400000020694601F06EFC1CBC08BC04B0184713
:10041000ED18000070B5044685690068C10601D575
:10042000302600E02026C00707D070BD6268304645
:10043000A1689047206A401C20626D1EF6D570BDF1
:1004400070B5044685690078C00707D170BD626841
:10045000A16820209047206A401C20626D1EF6D5BE
:1004600070BD09684A0501D540B27047C905FCD581
:1004700000B2704709684A0501D5C0B27047C90586
:10048000FCD580B2704770B50C460546012A05D0F0
:100490002878800600D5EA69002302E0012305E000
:1004A0005B1C934202D2E05C0028F9D1A869E618EF
:1004B000C01AA861286AC01828622846FFF7AAFF58
:1004C00004E06A682078A968641C9047B442F8D3B5
:1004D0002846FFF7B5FF70BDF7B5002575291068F0
:1004E000009914A611D0FFF7BCFF002802DA4042A1
:1004F00011A608E0009909688A0701D50FA602E055
:10050000490704D50EA6012501E0FFF7B3FF009FC0
:100510000024243704E001F039FC30313955641CE3
:100520000028F8D12B4632462146009801F05FF9A9
:10053000FEBD0000000000002D0000002B000000A8
:100540002000000011680268006A530501D5087098
:1005500009E0D30501D5088005E0130602D5C217CE
:1005600005C100E00860012070470000F7B50446AF
:10057000154686B02B487844002703C83E460090B5
:10058000019111E007986A467100415A02A801F0F2
:10059000DCFB411C07D02178890603D5E2693918B4
:1005A00091420ED83F18761C2078800602D5E0696B
:1005B000B84206DDAE42E5DB07987100405A0028DC
:1005C000E0D1A069C01BA0612046FFF723FF1548BA
:1005D00078445A3803C800900020019116E0410089
:1005E0006A460798415A02A801F0AFFB0590401CEB
:1005F0000AD0002505E0626802A8A168405D904726
:100600006D1C05988542F6D30498401CB0420490B6
:10061000E5DB206AC01920622046FFF711FF09B010
:10062000F0BD0000C652000070B5044621461068B7
:10063000FFF720FF00212546243505E04207C008CA
:10064000520F30326A54491C0028F7D12068002329
:1006500007A2050708D520252840084304D0E069F3
:10066000012304A2401EE061204601F0C0F870BDE5
:10067000000000003000000070B50D46018809053B
:1006800002D51D4C7C4402E01B4C7C440E340346D6
:100690000021243305E016071209360FA65D5E54CB
:1006A000491C002AF7D102780023120705D5702DC6
:1006B00007D0002901D002231134224601F097F817
:1006C00070BD01231034F8E770B504460D4621468D
:1006D0001068FFF7CFFE024629462046FFF7CCFF01
:1006E00070BD30B4036820241268234303600823DC
:1006F000C36130BCC0E70000C0510000F3B5044640
:10070000002081B020622046E1688847002872D02E
:10071000252802D06268A168ABE0594F00267F44CB
:100720002046E16888472028054608DB312D06D29F
:10073000781920380078002801D00643F0E7B00788
:1007400001D5042086430020E0610746A0612A2DE0
:100750000AD0284604F028FF002827D0B800001946
:10076000303D0090856119E00298BA00121902C864
:10077000916102902046E1688847012F054617D114
:10078000E06900281FDA202086431CE000980A2137
:100790008069484300994019303888612046E168F3
:1007A0008847054604F000FF0028EFD1012F0AD04A
:1007B0002E2D08D12046E1688847054620200643B3
:1007C0007F1C022FC3DBA069002803DA4042A0612E
:1007D00001200643F00701D0102086436C2D0BD07A
:1007E000682D09D04C2D3CD06A2D38D0742D38D0CE
:1007F0007A2D36D016E040E0E1682F462046884743
:10080000B842054609D16C2F29D001208002E16849
:10081000064320468847054604E06C2F1DD0FF2084
:1008200001300643002D28D028464138192803D826
:100830000120C00206432035204626602946029A40
:100840001646FFF77BFC002810D001280BD0F61DC0
:10085000F008C0000830029055E74020E1E7802012
:10086000D5E70020D3E7361D02964CE7626828469C
:10087000A1689047206A401C44E7206AFEBD000042
:100880004E51000030B505460B462A461C781078BC
:10089000521C5B1C002801D0A042F7D0002C03D0D2
:1008A000002802D06D1CEFE7284630BD30B5441C4F
:1008B00003E00178401C00290DD08107F9D10B4BD2
:1008C000DD0104C8D11A91432940FAD0001B0A0661
:1008D00003D0C01E30BD001B30BD0A0401D0801EF5
:1008E00030BD0902FCD0401E30BD000001010101F5
:1008F00001E004C0091F0429FBD28B0701D5028047
:10090000801CC90700D00270704700290BD0C307B4
:1009100002D00270401C491E022904D3830702D56D
:100920000280801C891EE3E70022EEE70022DFE759
:10093000002203098B4273D3030A8B4258D3030B63
:100940008B423CD3030C8B4221D312E003460B4372
:100950007FD4002243088B4274D303098B425FD3B8
:10096000030A8B4244D3030B8B4228D3030C8B42E4
:100970000DD30902FF2212BA030C8B4202D31212CA
:10098000090265D0030B8B4219D300E0090AC30B9F
:100990008B4201D3CB03C01A5241830B8B4201D34C
:1009A0008B03C01A5241430B8B4201D34B03C01A35
:1009B0005241030B8B4201D30B03C01A5241C30AAD
:1009C0008B4201D3CB02C01A5241830A8B4201D31E
:1009D0008B02C01A5241430A8B4201D34B02C01A08
:1009E0005241030A8B4201D30B02C01A5241CDD2AD
:1009F000C3098B4201D3CB01C01A524183098B42F8
:100A000001D38B01C01A524143098B4201D34B01E0
:100A1000C01A524103098B4201D30B01C01A524143
:100A2000C3088B4201D3CB00C01A524183088B42CA
:100A300001D38B00C01A524143088B4201D34B00B3
:100A4000C01A5241411A00D2014652411046704725
:100A50005DE0CA0F00D04942031000D3404253402A
:100A60009C46002203098B422DD3030A8B4212D3EA
:100A70008901FC2212BA030A8B420CD3890192111C
:100A80008B4208D3890192118B4204D389013AD059
:100A9000921100E08909C3098B4201D3CB01C01A2E
:100AA000524183098B4201D38B01C01A5241430941
:100AB0008B4201D34B01C01A524103098B4201D32F
:100AC0000B01C01A5241C3088B4201D3CB00C01A9C
:100AD000524183088B4201D38B00C01A5241D9D2B4
:100AE00043088B4201D34B00C01A5241411A00D235
:100AF00001465241104663465B1001D34042002B31
:100B000000D54942704763465B1000D3404201B5AF
:100B10000449002802DC491C084000E00846C046A1
:100B2000C04602BDFFFFFF7F70477047704700005F
:100B3000F0B50C46871A9C410D46861A9D4103D29A
:100B4000C01BA141D21963410D0D1F0DC94EEC1BF5
:100B5000AE435CD07F057F0D0026002F51D02D05C0
:100B6000AC46A943DD020123ED0A1B051D432023EA
:100B70001B1B24D41746E740381871412F46E74025
:100B8000CC199D402818314661410C0D27D1614494
:100B90009A4013D50023401C594152000ED1400801
:100BA000400001224B005205D34207D305204007E5
:100BB000C14201D5B04900E0B0493046F0BD6B00FC
:100BC000002A00D001229A181F23203C1B1B01D5AC
:100BD000002302E0E540281871410C0DD7D0012414
:100BE00024050919C407CD0740084908E40F284324
:100BF0006144002CD5D00024401C61419A40D0D1E2
:100C0000CDE76A05520DD9D1C90FC907D5E79C4D6B
:100C10004E00002801D0012400E0002434195F00B8
:100C2000002A01D0012600E00026BE19954FAC42F3
:100C30000CD8AE420AD8B44206D001256D05EC426C
:100C4000BCD010461946F0BD9942FCD00020394670
:100C5000F0BDF0B51FB40C460F46811A9F412546E2
:100C6000861A9D4106D20125ED076F40401ABC410E
:100C700052187B41210D1E0D8D1BAC467D4D8D43C1
:100C80007ED075056D0D7CD00D05AE46AC431B03C3
:100C90001B0B794D52429D41202366469B1B14D36A
:100CA0001746F740381800260090744160462F46DA
:100CB0000741E41900989D402818664116D47146F2
:100CC00071189A4025D5012320E093182A466A41DD
:100CD0005200002B00D0521C1E23203E9B1B002BD9
:100CE00061DD3541EE1728186641E8D500187641D8
:100CF0005B1C9A4000D3401C4B05F3181524E340BD
:100D000010D3002B52D071467118D30FC01802D3E4
:100D1000491C05B0F0BD0123DB079A42F9D1400818
:100D20004000F6E701225205B21801D1002853D045
:100D30000123CC0ADB029943891E002A08D1020C48
:100D400003D0020C0004103902E0024600202039D2
:100D50000023550B05D112020823550B01D1520176
:100D60000D23550C01D112011B1DD50C01D1920090
:100D70009B1C150D01D152005B1C2025EE1A01E0D1
:100D80002CE022E00546F54015439840CA1AE107D9
:100D900069181305C918002ABBDA03204007081890
:100DA000C10FC9070FE071466118B2E7F1074008AB
:100DB0000843711071444A000CD001235B059A422C
:100DC000A7D2C90FC9070020A3E74905490D26D1BD
:100DD000002001E00028F4D100219AE7284D6600A8
:100DE000002801D0012100E0002171185F00002AD5
:100DF00001D0012600E00026BE19224FA94210D8DA
:100E0000AE420ED8B14208D001256D05E94206D0A8
:100E10001946A802414010467BE79C4201D021467A
:100E200077E70020394674E710B50C465C4005D5DD
:100E30000124E4076340FFF70CFF10BDFFF778FEC5
:100E400010BD30B40C465C4004D50124E407634077
:100E500030BC6DE630BCFCE670B50124E4076140AF
:100E60000D465D4002D4FFF763FE70BD6340FFF79F
:100E7000F0FE70BDFF0700000000F0FF0000F07FF3
:100E80000000E0FF0000F87FF0B5F94D0C091E09E5
:100E90002C402E402F468BB0A7437DD0B543FCD0CD
:100EA000002E7AD0002CFCD00D465D40ED0F25437E
:100EB000AC1BFF25AD0464190894C502440DC9029A
:100EC0002143500DDC0204430120C00701430443C9
:100ED000D2020191200C110C00958C46010423468E
:100EE0008B430A9161460904E24D8A430991010A44
:100EF0007D4449198039097805464D4301266D180E
:100F0000F605751B6943C90C640B891C4C436418B6
:100F1000B5012C1B250C2E04B4434C434D43210C2E
:100F2000691889090591009DE90701D00121C907C8
:100F300004912C4601996708CD072F434C08059D65
:100F4000E10B4D432D0C29466646754302950D462F
:100F500045432E46029D7D1BB44100950D465D43E1
:100F600001942C0C2F040D465543AE462D0C3D43E9
:100F7000029503947546049C2D04641B049406D2C8
:100F8000029C039D641C002675410395029401ACEC
:100F900070CC009F7D1B01E03EE162E1B441090499
:100FA0000095079101940599A4086143090C0C462A
:100FB0004443650BE7040C4666467443A646640B3F
:100FC0003C43039502947446049DE4042C1B049452
:100FD00006D2029C039D641C002675410395029471
:100FE00001AC70CC009F7D1BB44101940C465C4366
:100FF0000095650FE7000C465443A646640F3C433A
:10100000039502947446049DE4002C1B049406D2BC
:10101000029C039D641C002675410395029401AC5B
:1010200070CC009F7D1BB441AE09AF06049DC90082
:10103000AD092F43049DA406AD060495079D3443D6
:1010400069180791059DE10B4D432D0C2946664615
:10105000754302950D4645432E46029D7D1BB441C6
:1010600000950D465D4301942C0C2F040D4655430D
:10107000AE462D0C3D43029503947546049C2D0409
:10108000641B049406D2029C039D641C00267541D7
:101090000395029401AC70CC009F7D1BB441019478
:1010A0008C050694079C890A611800950791019C9C
:1010B0000599A4086143090C0D464543680BEF04EC
:1010C0000D46644665436C0B3C43049FED047D1B59
:1010D000AC4602D20025641C6841009E019D371B6E
:1010E00085410846584301950C46460FC5005443B8
:1010F000600F28436546E4002C1B02D20025401CEB
:101100006E41019D3F1AB5412846BD09800628431E
:101110008446A009BF064E020699A4067618074326
:10112000079D002068410A99079019430020099BF8
:1011300000906046FF1913434041E20F64003A43B8
:10114000A4460446D71A8C41A04203D9012000903E
:1011500020463A46C70F941840416246D20F2243B8
:10116000644664000494009CBE466400D71AA446FA
:10117000044602978C417746002F01D1A04204D942
:101180006046401C8446029A2046C40FA646941826
:101190004041049A0546D20F224364466400D31AA4
:1011A0008D417146002901D1A84202D928461A462C
:1011B000641C10430122002800D016436102002065
:1011C000079B891904465C410223002C02DB491865
:1011D00013466441089DCE0A2D145D194B05670521
:1011E000E10A2C050D1908993E43C9076940002BF7
:1011F00008D0934006D30022761C5141002B01D128
:10120000760876001C4A002D43DB154241D0AA43E4
:101210003FD030460BB0F0BD06180D464D41174C7F
:101220007642AC411AD395181C465C41134A6D4274
:10123000A24113D3012252054C00D4420AD15C00D2
:10124000D4420BD04B4002D592021143E2E7490051
:101250004908DFE75940C90FC90718E000200849CD
:10126000D8E7054801420DD10342F7D0F2E700006C
:101270000000FF078D4900000000F07F0000E0FF44
:101280000000F87F114859400143C012414000203E
:10129000C0E70123089A9B069A4205DC0322520705
:1012A0008918C90FC907B5E7052252078918074AE7
:1012B0001143D2125140ADE770B515461C460246A7
:1012C0000B4628462146FFF7DFFD70BDFFFFFF7F7D
:1012D00030B50346CA02400D1043164D164C0A1590
:1012E00002D02043002A06DBAA1A002A12DDD040D1
:1012F000FF2A0BDC30BD5205520D01D140004008E1
:10130000AA1A07D4D0404042FF2A01DD002030BD98
:101310000028FCDD4A00002B01D0012000E0002065
:10132000101801225205D042F0D8C817C0436040BF
:1013300030BD00001E040000000000801F22030CCE
:1013400002D10F22000402D0030E03D004E00020DB
:10135000014670470002083A030F01D10001121F35
:10136000830F01D18000921E002801DB4000521E35
:10137000120551184205C012411810467047C10F9E
:10138000C90700D04042012292071143D6E701214C
:101390008907D3E7F0B58B4C0F09254689B0BD43CB
:1013A0007BD01D092646AE43FAD00E465E4027404C
:1013B000F60F3E43254071D024012142FBD0FF248B
:1013C000AD19A4042D1B039501252D05DB02DB0AB5
:1013D000C9022B43C90A29431E010901040F130F37
:1013E000050121431701880B820391432D098C4687
:1013F000A90B1E438A039543B30B9A0396433F09F7
:10140000BA0B9403A74302962E467E430497B64632
:101410004E19D7190C460196544305977E43371B46
:101420007646BF1B3601B646BE0B36190096764689
:10143000BC043719009C01D3641C00946400002F85
:1014400001D001263443029E049F754366467E43C5
:101450000496760034196E0034190094029C019EA3
:101460001C196643751BAE46069465464519059CD6
:1014700005956C43594375460891691A0191049E7C
:1014800001465143A41B0491611A009C0791E10697
:1014900005D061090122114302E072E06EE06109AA
:1014A000089D00272C0A2D066918049D7C412A0AF4
:1014B0002D066918019D6241AC0DAD026D185441B5
:1014C000079A910D920255196141029A6446584358
:1014D0005443069B059A5A43121A131B9A0E9B01FA
:1014E0005B187A41010B0005C3185141220A2006FE
:1014F00044195A419A4200D2491C012040028142BB
:1015000003D315230226F64302E014230326F643F1
:101510002020C51AA9401746AF40DA400A432046AA
:101520000399D8400914731819055118039A3843C0
:10153000D2075140AC4009D00122944006D300228A
:10154000401C5141002C01D1400840001E4A9342EA
:1015500012D3012203989206904207DB0520400730
:1015600009181A480143C012414004E00320400713
:101570000818C10FC907002009B0F0BD0020F1070D
:10158000FAE705180C464C4111486D42A04115D3AD
:1015900094181A465A410E48644290410ED30120D5
:1015A0004A004005824209D35A00824206D359407C
:1015B000C90F084AC90700201143DDE7002006498A
:1015C000DAE700000000FF07FE070000FFFFFF7FD3
:1015D0000000E0FF0000F07F0000F87F0121C90556
:1015E0000123411842001B06D3185B0E0AD0C1101C
:1015F0000722D206891840075242D14201D5520033
:1016000089187047090208D50146002A03D0C10F86
:10161000C9070020704710467047420202D00020E0
:1016200002497047072109050143F4E70000F87FEC
:10163000F0B5FF252D04C609C209FF2704462E4038
:101640000137CB093E4348402A402B400746002A39
:101650006BD0002B69D0AA4267D0AB4265D000287E
:1016600000DA32460125ED0529432C430902200208
:10167000090AD21A4B0C7F24E31A434C000A7C441B
:10168000E35C7D242404121914145B00A218884220
:1016900001D3521C00E0400049420C465C43241137
:1016A0005C43DB016415E318040A5C43C502200DAA
:1016B0000C4644436419250A5D432303EC0C0D4694
:1016C000654300030019EB184C42A34201D35B1899
:1016D000401CD4052018002B07D05B00C91804D388
:1016E000401C002901D1400840003F2189048A4262
:1016F00009D3002A08DC1106090F04D00321490789
:101700004018C00FC007F0BD012241001206891821
:101710007F2252069142F6D205214907C84201D5DF
:101720009010F0BDFF20C005F0BD002F00DA32465A
:101730001648AA4207D2AB4205D21902090E17D0A9
:10174000F80FC007F0BDFF2563002D06AB42F9D8A6
:101750004900A942F6D8AB4201D1A942F2D0A94230
:1017600001D1002101E061004908D0050843F0BD26
:101770001102090EFBD0FF200243D005F0BD0A463E
:101780000146104654E700007F4200000000C07F81
:101790001F22030C02D10F2200041CD0030E01D122
:1017A0000002083A030F01D10001121F830F01D17B
:1017B0008000921E002801DB4000521ED205511805
:1017C000021251181922904004D3491C002801D15B
:1017D0004908490008467047C10FC90700D0404278
:1017E000012292071143D3E701218907D0E7FFB512
:1017F00004460D4681B0243000902168880604D547
:101800001022E0699143216000E00120A84201DD3F
:10181000471B00E000270498A1697A191018081ADC
:10182000A0612078C00602D42046FEF7F3FD002612
:1018300008E003986268A168805D9047206A401CB8
:10184000761C206204988642F3DB2078C0060AD515
:101850002046FEF7DFFD06E06268A1683020904771
:10186000206A401C206238467F1E0028F4DC07E016
:1018700000986268A168405D9047206A401C206221
:1018800028466D1E0028F3DC2046FEF7D9FD20789F
:10189000000602D5022005B0F0BD0120FBE70000E4
:1018A000FFB50C461E468FB003CA089009914F0041
:1018B0007D0D00D16D1E002108460020C046032189
:1018C000099A89050840002A03DA82008018400836
:1018D0000840800D01280A9002DD0020C0430A90D4
:1018E000089807430DD0F048F049281848430714DA
:1018F000189800281DD07542291E1DDD0A98424205
:101900001BE01898012802D00020302104E00020BC
:10191000F24305E02154401CB042FBDB304600227C
:10192000189B002121540F998B600A60486013B006
:10193000F0BDBD1B6D1CDFE70A9A002900DA694281
:101940000BA800F0C5FA0BAB07CB03AB07C3089994
:10195000099800F029FB6B4607C30146D4480918D3
:10196000002D00910BDDD24903980A9A4942401894
:10197000002303A90390684600F086FD08E0039960
:101980000A9A0023081803A90390684600F026FD70
:101990006B4607C30004000C03D00020C04341087D
:1019A00000E01046189A002A03D000220092154643
:1019B0001EE0751E05D400F009FA303262556D1E26
:1019C000F9D501220843079602D000227F1C04E0CB
:1019D0002078302801D100227F1E002A069787D068
:1019E0001EE0112D07DA00F0F1F9303262556D1C5E
:1019F00002460A43F5D1084303D00098002819D0C5
:101A00000EE00021681E05E0235C625C63542254F2
:101A1000401E491C8142F7DBA81B401E079506901B
:101A2000079A18990020A0540F98079B069A816086
:101A30000CC07CE711260020189059E7D21DF0B5A4
:101A40000D460446D10893B0C90003C90C900D910E
:101A500003F04EFD02460D98C00F01D02D2007E087
:101A60002068810701D52B2002E04007C00F40010C
:101A7000032A0F9001D0072A05DB0346294620469A
:101A800000F0E2F90EE12078800601D5E76900E078
:101A900006272846652D04D0662814D0672D69D105
:101AA0002DE00020112F009001DB112300E07B1CB2
:101AB0000CAA03A910A8FFF7F3FE119900261098AD
:101AC0007D1C0E9142E001203B460CAAC0070B9002
:101AD0000120009003A910A8FFF7E2FE119D1298C3
:101AE0001099002600280E9501D1781C0D18781B3E
:101AF00002D446427D1C761EE81B00903AE0012F7E
:101B000000DA01270020112F009001DD112300E0F1
:101B10003B460CAA03A910A8FFF7C2FE11993D4647
:101B2000109800260E91217809070BD40E99A9422E
:101B300000DA0D4603A9012D04DD4A19203AD27FAF
:101B4000302A06D0B84201DA011D04DA01210091E1
:101B50000FE06D1EEFE7002802DC86192D1A03E066
:101B6000411CA94200DD0D46801B401C0090012055
:101B7000C0070B902078000705D40098A84202DB2C
:101B80000020C043009069460020C8720B980121D4
:101B900002AF0337C907884225D0022010902B20BE
:101BA00011900B9800280BDA40420B902D201190D9
:101BB00006E00B9800F0EAF830317F1E0B90397088
:101BC0001099481E00291090F3DC0B980028F0D1E2
:101BD00011987F1E38702088000501D5452000E04F
:101BE00065207F1E387001A8C01BC01D0B900F9888
:101BF000002800D0012041190098C01709180B983F
:101C00000818A169081A401EA0612078C00602D4F5
:101C10002046FEF7FFFB0F98002805D06268A168F8
:101C20009047206A401C20622078C00625D52046B7
:101C3000FEF7F0FB21E0002E07DB0E98B04204DD3A
:101C400003A86268805DA16802E06268A168302034
:101C50009047206A761C401C20620098401E002895
:101C600000900AD100F0AEF8C06862680168405C7C
:101C7000A1689047206A401C206228466D1E0028FB
:101C8000D9DC07E062683878A1687F1C9047206A39
:101C9000401C20620B99481E00290B90F2DC204664
:101CA000FEF7CEFB032042E601FCFFFF104D0000D3
:101CB000E1DFFFFF01694A1C02610878704700B547
:101CC0008FB0029100210591054901937944039158
:101CD000114604906846FEF711FD0FB000BD0000EC
:101CE000E5FFFFFF0A681070521C0A60704710B5CC
:101CF0004369002B02D0C046C04601E0FEF7C3FB9B
:101D0000012010BD1278014624310A7000224A7069
:101D10000122ECE711680022D243E8E710B54369DD
:101D2000002B02D0C046C04601E0FEF71FFC012098
:101D300010BD12880146243182840022C28401220F
:101D4000ECE711680022D243E8E7F8B516460C46E6
:101D5000054600F02FF80368FF200230C05C012820
:101D600007D0FF2C0FD8185D00280CD001202C7054
:101D7000F8BDFF333246214608331868C718284695
:101D80000023B847F8BD0020C043F8BD01468008D5
:101D9000081A02091018020A1018020C1018C008BC
:101DA000820012185200891A01E0401C0A390A29DF
:101DB000FBD2704710B500F005F8001D10BD00BF44
:101DC0002538000000487047480000200B4670B5D9
:101DD000024689078008084319469D08141AA9413C
:101DE00025090807054308092C194841250A010659
:101DF0000D43010A2C194141200C0D0428430D0C00
:101E000000194D41002140194D41C00869070843A0
:101E1000E908840F8D002543840024184D412419BE
:101E20006D41121BAB4107E00925ED432C115219FE
:101E300063410024401C61411C460A250026551BB5
:101E4000B441F1D270BD0000F8B51F46044601232D
:101E50000068DB02032601461840072A05DB00283C
:101E600001D017A506E017A504E0002801D016A5AB
:101E700000E016A5102081432160A069C01E002F3C
:101E8000A06101D0401EA0612046FEF7C3FA002FDA
:101E900009D038466268A1689047206A401C2062D9
:101EA000C01C206206E0206AFAE762682878A16810
:101EB0006D1C9047761EF8D22046FEF7C1FAF8BD99
:101EC0004E414E006E616E00494E4600696E6600DE
:101ED000F7B516468AB0334878446C4603467C33DF
:101EE000C06F5A689B680DC42E487844763003ACA6
:101EF0000DC80DC43720C001081837211B30FEF76C
:101F000025FD05460C46803D1B3C02D56442012060
:101F100000E000200027099010E0E0070CD00C2022
:101F200020497843794432464C39411868460123A8
:101F300000F054FA6B4607C364107F1C002CECD1F0
:101F4000184F7F442E3F16E0E80712D02001C01939
:101F50000EC80691089307920068F04201D19819C3
:101F600008903246012306A903A800F037FA03AB14
:101F700007C36D10641C002DE6D10998002806D017
:101F800032466946012303A800F07EFA05E00123EA
:101F90003246694603A800F021FA0A9B07C30DB038
:101FA000F0BD0000683A0000034640000A4610B544
:101FB000400D0BD00121C9070F24A40200191C03F6
:101FC00064082143540D2143D20207E0002101207F
:101FD000F2E7D40F490021435200401E0029F8DAED
:101FE000DB0FDB07184310BDFFB50D46144685B067
:101FF0004868516803F063FA00910190A868A168ED
:1020000003F05DFA02910390A868616803F057FA43
:10201000029A12188242029201D2012000E00020AE
:10202000019A0B18D2180028019202D08A4202D9D4
:1020300003E08A4201D2012000E000200099081844
:1020400000906868A16803F03AFA029A1218824276
:10205000029201D2012000E00020019A0B18D21850
:102060000028019202D08A4202D903E08A4201D2BA
:10207000012000E0002000990818009028682168DD
:1020800040004900400849084018FA49471814E040
:1020900001994000C90F084300900198029940003F
:1020A000C90F08430190029803994000C90F0843E3
:1020B0000290039840007F1E039000980028E7DA02
:1020C0000898002801D0EC4E00E00026B74201DA63
:1020D000012000E00020002804902AD0F71BF80619
:1020E000C00E15D0029B2021091A039A8B401A4377
:1020F0000392029A019BC2408B401A430292019ABA
:10210000009BC2408B4000991A430192C14000914C
:102110007B110DD06F460320C11A03D50021820028
:10212000B95003E08A008100BA587A50401EF3D5B6
:10213000374603980299002800D0012001430898EF
:102140000291002808460CD0002800D001200199F7
:10215000019A490508430121D20AC902D20201921B
:1021600000E001210E9B0122D207012B02D0002B9F
:1021700003D013E0002807D120E0904204D8904219
:102180000CD1019B0B4209D0019B5918019105D13B
:102190000099491C009101D17F1C009200280DD0AC
:1021A000102108460020C0460498002806D00F9849
:1021B000002803D0082108460020C046286821686E
:1021C000019B009A4840C10F0598C90739430EC0CA
:1021D00009B0F0BDFFB587B0099A0898089953680F
:1021E0009268406889689646002203931746944691
:1021F000089A12685300099A5B0812685200520844
:102200009A1A9E4BD4180A9A002A01D0352200E06F
:10221000402206920022012315460492DB07059313
:1022200024E0002D05D175460346039E4D1BB341A6
:1022300009D375466646039B491B049D9841059B3F
:102240007519AC465F4163463B4308D0059B049E2D
:10225000DD0776082E435B080496059301E0521EC5
:10226000641EC50FED0749184041521C069B9A4257
:10227000D7DB002D04D17546039A6B1A824101D237
:1022800003200CE0039A0B466B404240134303D0FB
:10229000014303D0012002E0022000E0002061465B
:1022A00001910021009702910A99002905D0614609
:1022B00040020143704B019102E08007002302902D
:1022C0009C4201DA012000E0002007003AD01A1BEE
:1022D000D006C00E15D0029D2021019C091AC540D0
:1022E0008C402543029C8C4000D001242543019C56
:1022F0000295009DC4408D4000992C430194C1403B
:10230000009154111DD06D460221002202290CD1EA
:102310000320001B07E0002804DB8600AE59002ED6
:1023200000D00122401C0328F5DB081B02D58800E1
:102330002A5004E08000285810438A00A850491E03
:10234000E3D51C460A98002802980CD0002800D03B
:1023500001200199019A490508430121D20AC902C5
:10236000D202019200E00121109B0122D207012B31
:1023700002D0002B03D013E0002807D11FE09042C9
:1023800004D890420CD1019B0B4209D0019B5918F3
:10239000019105D10099491C009101D1641C009262
:1023A00000280CD0102108460020C046002F06D07F
:1023B0001198002803D0082108460020C04608983C
:1023C0000999019A009B006809684840C10F079865
:1023D000C907214382600AC00BB0F0BD00B585B0CB
:1023E000019300920A460146002302A8FFF7FCFD74
:1023F00002A807C805B000BDFFB50A461F4685B054
:102400000799019301230091014602A8FFF7ECFD13
:1024100002990398049ECA0F4900D20700920F2226
:10242000490892028C1A0021002800DB0C46450066
:1024300013486D08844214D3079A002A04DA441E14
:102440000026104DF64302E004460D460E461021CC
:1024500008460020C046002F03D004210846002073
:10246000C0462005E90A0843009908436905F20AB5
:102470001143ADE602C0FFFF013C0000FF3F00003A
:10248000FF070000FFFFFF7F00B585B001930092BA
:102490000A460146002302A8FFF79CFE02A807C8CF
:1024A000A8E7FFB50A461F4685B0079901930123A7
:1024B0000091014602A8FFF78DFE02990398049E41
:1024C000CA0F4900D20700920F22490892028C1AC3
:1024D0000021002800DB0C46450011486D088442AD
:1024E00014D3079A002A04DA441E00260D4DF64341
:1024F00002E004460D460E46102108460020C04664
:10250000002F03D0042108460020C0462005E90A18
:102510000843009908436905F20A114358E6000090
:10252000FF070000FFFFFF7FF8B5264C4E00069D19
:10253000A6420AD8A64201D1002806D15E00A642D2
:1025400003D8A6420AD1002A08D00D24240425422B
:1025500033D02946002000F0EDF8F8BD0C461C43AE
:1025600011D4994207D0C81A02D3EFF30080F8BD06
:10257000EFF30080F8BD801A02D3EFF30080F8BDBE
:10258000EFF30080F8BD09242407E5008B4207D053
:10259000581A02D3EFF3008006E0EFF3008007E063
:1025A000101A03D3EFF30080A04303E0EFF30080A1
:1025B000A043284380F30088F8BD009500F0D2F8CE
:1025C000F8BD00000000E0FF10B5FF231B0644002B
:1025D0009C421DD84C009C421AD80346124A0B4319
:1025E00007D4401A02D3EFF3008010BDEFF3008050
:1025F00010BD081A03D3EFF30080904305E0EFF31A
:10260000008001219043C907084380F3008810BD72
:102610000D231B041A4204D01146002000F08AF852
:1026200010BD00F0A9F810BD0000009000487047F0
:10263000280000207546FFF7F9FFAE460500694601
:102640005346C008C000854618B020B5FDF7E0FD30
:1026500060BCB64600260027C0C5C0C5C0C5C0C501
:10266000C0C5C0C5C0C5C0C5403D490849008D466C
:10267000704710B50446C046C0462046FDF7B8FD79
:1026800010BD000082078B079A423FD170B5920FB0
:102690000AD0032402780B78401C491C002A33D04E
:1026A0009A4231D12042F5D1214EF40104C808C923
:1026B000951B9543254018D19A420FD104C808C9EB
:1026C000951B9543254010D19A4207D104C808C9EB
:1026D000951B9543254008D19A42E7D012BA1BBA00
:1026E00001209A4200D2404270BD12BA1BBA2DBAE4
:1026F00018241000E0401900E140401A05D12E00D6
:10270000E64002D1083CF4D1D01A70BD02780B78B3
:10271000401C491C002A09D09A4207D102780B7844
:10272000401C491C002A01D09A42EFD0D01A7047B1
:1027300001010101C80212D54803400F002804D04E
:10274000C803C043012188407047EFF300800001B7
:10275000000903210907084380F30088704700201F
:102760007047000010B500200249029A00F00CF8F2
:1027700010BD00000000F87F10B5024800F004F81A
:1027800010BD00000000C07F10B50C461107090FF6
:10279000092904D00A290AD008290CD104E01146DD
:1027A0000820FFF7C7FF06E0510606D501E05106F5
:1027B00001D50120C007214610BDD10607D5010172
:1027C0000909CC084907000E0006044309E0410F3F
:1027D00020024907000A0143200E00061D22D141B4
:1027E00001430846E7E7000001491820ABBEFEE7B9
:1027F000260002007047000080B582B000200190E2
:1028000001F0C4F9002821D101F07AF910480068DC
:10281000104902F059FD01900198002802D001985A
:10282000401EF8E701F01AFA01F0A2F90028FBD1E6
:10283000042001900198002802D00198401EF8E77A
:1028400001F056F901F086F90028FBD002B080BDF6
:1028500018000020400D030070B58AB000250995CE
:10286000089507950695059504950395029501959C
:1028700001F050FA01F0B4F901F0D4F90995089586
:10288000079501263004069005950E4C05A92046B3
:1028900001F082F901F0DAF901F0D0F901F0AAF9BA
:1028A00001F0B8F901F010F901F014F9049503955D
:1028B0000295F007019001A9204601F02DF90AB018
:1028C00070BDC0460024014080B501F05FF90028CA
:1028D0000DD001F0F1F801F04FF90028FBD101F023
:1028E00001F901F0DDF801F0DFF801F0E1F880BD59
:1028F000F0B581B054A001F05BFF4B20840020466E
:1029000001F0E4FE54485549FDF7BCFF544F3860D0
:10291000002808D1504D514E28463146FDF7B2FFF0
:1029200038600028F8D000F031FB4EA001F040FFE5
:10293000204601F0CBFE48485349FDF7A3FF38601D
:10294000002808D1444D504E28463146FDF79AFFE5
:1029500038600028F8D000F019FB4CA001F028FFE7
:10296000204601F0B3FE3C484E49FDF78BFF38602E
:10297000002808D1384D4B4E28463146FDF782FFDE
:1029800038600028F8D0642001F0A0FE3868007C90
:102990002C280CD039680023434A1D46D3187326CF
:1029A00098556D1CEBB25818007C2C28F6D100F01D
:1029B000EDFA29483D49FDF765FF3860002808D148
:1029C000254D3A4E28463146FDF75CFF3860002819
:1029D000F8D0642001F07AFE3868407C2C280CD0B6
:1029E00039680023304A1D46D3187D2698556D1C42
:1029F000EBB25818407C2C28F6D100F0C7FA7D20A5
:102A0000C00001F063FE284A7D32294D29A12846E5
:102A1000FDF7ECFC284601F0CBFE204601F056FE07
:102A20000D481949FDF72EFF3860002808D10A4CDF
:102A3000154D20462946FDF725FF38600028F8D0BF
:102A400000F0A4FA01B0F0BD41542B4D49504C4365
:102A500052454154450D0A00400300204A5A0008DF
:102A6000C404002041542B4D49504C4144444F4232
:102A70004A3D302C333332322C312C2231222C3946
:102A80002C300D0A00000000905A000841542B4DD4
:102A900049504C4F50454E3D302C3630302C36305E
:102AA0000D0A0000735A000888000020815A0008AF
:102AB0000804002041542B4D49504C444953434F86
:102AC0005645525253503D302C25732C312C392C05
:102AD00022353730313B35383231220D0A000000C3
:102AE00080B500F053FA06A001F062FE642001F008
:102AF000EDFDF0488078E949487000F047FA80BD64
:102B000041542B4E534F43523D444752414D2C317B
:102B1000372C333030352C310D0A000010B508A0A9
:102B200001F046FE3224204601F0D0FD0DA001F058
:102B30003FFE204601F0CAFDFFF7D2FF10BDC046A0
:102B400041542B4350534D533D312C2C2C303130BC
:102B500030303131312C30303030303030310D0ABE
:102B60000000000041542B4E50534D523D310D0A90
:102B700000000000F0B589B001F088FA002801D10A
:102B800001F054FA0021089102200790069101916A
:102B90000591012000900490042003906B4803A944
:102BA00001F07AF901F0C6F9694801F001FE4B2005
:102BB0008400204601F08AFD66486749FDF762FE01
:102BC000664D286000F0E2F92868002810D1614EB7
:102BD000614F00F0DBF95E4801F0EAFD204601F0AC
:102BE00075FD30463946FDF74DFE28600028F0D0CF
:102BF0005BA001F0DDFD204601F068FD5B4801F0BF
:102C0000D7FD204601F062FD52485949FDF73AFED2
:102C1000286000F0BBF92868002810D14D4E544FB1
:102C200000F0B4F9514801F0C3FD204601F04EFD1B
:102C300030463946FDF726FE28600028F0D000F027
:102C4000A5F94CA001F0B4FD204601F03FFD414E36
:102C500041493046FDF716FE286000F097F94948D3
:102C600001F0A6FD204601F031FD47493046FDF751
:102C700009FE286000F08AF92868002810D1354E36
:102C8000414F00F083F93F4801F092FD204601F0EA
:102C90001DFD30463946FDF7F5FD28600028F0D0CF
:102CA0003A4801F085FD2E460294204601F00EFDC3
:102CB00028483749FDF7E6FD286041790A2779431E
:102CC000807940181038334D28703246019E15E047
:102CD000144600F05BF92D4801F06AFD029801F0FE
:102CE000F5FC1C482A49FDF7CDFD224620604179BC
:102CF00079438079401810382870761C287863282A
:102D0000E6D0F0B2032803D8116849793029DFD022
:102D1000032803D872200099295410E07220002162
:102D200029541DA001F07AFF01F02AF9C824204699
:102D300001F0CCFC01F0FEF8204601F0C7FC00F0E9
:102D400025F97220285C09B0F0BDC046000400508F
:102D5000415A000840030020905A0008C404002093
:102D600041542B4346554E3D310D0A002E5A000862
:102D7000465A000841542B43474154543D310D0AF3
:102D800000000000225A00086A5A0008385A000859
:102D9000935A000888000020E4BFA1E58FB7E690B1
:102DA0009CE7B4A2E5A4B1E8B4A5EFBC8CE8AFB74A
:102DB000E69FA5E79C8BE58E9FE59BA0210D0A0071
:102DC000F0B581B00346002903D0012907D127A11E
:102DD00000E01AA1314A73323148FDF707FB304851
:102DE00001F0E6FC2FA001F019FFC82001F06EFCF5
:102DF0006D4C31492046FDF745FD0646524F38607F
:102E00002E492046FDF73EFD2D4D2860064311D189
:102E1000654C2A4E20462849FDF734FD386020468F
:102E20003146FDF72FFD286000F0B0F828683968BA
:102E30000143EFD000F0AAF801B0F0BD41542B4D92
:102E400049504C4E4F544946593D302C25732C3334
:102E50003332322C302C353730312C312C352C227A
:102E600025303564222C302C300D0A0041542B4D76
:102E700049504C4E4F544946593D302C25732C3304
:102E80003332322C302C353832312C312C342C2248
:102E900025303464222C302C300D0A0088000020AC
:102EA000080400206E6F7469667973656E740D0A8C
:102EB0000000000040030020905A0008585A000803
:102EC0005C04002070B511484278114C11A12046D5
:102ED000FDF78CFA204601F06BFC7D20000101F02B
:102EE000F5FB31481749FDF7CDFC174E306000283F
:102EF00008D12D4C134D20462946FDF7C3FC306008
:102F00000028F8D000F042F870BDC04688000020CC
:102F10000804002041542B4E534F5354463D256323
:102F20002C34372E39322E3134362E3231302C3883
:102F30003838382C30783230302C322C4142333013
:102F40000D0A0000615A0008C404002080B582B058
:102F500000200190009001F0A5F8002801D101F0B7
:102F60007DF801F0F5FA01F03BF801F01FF8684632
:102F700002218171012181804903009100F02AFF23
:102F800002F0D2F802F0A4F802B080BD10B5064CF1
:102F9000204601F043FEC8212046FDF7C5FC03484A
:102FA0000021017010BDC0464003002058040020DD
:102FB00080B500F0EBFD012807D100F0DDFD002811
:102FC00003D100F001FE002806D000F05DF800F00B
:102FD000C7FD0028FBD080BD00F014FEF7E700001D
:102FE000B0B50346303B0A2B1AD24000134BC01831
:102FF000603800884B1E59425941012A01D14022B4
:1030000010430843042300210D4ADBB20446DC4090
:103010000F2525405550091D1B1F0829F5D1B0BDAE
:10302000452805D06F2805D0722805D14220E1E758
:103030005E20DFE77220DDE70020DBE7F0590008C3
:10304000A801002080B50A2001F040FB00F06AFFD3
:1030500000280DD101F0E6F8002802D001F0C4F8F4
:1030600006E007A001F0DAFD00F088FC00F0F4FBB8
:1030700000F0FCFE002801D000F06EFE80BDC046CE
:1030800062746E0D0A000000EFF3108072B6FEE766
:10309000F0B58AB00390002967D08D48039A824228
:1030A00001D0062000E0052000900B200007039AC5
:1030B00012180A20C24101920124002215460594EB
:1030C000029122E0069A9340039E306818433060D4
:1030D0001C202840089F87400798C00880003018AF
:1030E000016AB9430162F0689843F0607068099919
:1030F00088437060B0689843B06002990846E04029
:10310000921C2D1D641C00282FD0661E0598B0400F
:1031100007460F40F2D0069209900C232B400198ED
:10312000042800D3009898400F2108919940032368
:1031300032469A4307966A4E965904910E4086424B
:10314000C0D16748121863490868B84308604868E6
:10315000B84348608868B8438860C868B843C860A6
:103160001068049988431060ACE70AB0F0BDC0460F
:10317000F0B58AB004900B68002B00D1A5E054484C
:10318000049A824201D0062000E0052000900B2026
:10319000000712180A20C241019201250026344678
:1031A000039506910BE018434A4AD0600B68184615
:1031B000E840B61C241D6D1C002800D185E0681E67
:1031C000039A099082401340F0D0089405934F6809
:1031D000122F16D80120B8404049084211D00320D0
:1031E000B04004998C6884430698C068B04020437E
:1031F0008860F806C00F099B98404C6894430443CC
:103200004C6003210791B140049BDC688C43069A13
:103210009068B0402043D86010200743C943122F64
:1032200010D11C200291089908400F24844009996C
:10323000CF08BF00DF19396AA143146984400C43E9
:1032400002993C621868084051680C46079F3C4050
:10325000B44004431C60C8001146059B089CA5D5DA
:103260001D4A10680121014311600C272740019974
:10327000042900D30099B9400F20B840099F079A4C
:103280009743174ABC5884430C43BC50114A1068FA
:1032900006994F68FC0301D5184300E0984310607D
:1032A0005068BC0301D5184300E098435060906813
:1032B000FC0201D5184300E09843089C9060D06858
:1032C000BA0200D56FE798436EE70AB0F0BDC0467A
:1032D000001C0050000401403410024006000600AB
:1032E00008000140014800687047C046C80400203B
:1032F00010B50948016840220A43026000242046B4
:1033000000F00CF8002802D00124204610BD00F087
:10331000CFF9204610BDC04600200240B0B504469B
:103320007D20C0000C49097801F0CEFF01460B4812
:10333000006801F0C9FF00F0CBF90125032C09D882
:10334000002807D10025E84321462A4600F0BCF9B1
:10335000034804602846B0BD1C000020180000206F
:1033600020000020F0B581B004463520205C2646C0
:103370003436012802D0707802281ED13078012816
:1033800002D1022001B0F0BD022000907070012037
:103390003070FFF7A7FF0546C44F206881684907D2
:1033A0000ED5FFF79FFF401BB842F6D300203070C8
:1033B0000098A063032001B0F0BD012001B0F0BD72
:1033C000143000210A468150121D402AFBD12046AC
:1033D00000F006F9002001B0F0BDC046B0B50028ED
:1033E00007D00446054634356878022803D1022008
:1033F000B0BD0120B0BD022068700120C04321682B
:103400000A6802400A604A6802404A60204600F0AA
:103410002FFB204600F086F80020A063287068701B
:10342000B0BD0000F0B583B0002870D0054604465A
:1034300034346078002804D100202070284600F041
:103440008BF80220009460702868016801220192C4
:10345000914301600146143100221346CA501B1DDE
:10346000402BFBD1816804220A43826041682C4AC8
:103470000A406968AB6811431943AA6902922F4652
:103480001C37D8CFEA6A0F4317431F4327430299DB
:103490000F4337434760284600F0EAFA286801687E
:1034A000FE2291432C460C341CCC0A431A4322437F
:1034B000296B114301600168019A114301607D206D
:1034C000C0000290FFF70EFF06462C462868806871
:1034D000C707FFF707FF0546002F0DD1A81B02996C
:1034E00088422546F1D90820A86315E0FFF7FAFEC7
:1034F000401B029988420DD820688068C006F5D527
:103500000020A0630099019A4A7003B0F0BD012029
:1035100003B0F0BD1020A063032003B0F0BDC0468F
:103520000F0000FC80B500682949884200D080BDAA
:103530000120400207490A6882430A602748264959
:10354000FFF7A6FD0520000787210902FFF7A0FD70
:1035500080BDC04638100240F0B587B00025069502
:10356000059504950395029500681949884201D094
:1035700007B0F0BD012671021648C2680A43C26056
:1035800001680227394301600168394001910199BE
:10359000016831430160006830400190069605954E
:1035A000049503970C48029001980C4802AC214600
:1035B000FFF7DEFD06960595049503978720000228
:1035C0000290052000072146FFF7D2FD07B0F0BDAD
:1035D000002400402C10024038F20000000400508B
:1035E000F0B581B0044600680821C16081680422FA
:1035F00000921143816026463436FFF773FE05467C
:103600002A4F20688068000708D4FFF76BFE401B34
:10361000B842F6D30098A063032002E00120707046
:1036200000200021317001B0F0BDC046F0B585B07A
:1036300006463520305C35463435012802D068789E
:1036400002280AD102A80EC06878012821D1287862
:10365000012805D1022005B0F0BD012005B0F0BD64
:1036600002200190687001202870FFF73BFE04469D
:103670000E4F3068806840070BD5FFF733FE001B04
:10368000B842F6D3002028700198B063032005B03B
:10369000F0BD02988000316808184169039A114012
:1036A000049A11434161002005B0F0BDE903000018
:1036B00004480168012211430160110742680A436E
:1036C000426070473410024080B501F00FFD80BDAC
:1036D00080B501F039F980BDF0B583B00146204BCB
:1036E00018880090029100291BD0002634463746E6
:1036F000019607E01A80C1173F184E41641C0298DA
:10370000844210D21D4600F0F5F82B4629888A0025
:10371000754DA850491C8AB24F2A019AEAD80A4628
:10372000E8E700273E461421009801F0CDFD000691
:1037300040156E490A1853680C583C1B35469D418C
:103740000B6AE3180B620F50486A68414862566082
:10375000086A496A50220023FCF76CFD03B0F0BDF3
:103760001003002070B5FFF7B7FF0446604D2868CE
:10377000201AC11746184E40A868201AFEF72CF8E8
:10378000E968FDF755FF4C2E0DDC7F21C90501F0DE
:10379000F3FE00280DD1287C032812D30120A87441
:1037A0000020287470BD002129612C606860297593
:1037B00070BD687C132807D30120E874002068746A
:1037C00070BD401C287470BD401C687470BDC0463C
:1037D000F0B589B0002708970797069705970497D3
:1037E000039700F059FC002801D100F02BFC0220C7
:1037F00007900697059701240494802603960520D8
:103800000007029003A9019100F046FB304600F04A
:1038100097FB079706970597049420250395029830
:10382000019E314600F038FB284600F089FB0794E2
:103830000497402003900298314600F02DFB00F0E1
:10384000A5FB322000F042FF284600F079FB00F093
:1038500051F809B0F0BD0000F0B585B00024224E4B
:103860000127039404940294019412E00E4614215B
:10387000204601F029FDC0001C490D500818466083
:10388000002002900190009E7F1C361D641C502C6D
:103890001DD000F02FF805460096306014263846FB
:1038A000314601F011FDE917039A52190392049A67
:1038B0004A410492029A52191546019A4A41114608
:1038C0007043401EA042D1D001910295DBE7074A28
:1038D000039810620499516250220023FCF7AAFC5D
:1038E0000349886005B0F0BDD00100201803002016
:1038F0000000002070B500F00DFB0128FBD0002671
:10390000344600F043FB00F005FB0546202000F0A4
:1039100017FB681E854160004419701C172E06466F
:10392000EFD300F033FB202000F00AFB0120C0059C
:103930004440204670BDFEE780B54B48FFF74EFD82
:1039400080BDC04680B51F204103474802685368C8
:103950008B431D2149035918516000F089F880BD3F
:1039600080B51F2041034048026853688B430521FE
:1039700049035918516000F07BF880BD80B53A4882
:10398000FFF7F0FC80BDC04670B50446FDF726FE8B
:1039900005460E461D4A1E4B01F0D8FD002809D1F0
:1039A0001C4A1D4B2846314601F0C3FD002801D0BA
:1039B000022523E01949204601F0EBFD002809D13A
:1039C000124A134B2846314601F0C0FD002801D0B1
:1039D000032513E00F4A104B2846314601F09EFDA7
:1039E0000021CE43002801D1354600E003250C49D3
:1039F000204601F0C1FD002800D1354669B22046BD
:103A000001F05CF91848FFF7EBFD70BDCDCCCCCCD4
:103A1000CCFC68C033333333333F8F4000E0F9C40C
:103A2000003C1C46F0B581B00F4800215023022213
:103A30000C240E4D0326B703036241628162C76204
:103A40000163B3040726B60560C00360446081606B
:103A5000C260016141610838FFF7E4FC002801D031
:103A6000FFF712FB01B0F0BD60040020002400400D
:103A700070B50446FFF736FC0546084E206880689E
:103A8000800608D4FFF72EFC401BB042F6D301207D
:103A9000A063032070BD002070BDC046E903000094
:103AA00032480121016070473048042101607047AD
:103AB0002E480821016070476C4801686C4A0A4032
:103AC000911C01607047C04605480168042291437B
:103AD0000160704702480168082291430160704705
:103AE00004240140614801680A4A0A4002607047A4
:103AF0005E4801685E4A0A40511C01607047C0463A
:103B00005A480168034A0A40012109075118016017
:103B10007047C046E8FFFF6FB0B50D46044600F0A1
:103B200031F8002801D00120B0BDE068084901400B
:103B300068680843A9680143E8680843E060032017
:103B40008007216981432868084320610020B0BDB7
:103B5000C73FFFFF05480168012008407047C04685
:103B6000024800684007C00F7047C046002401406B
:103B70003E480068C00F70473C4800688007C00F8F
:103B80007047C04681680120084070473748016887
:103B9000012008407047C04670B50D460446FFF747
:103BA000F1FF002801D0012070BDE0680549014007
:103BB0004DCD2D6808431043184330432843E0603F
:103BC000002070BD3CC2FEFF284800684007C00FBF
:103BD0007047C0460148006880B2704740240140E9
:103BE0000120400402490A6802430A607047C04647
:103BF0002824014002480168042291430160704773
:103C00000C24014019480168194A0A40111D01603D
:103C10007047C0460120400607490A6882430A608F
:103C20007047C0460720800503490A688243012087
:103C30008005101808607047082701400248016895
:103C4000012291430160704710240140024801683D
:103C500007220A43026070471424014003480168A8
:103C6000034A114089181831016070470824014047
:103C7000E8FFFF7F0120800409490A6882430A6047
:103C80007047C04681B00120800405490A6802439C
:103C90000A60096801400091009801B07047C04671
:103CA00038100240012040040E490A6802430A60AD
:103CB0007047C046012080040A490A6802430A602E
:103CC0007047C0460120400406490A6882430A60E2
:103CD0007047C0460120800402490A6882430A6096
:103CE0007047C046281002400120800310490A682E
:103CF00082430A607047C04681B0012080030C49AE
:103D00000A6802430A60096801400091009801B006
:103D10007047C04681B00120400205490A6802434D
:103D20000A60096801400091009801B07047C046E0
:103D3000341002400120800306490A6802430A60E9
:103D40007047C0460120800302490A6882430A6026
:103D50007047C046241002400120400346490860D5
:103D60007047C0460E490A6882430A607047C046E1
:103D70000F490A6882430A607047C04610490A68C2
:103D800082430A607047C04611490A6882430A604C
:103D90007047C04602490A6802430A607047C0463D
:103DA0000404014002490A6802430A607047C046A1
:103DB0000C04014002490A6802430A607047C04689
:103DC0000004014002490A6802430A607047C04685
:103DD00008040140B0B504460068217900290ED0DE
:103DE000002814D06179022914D0012915D00029A6
:103DF0001AD1FFF7B7FF2068FFF7DCFF12E0FFF7EB
:103E0000BDFF2068FFF7AEFF00252846B0BD0025A6
:103E10002846B0BDFFF7CEFF01E0FFF7AFFF2068F7
:103E2000FFF7B8FF002500E00125A07903280ED890
:103E3000784400794000874401020D11E5E72068CD
:103E4000FFF796FF2068FFF7BDFF2846B0BD0125AC
:103E50002846B0BD2068FFF797FF02E02068FFF713
:103E6000B1FF2068FFF79EFF2846B0BD02480068FA
:103E70008004C00F7047C046140401400548016823
:103E8000012008407047C0460248016801220A43E9
:103E90000260704700200240F0B581B00546086816
:103EA000002833D00C4600270EE0626928463146D0
:103EB00000F056F862682846314600F06DF87F1C25
:103EC00020680146F94021D00126BE400640F6D0C8
:103ED0006068401E012809D8A2682846314600F0D3
:103EE00089F8E2682168284600F06AF822692846C5
:103EF000314600F06BF860680228DBD1FF2ED4D881
:103F000062692846314600F021F8D3E7002001B06D
:103F1000F0BD0000024800684006C00F7047C04670
:103F200010000050024800688004C00F7047C0466F
:103F30001008005001480421016070472804005017
:103F4000014908607047C046280000504943494372
:103F50004A430F234B43016A99431143016270475F
:103F6000090A494349434A430F234B43416A994352
:103F70001143416270470000064908607047C0461F
:103F800001480421016070471804005001482021B5
:103F9000016070471800005049434A4303234B43D4
:103FA00001689943114301607047000003208006B7
:103FB00002490A6882430A607047C0460008005000
:103FC0004A4343688B4313434360704749434A4322
:103FD00003234B43C16899431143C16070470000FC
:103FE0000320800602490A6882430A607047C0467F
:103FF0000C08005049434A4303234B4381689943CB
:10400000114381607047000029490A6882430A60B1
:104010007047C04681B026490A6802430A600968B1
:1040200001400091009801B07047C04681B020481F
:10403000016802221143016000681040009000985E
:1040400001B0704781B01A48016801221143016034
:10405000006810400090009801B0704781B014488B
:10406000016804221143016000681040009000982C
:1040700001B0704781B00E4801680222114301600F
:10408000006810400090009801B070470848006830
:104090008007C00F7047C0460548016801200840EE
:1040A0007047C046024800684007C00F7047C046CE
:1040B0002C1002400248016804220A430260704743
:1040C00010ED00E080B51149884201D0012080BD8B
:1040D000FFF7F0FDFFF7FEFD002080BD0B480168F3
:1040E00001229143016070470848016820229143F2
:1040F000016070470548016801220A430260704769
:104100000248016820220A430260704700480040CC
:1041100070B50E46054600F037F80124002801D09E
:10412000204670BD28681049014070680843F16856
:104130000143306908432860B168284600F047F819
:104140007169284600F03CF80320800200F0A6F8D0
:104150000028E5D03268002AE2D00146284600F067
:104160001DF80024204670BDF3E9FFEF0548006804
:104170008006C00F7047C046024800684006C00F66
:104180007047C0461C480040016801200840704745
:1041900001480068C0B2704724480040B0B50446EA
:1041A0000D0E50080902002308185D412946FCF74E
:1041B00094F802490140E160B0BDC046FFFF0F0026
:1041C00003221202836893430B43836070470322E8
:1041D0001203436893430B434360704701490860EF
:1041E0007047C046284800401A48016804220A4324
:1041F000026070470120000216490A6802430A6003
:104200007047C0460120800212490A6802430A60D2
:104210007047C046012040020E490A6802430A6006
:104220007047C04602480168012008407047C046F8
:104230000470004007480168022291430160704702
:104240000320C00203490A6882430120C0021018FB
:10425000086070470070004001208004AD490A6882
:1042600002430A607047C0460120C004A9490A6899
:1042700002430A607047C046B0480168F020084019
:104280007047C04607200102AC48006808407047EC
:104290000720C102A94800680840704780B500F0B7
:1042A00027F80A21C841032806D002280AD001288D
:1042B00012D100F0B5FA80BD00F0BEF8411E884171
:1042C000C00380BD00F0ACF800280CD000F0AEF8C0
:1042D00000280AD0464880BD00F0A2FA00F07CFA1F
:1042E00000F088FA80BD002080BD404880BDC046F7
:1042F0009649096808407047032001048548006812
:10430000084070478D4801680C2008407047C0463F
:104310008A4801680C2008407047C046B0B5054681
:104320000024032829D1032000F066F82C49884294
:1043300008D02C4988420DD02B49884216D100F074
:104340006FFA19E000F078F8411E8841C4030C2D83
:104350003ED114E000F064F800280ED000F066F8BA
:10436000002837D0224C0C2D32D108E000F058FA4A
:1043700000F032FA00F048FA04460C2D28D10C2047
:1043800000F03AF81B4940180221C841032806D022
:1043900002280CD0012814D100F042FAB0BD00F080
:1043A0004BF8002801D00120C4032046B0BD00F026
:1043B00037F800280CD000F039F800280ED00C484F
:1043C000B0BD00F02DFA00F007FA00F013FA044631
:1043D0002046B0BD054C0C2DFAD1D0E70348B0BD46
:1043E0000300030002000300010003000024F400A6
:1043F00000093D000000F4FF544909680140000431
:10440000084370470120000448490A6802430A60D3
:104410007047C046454800688003C00F7047C046DB
:10442000424800684007C00F7047C0463F480068D8
:10443000C006C00F7047C046364800688005C00FF0
:104440007047C04607204103014800680840704794
:1044500004100240FD20000438490A6882434D20C0
:104460000004101808607047012000062F490A68F0
:1044700002430A607047C046032081052F48006848
:1044800008407047012001042C480068084070472C
:104490000F208104294800680840704723480068BD
:1044A0008001C00F7047C0460120C00419490A6846
:1044B00082430A607047C04620480168F022914359
:1044C00001607047072000021C490A6882430A60A5
:1044D0007047C0460720C00218490A6882430A6034
:1044E0007047C0460120C00314490A6882430A602D
:1044F0007047C0460320800214490A6882430A605C
:104500007047C0460320000402490A6802430A605B
:104510007047C046501002400320000503490A6856
:1045200082430120400510180860704700100240C7
:104530000248016803220A43026070470C100240DF
:104540000248016803229143016070474C10024009
:104550000348016820220A43D0218A430260704741
:1045600014000140014908607047C046180000204F
:104570000920C00204490A6882430A6048682A2266
:10458000904348607047C0460438014080B52F49C9
:10459000884208D02C4988420BD1FFF7CBFBFFF7AC
:1045A000D1FB002080BDFFF77DFBFFF78BFB0020D8
:1045B00080BD012080BDC04623480168012291438F
:1045C000016070472048016801220A430260704779
:1045D00070B50E46054600F043F80124002801D0CE
:1045E000204670BD28681749014070680843F1688B
:1045F000014330690843B16901432960B168284625
:1046000000F057F87169284600F04CF80E488542D2
:1046100004D00E48854208D10C2000E00320FFF7AB
:104620007DFE0146002903D1DAE700210029D7D019
:104630003368002BD4D0B269284600F015F8002466
:10464000204670BDF369FFEF003801400044004090
:10465000024800684006C00F7047C0461C38014041
:10466000016801200840704710B504460120C003CE
:1046700082420CD1480059080818194600F024FE5F
:10468000074901400007400F4018E06010BD58087E
:104690004018194600F018FE80B2E06010BDC04618
:1046A000F0FF000003221202836893430B438360F0
:1046B000704703221203436893430B4343607047E0
:1046C000014908607047C0462838014081B0A749B9
:1046D0000A680092401C01D30020C043009A0028C1
:1046E00004D00A68D203D2171018FAD101B070476B
:1046F00080B5FFF7F9FCFFF7F1FC2C48FFF7E2FC6F
:10470000FFF7B8FA1D2000F0D5FC80BDF0B58FB0E2
:1047100000240E940D940C940B940A94099408941C
:1047200007940694059404940394FFF7ABFAFFF7FB
:10473000A1FC0420029008900794069403200190A5
:104740000590022704970125A8020390164803AE9E
:104750003146FFF7A1FB0298089007940694019850
:1047600005900497E80203900F483146FFF794FB49
:104770001D252846214600F0E3FC284600F0ACFC4D
:104780000E940C200D900C940B940A944B20C001B5
:104790000990064809A9FFF7BBFCFFF7ABFCFFF740
:1047A000AFFC0FB0F0BDC046000400500048004010
:1047B00010B50446007800280BD0FFF7DDFC012877
:1047C000FBD12078FFF70AFD601C617800290446C0
:1047D000F3D110BD7047704710B50446FFF74CFD8C
:1047E0000006000F0249085CC440204610BDC046C8
:1047F000D859000810B50446FFF744FD000A0749E0
:10480000085CC440204610BD10B50446FFF740FDCB
:10481000C00A0249085CC440204610BDE85900089F
:1048200010B5FFF76FFD0221C84103280ED81F4CB9
:10483000784400794000874401110F1701200404D7
:10484000FFF700FE400B8440204610BD0120040409
:10485000FFF7F8FD400B8440204610BDFFF7E6FD52
:10486000002804D0134810BD00F004F810BD104813
:1048700010BDC046B0B5FFF705FE002801D00B4DB6
:1048800006E0FFF7D3FD002801D00A4D00E0084DF7
:10489000FFF7FEFD800C08490C5C6C43FFF7ECFD54
:1048A000800D411C204600F00FFDB0BD00127A00C3
:1048B0000024F40000093D00105A000880B5FFF7FD
:1048C00055FC00280DD0FFF763FC06490A78064B1B
:1048D0009854501C0870C0B2C008192801D3002099
:1048E000087080BD580400204003002080B5FEF70A
:1048F000E9FAFFF7FDFE00F037F9FFF71DF800F0C9
:10490000A7F8FFF797FCFFF7D5FB30BF80BD00008D
:1049100080B5FEF7EDFC00F02DF800F031F9084805
:1049200000F07CF9FFF77EF8FFF728F8FEF750FF5C
:10493000FEF70CFBFFF7EAFEFEF78EFF80BDC046D8
:10494000195A000870470000B0B5401E010E01D092
:104950000120B0BD054D68600024E043032100F054
:10496000C5FBAC60072028602046B0BD10E000E029
:104970007047000010B5FFF787FAFFF77FFA0128AC
:10498000FBD1FFF75DFCFFF73DFDFFF743FD01287D
:10499000FBD1FFF72FFC03200404FFF7ADFCA0427E
:1049A00005D0FFF761FCFFF77FFDFFF7ABFDFFF7D9
:1049B000B3FDFFF751FCFFF74DFDFFF755FDFFF786
:1049C0006DFD0128FBD1FFF777FDFFF77BFDFFF7BA
:1049D00081FDFFF7ADFDFFF79BFC0C28FBD10748DD
:1049E000FFF7C0FD0020FEF799FC002801D0FEF77C
:1049F0004BFBFFF7A5FDFFF77DFD10BD0048E8016B
:104A0000012002020E490B6813430B60CA680D4B6C
:104A10001340CB600A680C4B13400B608A688243DA
:104A20008A6082040B6893430B60FD221204CB68FA
:104A30009343CB6000220A61C006044908607047B6
:104A4000001002400C40FF88F6FFF6FE08ED00E083
:104A5000F0B58BB0FFF7DEFBFFF7D4FBFFF742FDAD
:104A600001273846FFF7D6FA02200290FFF7D2FA64
:104A70000420FFF7CFFA08200190FFF7CBFA80203F
:104A80000490FFF7C7FA00240A9408940794099445
:104A90000320009006902E4805900520060705ADDE
:104AA00030462946FFF7F8F90397099708940794C9
:104AB0000697049F059730462946FFF7EDF93846DB
:104AC000FFF75AFA039809902027059730462946A0
:104AD000FFF7E2F93846FFF74FFA0994009E069671
:104AE0001C4805904B482946FFF7D6F909940694CF
:104AF000039FB802059047482946FFF7CDF909946E
:104B00000694F802059043482946FFF7C5F9099431
:104B100006960F48A03005900F482946FFF7BCF9CC
:104B20000E482946FFF7B8F90D4805900D4829466B
:104B3000FFF7B2F93846FFF767FA0298FFF764FA11
:104B40000198FFF761FA0498FFF75EFA0BB0F0BD29
:104B50005FFF0000FBF30000000C0050001C005041
:104B6000FFDF00000008005080B5FFF725FD2A4850
:104B7000FFF70CFD1B2000F09DFAFFF7B5F880BD94
:104B8000F0B58DB000260C960B960A9609960896FD
:104B90000796069605960496039602960196009649
:104BA000FFF7AAF8FFF766FA05960496039603271F
:104BB0000297022401944020009016486D46294631
:104BC000FFF76AF9059604960396029701948020F0
:104BD000009010482946FFF75FF91B240121204669
:104BE00000F0AEFA204600F077FA0C960B960C20F7
:104BF0000A900996089607964B20C0010690064831
:104C000006A9FFF7E5FCFFF7B3FCFFF7DBFC0DB0EF
:104C1000F0BDC046000400500038014010B5044605
:104C2000007800280BD0FFF713FD0128FBD1207876
:104C3000FFF746FD601C617800290446F3D110BDE2
:104C4000F0B581B019480588FDF7D6FD0026344639
:104C5000FEF7AEF9FEF7BEFF201884B2701C042EDA
:104C60000646F5D32846FCF792FB0025104B2A4652
:104C7000FCF790FB0F4B2A46FCF78CFB06460F46D1
:104C80002046FCF77CFB02460B4630463946FCF7D3
:104C9000FBF8094B2A46FCF77DFBFCF719FB0446A1
:104CA000FDF712FE204601B0F0BDC0467800F81FA7
:104CB00000408F400000144000000840F0B58BB069
:104CC000032951D80446880001A108588746C046E8
:104CD000E14C00088D4D0008154E0008994E000863
:104CE0000120C10720468843FCF778FC02460B46AA
:104CF00008ADEAA12846FBF779FB2878002800D107
:104D00000CE108A8007807900026DE4F11E0002192
:104D10000A46FEF765F93546DB4908683860486899
:104D200078606E1C08A8FBF7C1FD0837864200D3E7
:104D3000F4E000252046294600F013FC002801D1AC
:104D4000002E0BD008A8805D2E28E0D1751C08A885
:104D5000405D01210022FEF743F9DDE701220798BB
:104D60002946FEF73DF9D7E70024C64DCDA6C64F2C
:104D7000305D00210A46FEF733F93868286078680C
:104D800068600835641C042CF2D1C7E00120C1071B
:104D900020468843FCF722FC02460B4608ADBDA125
:104DA0002846FBF723FB2878002800D1B6E008A8A6
:104DB000007807900026B34F11E000210A46FEF765
:104DC0000FF93546B04908683860486878606E1C4D
:104DD00008A8FBF76BFD0837864200D39EE000254C
:104DE0002046294600F0BDFB002801D1002E0BD043
:104DF00008A8805D2E28E0D1751C08A8405D01211F
:104E00000022FEF7EDF8DDE7012207982946FEF7BC
:104E1000E7F8D7E70120C10720468843FCF7DEFB0F
:104E200002460B4608AD99A12846FBF7DFFA287821
:104E3000002873D008A8007807900026914F10E052
:104E400000210A46FEF7CCF835468F4908683860DD
:104E5000486878606E1C08A8FBF728FD0837864272
:104E60005CD200252046294600F07BFB002801D1BA
:104E7000002E0BD008A8805D2E28E1D1751C08A853
:104E8000405D01210022FEF7ABF8DEE70122079822
:104E90002946FEF7A5F8D8E70120C1072046884338
:104EA000FCF79CFB02460B4608AD74A12846FBF7B5
:104EB0009DFA2878002831D008A8007807900026AD
:104EC000704F10E000210A46FEF78AF835466E4919
:104ED00008683860486878606E1C08A8FBF7E6FC34
:104EE000083786421AD200252046294600F039FBB1
:104EF000002801D1002E0BD008A8805D2E28E1D11A
:104F0000751C08A8405D01210022FEF769F8DEE764
:104F1000012207982946FEF763F8D8E70120C40369
:104F2000584E716809032140029483030593326847
:104F3000D2021A4051184503F26892022A400195A4
:104F4000891803030493B26852021A40891847046F
:104F5000726992033A4000978918326912018023DE
:104F600003931A40891803020793F26952011A4009
:104F7000891842020692B069830113400B434B48E3
:104F800006214B4AFEF752FB70684003204031680F
:104F90000903059C21400818F168C90229404018FE
:104FA000B1688902049D294040187169C9033940DC
:104FB000401831694901039F39404018F16989015E
:104FC000079A11404018B169CB0106990B40034381
:104FD00004213648364AFEF729FB7068800302999F
:104FE00008403168490321400818F1680903019A13
:104FF00011404018B168C90229404018716909047C
:10500000009A114040183169890139404018F1690E
:10501000C901079A11404018B1690B0206990B406B
:1050200003430221214C2046214D2A46FEF7FEFA79
:105030007068C00380B23168C907490C0818F1686C
:10504000C907890C4018B168C907C90C40187169B3
:10505000C907890B40183169C901C9B24018F16903
:10506000C907C90D0143B069C007830D0B43002177
:1050700020462A46FEF7DAFA0BB0F0BD25342E3072
:1050800066000000B0010020A801002025352E3167
:105090006600000025352E326600000025352E33CF
:1050A00066000000204572720000000060040020CD
:1050B0007F0CFDFF1F21014001208840034908604B
:1050C000BFF34F8FBFF36F8F7047C04680E100E0A2
:1050D00005488021016070471F2101400120884060
:1050E000014908607047C04600E100E0002805D48F
:1050F0000322034693431B4A9A1806E00F220240FC
:10510000083A03239A43074BD2188007C00E89013F
:10511000C9B28140FF238340106898430843106060
:105120007047C0461CED00E0FF20000603490A68F6
:1051300082430120800710180860704704E400E0F3
:1051400010B5C0B28207D20EFF239340054C001960
:105150000324A04304689C438901C9B291402143C0
:10516000016010BD00E400E0FEF7C2F8FFF702FCAA
:10517000FFF706FD4248FFF751FDFEF753FCFEF72F
:10518000FDFBFEF725FBFDF7E1FEFFF7BFFAFDF79C
:10519000F1FC3C490870002801D0FDF7A9FBFDF7A0
:1051A000BDFCFDF759FBFEF757FB374E374C3EA7CA
:1051B0001420FEF7D7FA7068FCF710FA02460B4687
:1051C000204633A1FBF712F92046FFF727FD706850
:1051D000FCF704FA02460B46204630A1FBF706F91D
:1051E0002046FFF71BFD326820463946FBF7FEF8E4
:1051F0002046FFF713FD7068FEF7C6FBB07C002861
:105200001FD0307D1F49097800291AD0002818D1F5
:1052100001203075FEF796FB7068FEF7B5FB7068ED
:10522000234900F0ADFAFCF7D9F900252A46214BB5
:10523000FBF7FAFDFCF74CF82946FDF7C1FDFEF738
:105240008FFBF07C0028B3D0FFF7FAFC3C461A4FE6
:10525000388001252946FDF7B3FD0020F074FFF7E3
:1052600045FBFFF755FB15A0FFF7D8FCFFF7E8FC5F
:1052700038802746054C2946FDF7A2FD98E7C04631
:10528000195A0008A5010020000000209C040020FD
:105290002531302E33660D0A000000002531302EF6
:1052A00031660D0A0000000025640D0A00000000B0
:1052B000000020410000E03FCC04002077616B65D6
:1052C0007570210D0A00000043088B421AD300229A
:1052D00003098B4279D3030A8B425ED3030B8B42C3
:1052E00042D3030C8B4227D30902FF2212BA030CCC
:1052F0008B4202D31212090203D0030B8B4233D329
:105300001AE0D3E0411A8041401C704703460B432A
:1053100071D443088B42F5D3002203098B4254D346
:10532000030A8B4239D3030B8B421DD3030C8B42F0
:1053300002D394466EE0090AC30B8B4201D3CB0320
:10534000C01A5241830B8B4201D38B03C01A5241C6
:10535000430B8B4201D34B03C01A5241030B8B42C8
:1053600001D30B03C01A5241C30A8B4201D3CB02B3
:10537000C01A5241830A8B4201D38B02C01A524198
:10538000430A8B4201D34B02C01A5241030A8B429B
:1053900001D30B02C01A5241CDD2C3098B4201D3B3
:1053A000CB01C01A524183098B4201D38B01C01A31
:1053B000524143098B4201D34B01C01A52410309A8
:1053C0008B4201D30B01C01A5241C3088B4201D357
:1053D000CB00C01A524183088B4201D38B00C01A04
:1053E000524143088B4201D34B00C01A5241411A2B
:1053F000524110007047CA0F00D04942031000D339
:105400004042534000229C4603098B422DD3030A9D
:105410008B4212D38901FC2212BA030A8B420CD3AD
:10542000890192118B4208D3890192118B4204D3D6
:10543000890137D0921100E08909C3098B4201D359
:10544000CB01C01A524183098B4201D38B01C01A90
:10545000524143098B4201D34B01C01A5241030907
:105460008B4201D30B01C01A5241C3088B4201D3B6
:10547000CB00C01A524183088B4201D38B00C01A63
:105480005241D9D243088B4201D34B00C01A52413A
:10549000411A00D201465241104663465B1000D3C8
:1054A0004042704763465B1000D3404201B5002183
:1054B000004201D0C9430846C046C04602BDF8B507
:1054C000040C8BB2264682B25E43104658430D0C44
:1054D000370C360400218019164679416E43370C8B
:1054E00036048019264679416E438919F8BD0000BB
:1054F0004900CA020243100000D004204A0D01D026
:1055000001221043044A490D914201D1022108436E
:10551000012800D105207047FF07000010B500F0FA
:1055200077F8EFF300804000800F012800D00020C2
:1055300010BD10B500F09EF8EFF300804000800F22
:10554000012801D0012010BD002010BD10B500F0D1
:1055500091F8EFF30080800001D4012010BD0020FD
:1055600010BD10B500F0B8F8EFF30080800001D551
:10557000012010BD002010BD10B500F0D7F8EFF3EA
:1055800000804000800F012801D0012010BD0020C4
:1055900010BD10B500F0CAF8EFF30080800001D410
:1055A000012010BD002010BD30380A2801D2012092
:1055B000704700207047000010B500290AD0087815
:1055C000002807D005487844FDF75CF8002801D092
:1055D000002010BD0248784410BD0000F204000015
:1055E000EA04000010B500290AD00878002807D086
:1055F00005487844FDF746F8002801D0002010BD8A
:105600000248784410BD0000E2040000DA04000003
:1056100070B501252D050C001C4310D4EC4206D4B6
:10562000AC420AD4994200D070BD904270BDE942AC
:1056300017D4EB4215D4994270BD894270BDEC423B
:1056400006D5AC42F9D58B4200D070BD824270BD08
:105650006D004C00EC4204D25C00EC4201D28B4263
:1056600070BD034C30B4FCF75FFF30BC70BD00BFB1
:105670001900130470B501252D050C001C4310D42E
:10568000EC4206D4AC420AD4994200D070BD90429C
:1056900070BDE94217D4EB4215D4994270BD8942DE
:1056A00070BDEC4206D5AC42F9D58B4200D070BD3E
:1056B000824270BD6D004C00EC4204D25C00EC42B2
:1056C00001D28B4270BD034C30B4FCF72DFF30BCCF
:1056D00070BD00BF190016040123DB0502000A4358
:1056E0000DD4DA4203D49A4207D488427047D84294
:1056F00014D4D94212D48842704780427047DA42AB
:1057000003D59A42F9D5814270475B004200DA42E4
:1057100004D24A00DA4201D28142704710B5024AEF
:10572000FCF752FF10BD00BF090013040123DB0585
:1057300002000A430DD4DA4203D49A4207D48842C5
:105740007047D84214D4D94212D48842704780425C
:105750007047DA4203D59A42F9D5814270475B001F
:105760004200DA4204D24A00DA4201D28142704752
:1057700010B5024AFCF728FF10BD00BF090016044F
:1057800070B5420064414B005C41120E39D01B0ED3
:1057900038D0FF2A3CD0FF2B3AD0D2187F3A4002B3
:1057A0004902400A490A4518ED0106004E43000A25
:1057B000090A48430104731A4019190C4318990F38
:1057C00004D05B08012149075B1A521CD80904D395
:1057D000401CF50301D19D0607D0FF2A08D2D5054C
:1057E00006D0E4072043401970BD0125A843F4E723
:1057F000002A01DCE00770BD2402FF202043C00521
:1058000070BD1B0EFF2A03D0FF2B01D0E00770BD37
:10581000FF2636064500B54206D84D00B54203D8EE
:10582000D218FF2A00D0E7E7004870BD0000C07F13
:1058300003B402487844844603BC604705C2FFFFB6
:1058400000000000000000003031323334353637BC
:1058500038394142434445464030580030313233B4
:1058600034353637383961626364656640307800B4
:105870000400000800000000000000020001000019
:105880001080807F7E7D7C7B7A79787776767574E0
:1058900073727171706F6E6E6D6C6C6B6A6A696831
:1058A00068676666656464636362616160605F5FC8
:1058B0005E5E5D5D5C5C5B5B5A5A59595858575740
:1058C00056565555555454535352525251515050A7
:1058D000504F4F4F4E4E4D4D4D4C4C4C4B4B4B4AF9
:1058E0004A4A49494948484847474747464646453E
:1058F0004545444444444343434342424242414178
:10590000418182838485868788898B8C8D8E8F9157
:105910009293959697999A9C9D9FA0A2A3A5A7A8BC
:10592000AAACAEB0B2B3B5B7B9BCBEC0C2C5C7C9E8
:10593000CCCED1D4D7D9DCDFE2E6E9ECF0F3F7FA4C
:10594000FE00000002400000000000A00000000077
:1059500005400000000000C8000000000C400000EE
:105960000000409C00000000194000000020BCBE68
:105970000000000034400000BFC91B8E000000047E
:10598000B5400000504BCFD06607E2CF01000000C9
:105990006C4100003E8251AADFEEA73401000000F6
:1059A000D9420000DCB5A0E23A301F97FFFFFFFFAD
:1059B000B4450000FD25A0C8E9A3C14FFFFFFFFFCC
:1059C000FF3F00000000008000000000FF3F0000DB
:1059D0000000008000000000000000000000000047
:1059E0000102030406070809000000000102030485
:1059F000BE00A000DA00F800E4007C007E00A800F1
:105A0000FE00FC00EE0076001E00F2005E004E007C
:105A1000030406080C101820307573617274310D80
:105A20000A0041542B43474154543F0D0A0041544E
:105A30002B43494D490D0A0041542B4353510D0A44
:105A40000041540D0A00343630002B4D49504C4370
:105A500052454154453A30002B4E50534D523A3046
:105A6000002B4E50534D523A31002B434741545472
:105A70003A31002B4D49504C4F4253455256453A0E
:105A8000002B4D49504C444953434F5645523A0020
:105A90004F4B002B43535100E85B000800000020EF
:105AA0002800000004010008105C00082800002005
:105AB000A80A0000200100081C00000043000000AC
:105AC000F8FFFFFF0C0000000E0000000F000000B8
:105AD0002E0000001001000043000000F8FFFFFF4F
