:020000040800F2
:10000000A807002085010008291D0008D51900084F
:1000100000000000000000000000000000000000E0
:100020000000000000000000000000005D1D00084E
:1000300000000000000000002B1D0008891D0008C2
:100040009701000897010008970100089701000830
:100050009701000897010008970100089701000820
:100060009701000897010008970100089701000810
:1000700097010008970100080000000097010008A0
:1000800000000000970100080000000000000000D0
:100090009701000800000000970100089701000880
:1000A00097010008970100089701000897010008D0
:1000B000970100082D1D000897010008970100080E
:1000C00000F002F800F04EF80CA030C808382418F0
:1000D0002D18671EA246AB4654465D46AC4201D180
:1000E00000F040F87E460F3EB6460FCC0126334264
:1000F00000D0FB1A3343A246AB4618471C2700002A
:100100003C270000103A02D378C878C1FAD85207C9
:1001100001D330C830C101D504680C6070470000BD
:100120000023002400250026103A01D378C1FBD813
:10013000520700D330C100D50B60704710B5662957
:1001400002D102F007FB10BD002010BD1FB500F06A
:100150006BFC04000020002102F02EFAE0601FBDBD
:1001600010B510BD01F0ACF81146FFF7EFFF02F03B
:1001700091F801F0C4F803B4FFF7F2FF03BC01F0FB
:1001800079F900000748804707480047FEE7FEE787
:10019000FEE7FEE7FEE7FEE704480549054A064B91
:1001A000704700000D1E0008C1000008A8010020D3
:1001B000A8070020A8030020A80300200FB41CB546
:1001C000074B06AA7B4469460090059800F013FC93
:1001D0000020694600F022FC1CBC08BC04B0184793
:1001E0005508000070B5044685690068C10601D550
:1001F000302600E02026C00707D070BD6268304678
:10020000A1689047206A401C20626D1EF6D570BD23
:1002100070B5044685690078C00707D170BD626873
:10022000A16820209047206A401C20626D1EF6D5F0
:1002300070BDF3B50446002081B020622046E1681D
:10024000884700287AD0252802D06268A16871E02A
:10025000E16820460025884706460020E061074601
:10026000A0612A2E0AD0304602F09FF9002827D03C
:10027000B8000019303E0090866119E00298BA007B
:10028000121902C8916102902046E1688847012F47
:10029000064617D1E06900281FDA202085431CE0BC
:1002A00000980A2180694843009980193038886194
:1002B0002046E1688847064602F077F90028EFD12A
:1002C000012F0AD02E2E08D12046E1688847064625
:1002D000202005437F1C022FC3DBA069002803DA1E
:1002E0004042A06101200543E80701D0102085436A
:1002F000002E23D030464138192803D80120C002EF
:1003000005432036204625603146029A1546FFF700
:1003100015FF00280BD0012806D0ED1DE808C0000D
:10032000083002908AE709E02D1D029586E7626891
:100330003046A1689047206A401C7EE7206AFEBDD7
:1003400030B5441C03E00178401C00290DD0810722
:10035000F9D10B4BDD0104C8D11A91432940FAD0E1
:10036000001B0A0603D0C01E30BD001B30BD0A04AE
:1003700001D0801E30BD0902FCD0401E30BD0000FF
:1003800001010101002203098B4273D3030A8B424E
:1003900058D3030B8B423CD3030C8B4221D312E086
:1003A00003460B437FD4002243088B4274D30309D6
:1003B0008B425FD3030A8B4244D3030B8B4228D377
:1003C000030C8B420DD30902FF2212BA030C8B429D
:1003D00002D31212090265D0030B8B4219D300E03D
:1003E000090AC30B8B4201D3CB03C01A5241830BC2
:1003F0008B4201D38B03C01A5241430B8B4201D372
:100400004B03C01A5241030B8B4201D30B03C01A9A
:100410005241C30A8B4201D3CB02C01A5241830A14
:100420008B4201D38B02C01A5241430A8B4201D343
:100430004B02C01A5241030A8B4201D30B02C01A6D
:100440005241CDD2C3098B4201D3CB01C01A5241D4
:1004500083098B4201D38B01C01A524143098B425D
:1004600001D34B01C01A524103098B4201D30B0146
:10047000C01A5241C3088B4201D3CB00C01A52416B
:1004800083088B4201D38B00C01A524143088B4230
:1004900001D34B00C01A5241411A00D201465241C9
:1004A000104670475DE0CA0F00D04942031000D3E8
:1004B000404253409C46002203098B422DD3030A3D
:1004C0008B4212D38901FC2212BA030A8B420CD34D
:1004D000890192118B4208D3890192118B4204D376
:1004E00089013AD0921100E08909C3098B4201D3F6
:1004F000CB01C01A524183098B4201D38B01C01A30
:10050000524143098B4201D34B01C01A52410309A6
:100510008B4201D30B01C01A5241C3088B4201D355
:10052000CB00C01A524183088B4201D38B00C01A02
:100530005241D9D243088B4201D34B00C01A5241D9
:10054000411A00D201465241104663465B1001D366
:100550004042002B00D54942704763465B1000D3F0
:10056000404201B50449002802DC491C084000E073
:100570000846C046C04602BDFFFFFF7F7047704778
:10058000704700000121C9050123411842001B06E4
:10059000D3185B0E0AD0C1100722D2068918400773
:1005A0005242D14201D5520089187047090208D53C
:1005B0000146002A03D0C10FC9070020704710462A
:1005C0007047420202D00020024970470721090506
:1005D0000143F4E70000F87FFFB50C461E468FB0DC
:1005E00003CA089009914F007D0D00D16D1E0021B6
:1005F00008460020C0460321099A89050840002AC0
:1006000003DA8200801840080840800D01280A9013
:1006100002DD0020C0430A90089807430DD0F0483F
:10062000F049281848430714189800281DD075422F
:10063000291E1DDD0A9842421BE01898012802D0AD
:100640000020302104E00020F24305E02154401C4A
:10065000B042FBDB30460022189B002121540F9949
:100660008B600A60486013B0F0BDBD1B6D1CDFE7F6
:100670000A9A002900DA69420BA800F05BFA0BAB7A
:1006800007CB03AB07C30899099800F0BFFA6B4684
:1006900007C30146D4480918002D00910BDDD2494B
:1006A00003980A9A49424018002303A90390684618
:1006B00000F01CFD08E003990A9A0023081803A91A
:1006C0000390684600F0BCFC6B4607C30004000CB6
:1006D00003D00020C043410800E01046189A002AC9
:1006E00003D00022009215461EE0751E05D400F0CE
:1006F0009FF9303262556D1EF9D5012208430796E5
:1007000002D000227F1C04E02078302801D1002292
:100710007F1E002A069787D01EE0112D07DA00F011
:1007200087F9303262556D1C02460A43F5D1084301
:1007300003D00098002819D00EE00021681E05E0C3
:10074000235C625C63542254401E491C8142F7DBE7
:10075000A81B401E07950690079A18990020A054E0
:100760000F98079B069A81600CC07CE71126002039
:10077000189059E7D21DF0B50D460446D10893B044
:10078000C90003C90C900D9101F0A8FE02460D9816
:10079000C00F01D02D2007E02068810701D52B2054
:1007A00002E04007C00F4001032A0F9001D0072A42
:1007B00005DB03462946204600F078F90EE1207853
:1007C000800601D5E76900E006272846652D04D09C
:1007D000662814D0672D69D12DE00020112F0090DC
:1007E00001DB112300E07B1C0CAA03A910A8FFF772
:1007F000F3FE1199002610987D1C0E9142E0012015
:100800003B460CAAC0070B900120009003A910A83A
:10081000FFF7E2FE119D12981099002600280E9510
:1008200001D1781C0D18781B02D446427D1C761E1F
:10083000E81B00903AE0012F00DA01270020112F79
:10084000009001DD112300E03B460CAA03A910A88B
:10085000FFF7C2FE11993D46109800260E912178AF
:1008600009070BD40E99A94200DA0D4603A9012D00
:1008700004DD4A19203AD27F302A06D0B84201DA84
:10088000011D04DA012100910FE06D1EEFE7002841
:1008900002DC86192D1A03E0411CA94200DD0D4639
:1008A000801B401C00900120C0070B90207800079F
:1008B00005D40098A84202DB0020C043009069469E
:1008C0000020C8720B98012102AF0337C907884284
:1008D00025D0022010902B2011900B9800280BDAC5
:1008E00040420B902D20119006E00B9800F04EFC3A
:1008F00030317F1E0B9039701099481E00291090DE
:10090000F3DC0B980028F0D111987F1E38702088F6
:10091000000501D5452000E065207F1E387001A844
:10092000C01BC01D0B900F98002800D0012041195A
:100930000098C01709180B980818A169081A401EDA
:10094000A0612078C00602D42046FFF74BFC0F9828
:10095000002805D06268A1689047206A401C206288
:100960002078C00625D52046FFF73CFC21E0002E6C
:1009700007DB0E98B04204DD03A86268805DA168C1
:1009800002E06268A16830209047206A761C401C13
:1009900020620098401E002800900AD100F044F820
:1009A000C06862680168405CA1689047206A401C8A
:1009B000206228466D1E0028D9DC07E0626838787E
:1009C000A1687F1C9047206A401C20620B99481E3A
:1009D00000290B90F2DC2046FFF71AFC032042E6C8
:1009E00001FCFFFF104D0000E1DFFFFF01694A1C21
:1009F00002610878704700B58FB00291002105911F
:100A00000549019379440391114604906846FFF724
:100A100010FC0FB000BD0000E5FFFFFF0A6810707A
:100A2000521C0A60704700000048704730000020E8
:100A30000B4670B5024689078008084319469D0891
:100A4000141AA94125090807054308092C1948412A
:100A5000250A01060D43010A2C194141200C0D0401
:100A600028430D0C00194D41002140194D41C0088B
:100A700069070843E908840F8D0025438400241882
:100A80004D4124196D41121BAB4107E00925ED438F
:100A90002C11521963410024401C61411C460A2557
:100AA0000026551BB441F1D270BD0000F8B51F46B9
:100AB000044601230068DB02032601461840072A8A
:100AC00005DB002801D017A506E017A504E00028E3
:100AD00001D016A500E016A5102081432160A06971
:100AE000C01E002FA06101D0401EA0612046FFF76C
:100AF00079FB002F09D038466268A1689047206AC8
:100B0000401C2062C01C206206E0206AFAE762688E
:100B10002878A1686D1C9047761EF8D22046FFF712
:100B200077FBF8BD4E414E006E616E00494E4600A7
:100B3000696E6600F7B516468AB0334878446C464D
:100B400003467C33C06F5A689B680DC42E487844B6
:100B5000763003AC0DC80DC43720C001081837210A
:100B60001B30FFF71DFC05460C46803D1B3C02D5A3
:100B70006442012000E000200027099010E0E00717
:100B80000CD00C2020497843794432464C39411826
:100B90006846012300F054FA6B4607C364107F1CBB
:100BA000002CECD1184F7F442E3F16E0E80712D0FE
:100BB0002001C0190EC80691089307920068F04200
:100BC00001D1981908903246012306A903A800F024
:100BD00037FA03AB07C36D10641C002DE6D10998EA
:100BE000002806D032466946012303A800F07EFAA9
:100BF00005E001233246694603A800F021FA0A9B6A
:100C000007C30DB0F0BD0000241C000003464000E7
:100C10000A4610B5400D0BD00121C9070F24A402CC
:100C200000191C0364082143540D2143D20207E03C
:100C300000210120F2E7D40F490021435200401E59
:100C40000029F8DADB0FDB07184310BDFFB50D46AE
:100C5000144685B04868516801F027FC0091019066
:100C6000A868A16801F021FC02910390A86861685E
:100C700001F01BFC029A12188242029201D201205A
:100C800000E00020019A0B18D2180028019202D02F
:100C90008A4202D903E08A4201D2012000E000200A
:100CA0000099081800906868A16801F0FEFB029A9C
:100CB00012188242029201D2012000E00020019A23
:100CC0000B18D2180028019202D08A4202D903E000
:100CD0008A4201D2012000E000200099081800900B
:100CE0002868216840004900400849084018FA492E
:100CF000471814E001994000C90F0843009001987B
:100D000002994000C90F08430190029803994000DE
:100D1000C90F08430290039840007F1E039000987B
:100D20000028E7DA0898002801D0EC4E00E0002601
:100D3000B74201DA012000E00020002804902AD008
:100D4000F71BF806C00E15D0029B2021091A039A42
:100D50008B401A430392029A019BC2408B401A4374
:100D60000292019A009BC2408B4000991A43019263
:100D7000C14000917B110DD06F460320C11A03D5ED
:100D800000218200B95003E08A008100BA587A50ED
:100D9000401EF3D5374603980299002800D0012061
:100DA000014308980291002808460CD0002800D082
:100DB00001200199019A490508430121D20AC9027B
:100DC000D202019200E001210E9B0122D207012BE9
:100DD00002D0002B03D013E0002807D120E090427E
:100DE00004D890420CD1019B0B4209D0019B5918A9
:100DF000019105D10099491C009101D17F1C0092FD
:100E000000280DD0102108460020C0460498002874
:100E100006D00F98002803D0082108460020C046BD
:100E200028682168019B009A4840C10F0598C907AE
:100E300039430EC009B0F0BDFFB587B0099A0898D4
:100E4000089953689268406889689646002203931F
:100E500017469446089A12685300099A5B0812686C
:100E6000520052089A1A9E4BD4180A9A002A01D0AE
:100E7000352200E04022069200220123154604920A
:100E8000DB07059324E0002D05D175460346039E3C
:100E90004D1BB34109D375466646039B491B049D10
:100EA0009841059B7519AC465F4163463B4308D0AA
:100EB000059B049EDD0776082E435B080496059388
:100EC00001E0521E641EC50FED0749184041521C37
:100ED000069B9A42D7DB002D04D17546039A6B1A04
:100EE000824101D203200CE0039A0B466B40424042
:100EF000134303D0014303D0012002E0022000E0AD
:100F00000020614601910021009702910A99002971
:100F100005D0614640020143704B019102E0800719
:100F2000002302909C4201DA012000E0002007002B
:100F30003AD01A1BD006C00E15D0029D2021019C6C
:100F4000091AC5408C402543029C8C4000D00124E6
:100F50002543019C0295009DC4408D4000992C437F
:100F60000194C140009154111DD06D460221002210
:100F700002290CD10320001B07E0002804DB8600B7
:100F8000AE59002E00D00122401C0328F5DB081BBF
:100F900002D588002A5004E08000285810438A00B7
:100FA000A850491EE3D51C460A98002802980CD088
:100FB000002800D001200199019A49050843012128
:100FC000D20AC902D202019200E00121109B012243
:100FD000D207012B02D0002B03D013E0002807D149
:100FE0001FE0904204D890420CD1019B0B4209D0E3
:100FF000019B5918019105D10099491C009101D11B
:10100000641C009200280CD0102108460020C04625
:10101000002F06D01198002803D008210846002090
:10102000C04608980999019A009B006809684840E1
:10103000C10F0798C907214382600AC00BB0F0BDF9
:1010400000B585B0019300920A460146002302A82C
:10105000FFF7FCFD02A807C805B000BDFFB50A46B2
:101060001F4685B00799019301230091014602A80C
:10107000FFF7ECFD02990398049ECA0F4900D207BE
:1010800000920F22490892028C1A0021002800DBEE
:101090000C46450013486D08844214D3079A002A71
:1010A00004DA441E0026104DF64302E004460D46C5
:1010B0000E46102108460020C046002F03D0042110
:1010C00008460020C0462005E90A08430099084365
:1010D0006905F20A1143ADE602C0FFFF013C0000C2
:1010E000FF3F0000FF070000FFFFFF7F00B585B056
:1010F000019300920A460146002302A8FFF79CFED6
:1011000002A807C8A8E7FFB50A461F4685B0079999
:10111000019301230091014602A8FFF78DFE029979
:101120000398049ECA0F4900D20700920F22490873
:1011300092028C1A0021002800DB0C464500114861
:101140006D08844214D3079A002A04DA441E00264C
:101150000D4DF64302E004460D460E4610210846AA
:101160000020C046002F03D0042108460020C046BE
:101170002005E90A0843009908436905F20A11436A
:1011800058E60000FF070000FFFFFF7F01468008D0
:10119000081A02091018020A1018020C1018C008C8
:1011A000820012185200891A01E0401C0A390A29EB
:1011B000FBD27047F8B5264C4E00069DA6420AD8D1
:1011C000A64201D1002806D15E00A64203D8A6425D
:1011D0000AD1002A08D00D242404254233D0294600
:1011E000002000F0EDF8F8BD0C461C4311D49942E4
:1011F00007D0C81A02D3EFF30080F8BDEFF30080E8
:10120000F8BD801A02D3EFF30080F8BDEFF3008041
:10121000F8BD09242407E5008B4207D0581A02D3F1
:10122000EFF3008006E0EFF3008007E0101A03D32D
:10123000EFF30080A04303E0EFF30080A0432843D6
:1012400080F30088F8BD009500F0D2F8F8BD0000EA
:101250000000E0FF10B5FF231B0644009C421DD890
:101260004C009C421AD80346124A0B4307D4401A3A
:1012700002D3EFF3008010BDEFF3008010BD081A19
:1012800003D3EFF30080904305E0EFF300800121EA
:101290009043C907084380F3008810BD0D231B0449
:1012A0001A4204D01146002000F08AF810BD00F068
:1012B000A9F810BD00000090004870471000002001
:1012C0007546FFF7F9FFAE46050069465346C0086C
:1012D000C000854618B020B5FEF75EFF60BCB6467C
:1012E00000260027C0C5C0C5C0C5C0C5C0C5C0C593
:1012F000C0C5C0C5403D490849008D46704710B57E
:101300000446C046C0462046FEF735FF10BD00002B
:1013100082078B079A423FD170B5920F0AD00324FF
:1013200002780B78401C491C002A33D09A4231D1F4
:101330002042F5D1214EF40104C808C9951B9543FC
:10134000254018D19A420FD104C808C9951B95436E
:10135000254010D19A4207D104C808C9951B95436E
:10136000254008D19A42E7D012BA1BBA01209A420E
:1013700000D2404270BD12BA1BBA2DBA1824100018
:10138000E0401900E140401A05D12E00E64002D1AC
:10139000083CF4D1D01A70BD02780B78401C491C6F
:1013A000002A09D09A4207D102780B78401C491CC8
:1013B000002A01D09A42EFD0D01A704701010101F2
:1013C000C80212D54803400F002804D0C803C04308
:1013D000012188407047EFF30080000100090321DC
:1013E0000907084380F30088704700207047000019
:1013F00010B500200249029A00F00CF810BD000060
:101400000000F87F10B5024800F004F810BD00009D
:101410000000C07F10B50C461107090F092904D040
:101420000A290AD008290CD104E011460820FFF748
:10143000C7FF06E0510606D501E0510601D501209F
:10144000C007214610BDD10607D501010909CC0806
:101450004907000E0006044309E0410F2002490736
:10146000000A0143200E00061D22D1410143084617
:10147000E7E7000001491820ABBEFEE726000200A6
:1014800070470000B0B50346303B0A2B1AD240002B
:10149000134BC018603800884B1E59425941012A2D
:1014A00001D1402210430843042300210D4ADBB23E
:1014B0000446DC400F2525405550091D1B1F0829F7
:1014C000F5D1B0BD452805D06F2805D0722805D1CB
:1014D0004220E1E75E20DFE77220DDE70020DBE766
:1014E000F827000870000020EFF3108072B6FEE7C6
:1014F000F0B58AB004900B68002B00D1A5E05448E9
:10150000049A824201D0062000E0052000900B20C2
:10151000000712180A20C241019201250026344614
:10152000039506910BE018434A4AD0600B681846B1
:10153000E840B61C241D6D1C002800D185E0681E03
:10154000039A099082401340F0D0089405934F68A5
:10155000122F16D80120B8403F49084211D003206D
:10156000B04004998C6884430698C068B04020431A
:101570008860F806C00F099B98404C689443044368
:101580004C6003210791B140049BDC688C43069AB0
:101590009068B0402043D86010200743C943122F01
:1015A00010D11C200291089908400F248440099909
:1015B000CF08BF00DF19396AA143146984400C4386
:1015C00002993C621868084051680C46079F3C40ED
:1015D000B44004431C60C8001146059B089CA5D577
:1015E000F74A10680121014311600C272740019937
:1015F000042900D30099B9400F20B840099F079AE9
:101600009743164ABC5884430C43BC50114A106897
:1016100006994F68FC0301D5184300E09843106019
:101620005068BC0301D5184300E0984350609068AF
:10163000FC0201D5184300E09843089C9060D068F4
:10164000BA0200D56FE798436EE70AB0F0BDC04616
:10165000001C005000040140060006000800014084
:10166000014800687047C046A001002010B5094835
:10167000016840220A4302600024204600F00CF872
:10168000002802D00124204610BD00F08FF920462A
:1016900010BDC04600200240B0B504467D20C00009
:1016A0000C49097800F006FE01460B48006800F07E
:1016B00001FE00F08BF90125032C09D8002807D181
:1016C0000025E84321462A4600F07CF903480460DF
:1016D0002846B0BD040000200000002008000020C3
:1016E000F0B581B004463520205C2646343601280A
:1016F00002D0707802281ED13078012802D1022051
:1017000001B0F0BD02200090707001203070FFF732
:10171000A7FF0546A44F2068816849070ED5FFF74B
:101720009FFF401BB842F6D3002030700098A063A2
:10173000032001B0F0BD012001B0F0BD1430002144
:101740000A468150121D402AFBD1204600F0C6F8FF
:10175000002001B0F0BDC046F0B583B0002870D0C5
:101760000546044634346078002804D100202070F7
:10177000284600F071F80220009460702868016823
:101780000122019291430160014614310022134667
:10179000CA501B1D402BFBD1816804220A43826082
:1017A00041682C4A0A406968AB6811431943AA6929
:1017B00002922F461C37D8CFEA6A0F4317431F43C4
:1017C000274302990F4337434760284600F0D2F978
:1017D00028680168FE2291432C460C341CCC0A4335
:1017E0001A432243296B114301600168019A114396
:1017F00001607D20C0000290FFF732FF06462C46B4
:1018000028688068C707FFF72BFF0546002F0DD11A
:10181000A81B029988422546F1D90820A86315E043
:10182000FFF71EFF401B029988420DD82068806890
:10183000C006F5D50020A0630099019A4A7003B054
:10184000F0BD012003B0F0BD1020A063032003B061
:10185000F0BDC0460F0000FCF0B587B0002506952E
:1018600005950495039502950068C149884201D009
:1018700007B0F0BD012671021548C2680A43C26074
:1018800001680227394301600168394001910199DB
:10189000016831430160006830400190069605956B
:1018A000049503970B48029001980B4802AC21461F
:1018B000FFF71EFE06960595049503978720000204
:1018C0000290052000072146FFF712FE07B0F0BD89
:1018D0002C10024038F2000000040050F0B581B036
:1018E000044600680821C160816804220092114307
:1018F000816026463436FFF7B3FE0546A84F2068C0
:101900008068000708D4FFF7ABFE401BB842F6D34F
:101910000098A063032002E00120707000200021E5
:10192000317001B0F0BDC046F0B585B00646352037
:10193000305C35463435012802D0687802280AD157
:1019400002A80EC06878012821D12878012805D185
:10195000022005B0F0BD012005B0F0BD02200190CD
:10196000687001202870FFF77BFE04468C4F3068BA
:10197000806840070BD5FFF773FE001BB842F6D313
:10198000002028700198B063032005B0F0BD0298D4
:101990008000316808184169039A1140049A114384
:1019A0004161002005B0F0BDE90300000448016872
:1019B000012211430160110742680A4342607047E7
:1019C0003410024080B500F045FC80BD80B500F0C9
:1019D000C7F980BDFEE7000080B56448FFF780FED0
:1019E00080BDC046F0B581B004460027394600F0FE
:1019F000D1FD05462046FEF7C5FD0E46002D0546E5
:101A000007D13C4A3C4B2846314600F093FD002864
:101A100064D100212046009100F0A4FD0127002898
:101A200007D1364A364B2846314600F06DFD002876
:101A300054D1304A304B2846314600F07BFD002817
:101A400007D1304A304B2846314600F073FD00285C
:101A500044D12E4A2E4B2846314600F078FD02270D
:101A6000002807D1254A264B2846314600F06FFD55
:101A7000002833D1234A244B2846314600F05AFD32
:101A8000002807D1234A244B2846314600F052FD56
:101A9000002823D12149204600F07CFD002809D1EF
:101AA0001A4A1B4B2846314600F051FD002801D050
:101AB000032713E0174A184B2846314600F02FFD44
:101AC0000099CD43002801D12F4600E00327144997
:101AD000204600F052FD002800D12F4679B2204662
:101AE00000F0BCF9962000F00DF92048FFF7F6FE53
:101AF00001B0F0BD736891ED7CFF23403D0AD7A390
:101B000070FD33C08FC2F5285CFF5840CDCCCCCCE3
:101B1000CCFC68C033333333333F8F4000E0F9C42B
:101B2000003C1C46F0B581B0104800215024022230
:101B300040230C250E4E0327BF03046241628162DD
:101B4000C762016301242705E405066044608760DD
:101B5000C560036142618161C161FFF7FDFD00283D
:101B600001D0FFF7C1FC01B0F0BDC0466401002008
:101B70000024004070B50446FFF772FD0546084E8C
:101B800020688068800608D4FFF76AFD401BB042D9
:101B9000F6D30120A063032070BD002070BDC046B5
:101BA000E903000005480168012008407047C0466D
:101BB0000248016801220A43026070470020024087
:101BC000024800688006C00F7047C0461C480040AD
:101BD00001480068C0B2704724480040012000025C
:101BE00007490A6802430A607047C0460320C002E2
:101BF00003490A6882430120C00210180860704738
:101C0000007000400120800432490A6802430A60E3
:101C10007047C046334801680C2008407047C046F2
:101C20000120000489490A6802430A607047C046DF
:101C3000864800688003C00F7047C0462548016889
:101C400001220A4302607047224800688007C00FE3
:101C50007047C046FD20000422490A6882438D2057
:101C600000041018086070470120000677490A68D0
:101C700002430A607047C046744800688001C00F84
:101C80007047C04617480168F022914301607047D1
:101C90000720000213490A6882430A607047C04661
:101CA0000720C0020F490A6882430A607047C04695
:101CB000032080020F490A6882430A607047C046C9
:101CC0000320000403490A688243012040041018DD
:101CD00008607047501002400248016803220A431E
:101CE000026070470C1002400248016803229143D1
:101CF000016070474C100240014908607047C046BF
:101D00000000002081B01F490A680092401C01D3E6
:101D10000020C043009A002804D00A68D203D217DA
:101D20001018FAD101B070477047704780B5FFF7BF
:101D300047FF00280DD0FFF74BFF06490A78064BF6
:101D40009854501C0870C0B2C008192801D3002054
:101D5000087080BD600100209800002070470000DE
:101D6000B0B5401E010E01D00120B0BD054D686028
:101D70000024E043032100F06DFAAC6007202860E6
:101D80002046B0BD10E000E07047000080B5FFF7CE
:101D90000FFFFFF707FF0128FBD1FFF727FFFFF732
:101DA0003FFFFFF745FF0128FBD1FFF747FFFFF794
:101DB0004BFF0128FBD1FFF711FFFFF781FFFFF772
:101DC00021FFFFF747FFFFF74FFFFFF755FF012800
:101DD000FBD1FFF757FFFFF75BFFFFF761FFFFF74F
:101DE0007BFFFFF717FF0C28FBD10748FFF784FFA5
:101DF0000020FFF751FC002801D0FFF775FBFFF72B
:101E000073FFFFF755FF80BD0048E8010120020283
:101E10000E490B6813430B60CA680D4B1340CB602F
:101E20000A680C4B13400B608A6882438A60820404
:101E30000B6893430B60FD221204CB689343CB6085
:101E400000220A61C0060449086070470010024081
:101E50000C40FF88F6FFF6FE08ED00E0F0B58BB011
:101E6000032951D80446880001A108588746C04676
:101E7000811E00082D1F0008B51F0008392000082A
:101E80000120C10720468843FEF77CFB02460B4633
:101E900008ADEAA12846FEF791F92878002800D17C
:101EA0000CE108A8007807900026DE4F11E0002121
:101EB0000A46FFF7E7FA3546DB49086838604868A4
:101EC00078606E1C08A8FEF73BFA0837864200D3FC
:101ED000F4E000252046294600F044FB002801D10B
:101EE000002E0BD008A8805D2E28E0D1751C08A814
:101EF000405D01210022FFF7C5FADDE701220798C6
:101F00002946FFF7BFFAD7E70024C64DCDA6C64F36
:101F1000305D00210A46FFF7B5FA38682860786816
:101F200068600835641C042CF2D1C7E00120C107A9
:101F300020468843FEF726FB02460B4608ADBDA1AE
:101F40002846FEF73BF92878002800D1B6E008A81B
:101F5000007807900026B34F11E000210A46FFF7F2
:101F600091FA3546B04908683860486878606E1C58
:101F700008A8FEF7E5F90837864200D39EE0002561
:101F80002046294600F0EEFA002801D1002E0BD0A1
:101F900008A8805D2E28E0D1751C08A8405D0121AD
:101FA0000022FFF76FFADDE7012207982946FFF7C5
:101FB00069FAD7E70120C10720468843FEF7E2FA15
:101FC00002460B4608AD99A12846FEF7F7F8287897
:101FD000002873D008A8007807900026914F10E0E1
:101FE00000210A46FFF74EFA35468F4908683860E7
:101FF000486878606E1C08A8FEF7A2F90837864288
:102000005CD200252046294600F0ACFA002801D118
:10201000002E0BD008A8805D2E28E1D1751C08A8E1
:10202000405D01210022FFF72DFADEE7012207982B
:102030002946FFF727FAD8E70120C1072046884341
:10204000FEF7A0FA02460B4608AD74A12846FEF73B
:10205000B5F82878002831D008A800780790002625
:10206000704F10E000210A46FFF70CFA35466E4922
:1020700008683860486878606E1C08A8FEF760F948
:10208000083786421AD200252046294600F06AFA0F
:10209000002801D1002E0BD008A8805D2E28E1D1A8
:1020A000751C08A8405D01210022FFF7EBF9DEE76F
:1020B000012207982946FFF7E5F9D8E70120C40374
:1020C000584E7168090321400294830305933268D6
:1020D000D2021A4051184503F26892022A40019533
:1020E000891803030493B26852021A4089184704FE
:1020F000726992033A40009789183269120180236D
:1021000003931A40891803020793F26952011A4097
:10211000891842020692B069830113400B434B4871
:1021200006214B4AFFF700FC7068400320403168ED
:102130000903059C21400818F168C902294040188C
:10214000B1688902049D294040187169C90339406A
:10215000401831694901039F39404018F1698901EC
:10216000079A11404018B169CB0106990B4003430F
:1021700004213648364AFFF7D7FB7068800302997E
:1021800008403168490321400818F1680903019AA1
:1021900011404018B168C90229404018716909040A
:1021A000009A114040183169890139404018F1699D
:1021B000C901079A11404018B1690B0206990B40FA
:1021C00003430221214C2046214D2A46FFF7ACFB58
:1021D0007068C00380B23168C907490C0818F168FB
:1021E000C907890C4018B168C907C90C4018716942
:1021F000C907890B40183169C901C9B24018F16992
:10220000C907C90D0143B069C007830D0B43002105
:1022100020462A46FFF788FB0BB0F0BD25342E3050
:1022200066000000780000207000002025352E3167
:102230006600000025352E326600000025352E335D
:10224000660000002045727200000000640100205A
:102250007F0CFDFF002805D40322034693430C4A5C
:102260009A1806E00F220240083A03239A43074BCC
:10227000D2188007C00E8901C9B28140FF23834074
:1022800010689843084310607047C0461CED00E09A
:1022900000E400E0FFF7EAF9FFF778FDFFF742FC02
:1022A000FFF79AFB024C2046FFF79CFBFBE7C0467A
:1022B000CD4C694343088B421AD3002203098B4259
:1022C00079D3030A8B425ED3030B8B4242D3030CB8
:1022D0008B4227D30902FF2212BA030C8B4202D38E
:1022E0001212090203D0030B8B4233D31AE0D3E05E
:1022F000411A8041401C704703460B4371D4430888
:102300008B42F5D3002203098B4254D3030A8B423C
:1023100039D3030B8B421DD3030C8B4202D394465B
:102320006EE0090AC30B8B4201D3CB03C01A5241A2
:10233000830B8B4201D38B03C01A5241430B8B4258
:1023400001D34B03C01A5241030B8B4201D30B0341
:10235000C01A5241C30A8B4201D3CB02C01A524168
:10236000830A8B4201D38B02C01A5241430A8B422B
:1023700001D34B02C01A5241030A8B4201D30B0214
:10238000C01A5241CDD2C3098B4201D3CB01C01A2E
:10239000524183098B4201D38B01C01A5241430938
:1023A0008B4201D34B01C01A524103098B4201D326
:1023B0000B01C01A5241C3088B4201D3CB00C01A93
:1023C000524183088B4201D38B00C01A524143080B
:1023D0008B4201D34B00C01A5241411A52411000A6
:1023E0007047CA0F00D04942031000D34042534007
:1023F00000229C4603098B422DD3030A8B4212D341
:102400008901FC2212BA030A8B420CD38901921172
:102410008B4208D3890192118B4204D3890137D0B2
:10242000921100E08909C3098B4201D3CB01C01A84
:10243000524183098B4201D38B01C01A5241430997
:102440008B4201D34B01C01A524103098B4201D385
:102450000B01C01A5241C3088B4201D3CB00C01AF2
:10246000524183088B4201D38B00C01A5241D9D20A
:1024700043088B4201D34B00C01A5241411A00D28B
:1024800001465241104663465B1000D340427047FC
:1024900063465B1000D3404201B50021004201D0E9
:1024A000C9430846C046C04602BDF8B5040C8BB20D
:1024B000264682B25E43104658430D0C370C360454
:1024C00000218019164679416E43370C3604801975
:1024D000264679416E438919F8BD00004900CA02B9
:1024E0000243100000D004204A0D01D00122104305
:1024F000044A490D914201D102210843012800D12B
:1025000005207047FF07000010B500F06BF8EFF3EF
:102510000080800001D5012010BD002010BD10B545
:1025200000F060F8EFF300804000800F012800D039
:10253000002010BD10B500F087F8EFF300804000D8
:10254000800F012801D0012010BD002010BD10B562
:1025500000F07AF8EFF30080800001D4012010BD74
:10256000002010BD10B500F0A1F8EFF3008080004E
:1025700001D5012010BD002010BD10B500F0C0F83D
:10258000EFF300804000800F012801D0012010BD32
:10259000002010BD10B500F0B3F8EFF3008080000C
:1025A00001D4012010BD002010BD30380A2801D20E
:1025B000012070470020704710B500290AD0087824
:1025C000002807D005487844FEF7A2FE002801D075
:1025D000002010BD0248784410BD000072020000C7
:1025E0006A02000070B501252D050C001C4310D4B3
:1025F000EC4206D4AC420AD4994200D070BD90425D
:1026000070BDE94217D4EB4215D4994270BD89429E
:1026100070BDEC4206D5AC42F9D58B4200D070BDFE
:10262000824270BD6D004C00EC4204D25C00EC4272
:1026300001D28B4270BD034C30B4FEF7BBFD30BC01
:1026400070BD00BF1900130470B501252D050C00E5
:102650001C4310D4EC4206D4AC420AD4994200D0B8
:1026600070BD904270BDE94217D4EB4215D4994237
:1026700070BD894270BDEC4206D5AC42F9D58B42A3
:1026800000D070BD824270BD6D004C00EC4204D29F
:102690005C00EC4201D28B4270BD034C30B4FEF7BB
:1026A00089FD30BC70BD00BF190016040123DB0595
:1026B00002000A430DD4DA4203D49A4207D4884276
:1026C0007047D84214D4D94212D48842704780420D
:1026D0007047DA4203D59A42F9D5814270475B00D0
:1026E0004200DA4204D24A00DA4201D28142704703
:1026F00010B5024AFEF7AEFD10BD00BF090013047D
:102700000123DB0502000A430DD4DA4203D49A42C6
:1027100007D488427047D84214D4D94212D4884290
:10272000704780427047DA4203D59A42F9D5814218
:1027300070475B004200DA4204D24A00DA4201D21A
:102740008142704710B5024AFEF784FD10BD00BFFC
:102750000900160403B402487844844603BC604769
:1027600019E0FFFF02400000000000A00000000090
:1027700005400000000000C8000000000C40000000
:102780000000409C00000000194000000020BCBE7A
:102790000000000034400000BFC91B8E0000000490
:1027A000B5400000504BCFD06607E2CF01000000DB
:1027B0006C4100003E8251AADFEEA7340100000008
:1027C000D9420000DCB5A0E23A301F97FFFFFFFFBF
:1027D000B4450000FD25A0C8E9A3C14FFFFFFFFFDE
:1027E000FF3F00000000008000000000FF3F0000ED
:1027F0000000008000000000BE00A000DA00F80029
:10280000E4007C007E00A800FE00FC00EE007600E4
:102810001E00F2005E004E00582800080000002054
:1028200010000000040100086828000810000020C3
:1028300098070000200100081C0000004300000071
:10284000F8FFFFFF0C0000000E0000000F0000006A
:102850002E00000000000000000020000100000029
:0828600004000000000000006C
:04000005080000C12E
:00000001FF
