:020000040800F2
:10000000B00800207D010008D1110008DF090008B8
:1000100000000000000000000000000000000000E0
:10002000000000000000000000000000E5120008D1
:100030000000000000000000D311000811130008A8
:100040008F0100088F0100088F0100088F01000850
:100050008F0100088F0100088F0100088F01000840
:100060008F0100088F0100088F0100088F01000830
:100070008F0100088F010008000000008F010008B8
:10008000000000008F0100080000000000000000D8
:100090008F010008000000008F0100088F01000898
:1000A0008F0100088F0100088F0100088F010008F0
:1000B0008F010008B91200088F0100088F010008A5
:1000C00000F002F800F04BF80CA030C808382418F3
:1000D0002D18671EA246AB4654465D46AC4201D180
:1000E00000F03DF87E460F3EB6460FCC0126334267
:1000F00000D0FB1A3343A246AB46184788170000CE
:10010000A8170000103A02D378C878C1FAD852076D
:1001100001D330C830C101D504680C6070470000BD
:100120000023002400250026103A01D378C1FBD813
:10013000520700D330C100D50B60704710B563295A
:1001400002D100F091F910BD732902D100F094F9A9
:1001500010BD002010BD1FB51FBD10B510BD00F0B3
:100160008FF91146FFF7F7FF01F0D6F900F0A7F974
:1001700003B4FFF7F2FF03BC00F0AEF90748804775
:1001800007480047FEE7FEE7FEE7FEE7FEE7FEE77B
:1001900004480549054A064B7047000091130008C2
:1001A000C1000008B0020020B0080020B004002008
:1001B000B0040020FEB5044610460D46184373D027
:1001C000A6468C460020A41A01469D4167D3664688
:1001D000002701243D46B61A9D4102D313463A46F4
:1001E0002124654676462F04360C3E432D0CB61A64
:1001F0009D4104D3150C1B042B4312041034654697
:1002000076462F06360A3E432D0AB61A9D4104D380
:10021000150E1B022B4312020834654676462F0743
:1002200036093E432D09B61A9D4104D3150F1B0113
:100230002B431201241D65467646AF07B6083E43A0
:10024000AD08B61A9D4104D3950F9B002B43920035
:10025000A41C65467646EF0776083E436D08B61A3D
:100260009D411AD392185B41641C16E00018764633
:1002700065464941B71A9D410191009009D36046F6
:10028000B11A98418E468446009801990025401C79
:100290006941DD0752082A435B08641EE6D57246B1
:1002A000634603B0F0BDFFE72046284307D0002097
:1002B000C0430146C046C04622462B46F1E7002017
:1002C0000146F7E70FB41CB5074B06AA7B44694605
:1002D0000090059800F0A5F80020694600F0B4F8F9
:1002E0001CBC08BC04B0184779010000F8B50E46E4
:1002F0000446002020622046E1688847002829D073
:10030000252802D06268A16820E0E1682046002725
:10031000884705001ED028464138192802D80127F1
:10032000FF0220353246204627602946FFF706FFA8
:10033000002808D0012804D0F61DF608F60008367B
:10034000D9E7361DD7E762682846A1689047206A3A
:10035000401CCFE7206AF8BD70B50C460546012A5F
:1003600005D02878800600D5EA69002302E0012341
:1003700005E05B1C934202D2E05C0028F9D1A86939
:10038000E618C01AA861286AC01828622846C04624
:10039000C04604E06A682078A968641C9047B442AB
:1003A000F8D32846C046C04670BD30B505460B465A
:1003B0002A461C781078521C5B1C002801D0A042F1
:1003C000F7D0002C03D0002802D06D1CEFE72846A0
:1003D00030BD01E004C0091F0429FBD28B0701D501
:1003E0000280801CC90700D00270704700290BD022
:1003F000C30702D00270401C491E022904D38307A0
:1004000002D50280801C891EE3E70022EEE700226D
:10041000DFE770477047704701694A1C026108783E
:10042000704700B58FB002910021059105490193F5
:1004300079440391114604906846FFF757FF0FB0C7
:1004400000BD0000E5FFFFFF0A681070521C0A6043
:10045000704710B54369002B02D0C046C04601E08A
:10046000FFF77AFF012010BD1278014624310A708F
:1004700000224A700122ECE711680022D243E8E72B
:10048000754600F025F8AE46050069465346C0089B
:10049000C000854618B020B5FFF77AFE60BCB646AE
:1004A00000260027C0C5C0C5C0C5C0C5C0C5C0C5E1
:1004B000C0C5C0C5403D490849008D46704710B5CC
:1004C0000446C046C0462046FFF752FE10BD00005D
:1004D000004870471000002001491820ABBEFEE71D
:1004E0002600020070470000F0B581B054A000F073
:1004F0005DFE4B208400204600F0F6FD544855492F
:10050000FFF753FF544F3860002808D1504D514E2B
:1005100028463146FFF749FF38600028F8D000F040
:1005200007FA4EA000F042FE204600F0DDFD4848EC
:100530005349FFF73AFF3860002808D1444D504E28
:1005400028463146FFF731FF38600028F8D000F028
:10055000EFF94CA000F02AFE204600F0C5FD3C4813
:100560004E49FFF722FF3860002808D1384D4B4E26
:1005700028463146FFF719FF38600028F8D064207C
:1005800000F0B2FD3868007C2C280CD039680023BC
:10059000D74A1D46D318732698556D1CEBB25818D0
:1005A000007C2C28F6D100F0C3F929483C49FFF71C
:1005B000FCFE3860002808D1254D394E28463146CA
:1005C000FFF7F3FE38600028F8D0642000F08CFDBF
:1005D0003868407C2C280CD039680023C44A1D465A
:1005E000D3187D2698556D1CEBB25818407C2C28EA
:1005F000F6D100F09DF97D20C00000F075FDBC4AE9
:100600007D32BC4D27492846FFF75CFE284600F0A6
:10061000CDFD204600F068FD0D481949FFF7C5FEE5
:100620003860002808D10A4C154D20462946FFF7AE
:10063000BCFE38600028F8D000F07AF901B0F0BDB7
:1006400041542B4D49504C4352454154450D0A00ED
:100650008D0100204C180008A802002041542B4DA9
:1006600049504C4144444F424A3D302C333332329E
:100670002C312C2231222C392C300D0A00000000A4
:100680008018000841542B4D49504C4F50454E3D69
:10069000302C3630302C36300D0A0000631800083C
:1006A00071180008DF170008F0B581B05C4800F051
:1006B0007DFD4B208400204600F016FD59485A4924
:1006C000FFF773FE594D286000F032F928680028C2
:1006D00012D1534D534E544F00F02AF9284600F0E2
:1006E00065FD204600F000FD30463946FFF75DFE0F
:1006F0004E4908600028EFD04DA000F057FD20467D
:1007000000F0F2FC4D4800F051FD204600F0ECFCFA
:1007100044484B49FFF749FE444D286000F008F972
:100720002868002812D1454D3E4E454F00F000F993
:10073000284600F03BFD204600F0D6FC3046394606
:10074000FFF733FE394908600028EFD03DA000F0E4
:100750002DFD204600F0C8FC324D33492846FFF7F6
:1007600024FE324E306000F0E3F83A4800F01EFDFF
:10077000204600F0B9FC38492846FFF716FE3060E5
:1007800000F0D6F83068002812D1324D254E324F95
:1007900000F0CEF8284600F009FD204600F0A4FC49
:1007A00030463946FFF701FE204908600028EFD0A7
:1007B0002AA000F0FBFC204600F096FC19482AA174
:1007C000FFF7F3FD1949086000280FD0C1790A220C
:1007D0004A43007A80181038254F3870302909D0E4
:1007E000C0B2632806D072200121395400F0A0F86D
:1007F00001B0F0BD1FA529A672200021395428465A
:1008000000F03CFE304600F0D1FC204600F06CFCCD
:10081000204600F069FC204600F066FCECE7C0468C
:10082000431800088D01002080180008A80200204D
:1008300041542B4346554E3D310D0A0039180008EE
:100840004818000841542B43474154543D310D0A88
:10085000000000002D1800085A18000841542B43CE
:100860004553510D0A0000002B4345535100000031
:1008700070000020E4BFA1E58FB7E6909CE7B4A22A
:10088000E5A4B1E8B4A5EFBC8CE8AFB7E69FA5E757
:100890009C8BE58E9FE59BA0210D0A0041542B4EB9
:1008A00052420D0A0000000070B5114A7332114C1B
:1008B00011A12046FFF706FD204600F077FC4B20F3
:1008C000800000F011FC21481749FFF76EFD174E1C
:1008D0003060002808D11D4C134D20462946FFF7F3
:1008E00064FD30600028F8D000F022F870BDC046EA
:1008F000700000205502002041542B4D49504C4EB1
:100900004F544946593D302C25732C333332322C09
:10091000302C353730302C342C342C322E33332CD1
:10092000302C300D0A00000080180008A8020020BA
:1009300010B5064C204600F0A1FDC8212046FFF767
:1009400064FD03480021017010BDC0468D010020E8
:10095000A5020020EFF3108072B6FEE710B55348F1
:10096000016840220A4302600024204600F00AF891
:10097000002802D00124204610BD00F027F82046B0
:1009800010BDC046B0B504467D20C0000C490978B2
:1009900000F01AFE01460B48006800F015FE00F05A
:1009A0001AF80125032C09D8002807D10025E843AF
:1009B00021462A4600F00BF8034804602846B0BDE3
:1009C000040000200000002008000020704780B5CF
:1009D00000F070FD80BD80B500F086FC80BDFEE7B4
:1009E000F0B589B0002608960796069605960496F7
:1009F000039600F0DFF80124204600F097F802206B
:100A0000019000F093F80420029000F08FF8079412
:100A100006960596049403940520070703AD38460F
:100A2000294600F045F80794069605960494019827
:100A300003903846294600F03BF807940696059641
:100A40000494029803903846294600F031F809B022
:100A5000F0BD000081B00120800405490A6802430E
:100A60000A60096801400091009801B07047C046D3
:100A70003810024081B00120800305490A68024312
:100A80000A60096801400091009801B07047C046B3
:100A90003410024005480168012008407047C046F4
:100AA0000248016801220A430260704700200240A8
:100AB000F0B581B005460868002833D00C46002701
:100AC0000EE062692846314600F040F86268284628
:100AD000314600F04DF87F1C20680146F94021D0D6
:100AE0000126BE400640F6D06068401E012809D8A5
:100AF000A2682846314600F053F8E268216828468B
:100B000000F03FF822692846314600F040F860685E
:100B10000228DBD1FF2ED4D862692846314600F086
:100B20000BF8D3E7002001B0F0BD000001490860D8
:100B30007047C04628000050494349434A430F23A9
:100B40004B43016A9943114301627047090A4943C3
:100B500049434A430F234B43416A9943114341623E
:100B600070470000014908607047C04618000050F7
:100B700049434A4303234B430168994311430160AE
:100B800070474A4343688B4313434360704749436C
:100B90004A4303234B43C16899431143C1607047E3
:100BA00049434A4303234B4381689943114381607E
:100BB0007047000081B00B480168012211430160B9
:100BC000006810400090009801B0704781B005485F
:100BD00001680222114301600068104000900098F3
:100BE00001B070472C1002400548016801220A43F9
:100BF000026070470248016820220A430260704781
:100C00000048004070B50E46054600F037F8012454
:100C1000002801D0204670BD286810490140706846
:100C20000843F1680143306908432860B1682846E9
:100C300000F047F87169284600F03CF80320800274
:100C400000F072F80028E5D03268002AE2D00146B0
:100C5000284600F01DF80024204670BDF3E9FFEFA0
:100C6000054800688006C00F7047C046024800680B
:100C70004006C00F7047C0461C4800400168012074
:100C80000840704701480068C0B2704724480040DF
:100C9000B0B504460D0E50080902002308185D4146
:100CA0002946FFF787FA02490140E160B0BDC0461E
:100CB000FFFF0F0003221202836893430B438360FC
:100CC000704703221203436893430B43436070470A
:100CD000014908607047C046284800400320C00210
:100CE00003490A6882430120C00210180860704757
:100CF0000070004001208004A6490A6802430A608F
:100D00007047C046A7480168F02008407047C046B9
:100D100007200102A3480068084070470720C1026D
:100D2000A04800680840704780B500F027F80A2105
:100D3000C841032806D002280AD0012812D100F0A9
:100D40006DFA80BD00F0B8F8411E8841C00380BD37
:100D500000F0A6F800280CD000F0A8F800280AD06F
:100D6000434880BD00F05AFA00F034FA00F040FA2F
:100D700080BD002080BD3D4880BDC0468D490968CA
:100D800008407047874801680C2008407047C046FB
:100D9000844801680C2008407047C046B0B505463D
:100DA0000024032829D1032000F066F82C4988424A
:100DB00008D02C4988420DD02B49884216D100F02A
:100DC0002DFA19E000F078F8411E8841C4030C2D7B
:100DD0003ED114E000F064F800280ED000F066F870
:100DE000002837D0224C0C2D32D108E000F016FA42
:100DF00000F0F0F900F006FA04460C2D28D10C2082
:100E000000F03AF81B4940180221C841032806D0D7
:100E100002280CD0012814D100F000FAB0BD00F077
:100E20004BF8002801D00120C4032046B0BD00F0DB
:100E300037F800280CD000F039F800280ED00C4804
:100E4000B0BD00F0EBF900F0C5F900F0D1F90446AF
:100E50002046B0BD054C0C2DFAD1D0E70348B0BDFB
:100E60000300030002000300010003000024F4005B
:100E700000093D000000F4FF4E49096801400004EC
:100E800008437047012000042D490A6802430A60A4
:100E90007047C0462A4800688003C00F7047C046AC
:100EA000274800684007C00F7047C04624480068C4
:100EB000C006C00F7047C046364800688005C00FA6
:100EC0007047C0463348016801220A4302607047F8
:100ED000304800688007C00F7047C04607204103B4
:100EE000014800680840704704100240FD200004DB
:100EF0002C490A6882438D2000041018086070474E
:100F0000012000060E490A6802430A607047C04685
:100F10000320810523480068084070470120010430
:100F200020480068084070470F2081041D48006871
:100F300008407047024800688001C00F7047C046F3
:100F40000010024017480168F02291430160704789
:100F50000720000213490A6882430A607047C046AE
:100F60000720C0020F490A6882430A607047C046E2
:100F7000032080020F490A6882430A607047C04616
:100F80000320000403490A6882430120400410182A
:100F900008607047501002400248016803220A436B
:100FA000026070470C10024002480168032291431E
:100FB000016070474C100240014908607047C0460C
:100FC000000000200920C00204490A6882430A6028
:100FD00048682A22904348607047C0460438014060
:100FE0002048016801220A430260704770B50E462E
:100FF000054600F043F80124002801D0204670BDCA
:1010000028681749014070680843F1680143306956
:101010000843B16901432960B168284600F057F8D8
:101020007169284600F04CF80E48854204D00E48FD
:10103000854208D10C2000E00320FFF7AFFE0146F7
:10104000002903D1DAE700210029D7D03368002B2B
:10105000D4D0B269284600F015F80024204670BDAF
:10106000F369FFEF00380140004400400248006887
:101070004006C00F7047C0461C380140016801207F
:101080000840704710B504460120C00382420CD1CD
:10109000480059080818194600F096FA0749014017
:1010A0000007400F4018E06010BD5808401819466E
:1010B00000F08AFA80B2E06010BDC046F0FF000088
:1010C00003221202836893430B4383607047032219
:1010D0001203436893430B43436070470149086020
:1010E0007047C0462838014081B088490A6800929C
:1010F000401C01D30020C043009A002804D00A6895
:10110000D203D2171018FAD101B07047F0B58FB0E2
:1011100000240E940D940C940B940A940994089452
:1011200007940694059404940394FFF793FCFFF747
:101130004DFD04200290089007940694032001902E
:101140000590022704970125A8020390C94803AE21
:101150003146FFF7ADFC0298089007940694019879
:1011600005900497E8020390C2483146FFF7A0FCBF
:101170001D252846214600F0BBF9284600F090F9CD
:101180000E940C200D900C940B940A944B20C001EB
:101190000990054809A9FFF735FDFFF725FDFFF781
:1011A00029FD0FB0F0BDC0460048004010B5044610
:1011B000007800280BD0FFF759FD0128FBD12078DB
:1011C000FFF786FD601C617800290446F3D110BD4D
:1011D0007047704710B50446FFF794FD0006000FF6
:1011E0000249085CC440204610BDC046BE17000836
:1011F00010B50446FFF78CFD000A0749085CC4409F
:10120000204610BD10B50446FFF788FDC00A02490C
:10121000085CC440204610BDCE17000810B5FFF78B
:10122000B1FD0221C84103280ED81F4C7844007933
:101230004000874401110F1701200404FFF74EFE00
:10124000400B8440204610BD01200404FFF746FEF9
:10125000400B8440204610BDFFF728FE002804D034
:10126000134810BD00F004F810BD104810BDC04672
:10127000B0B5FFF753FE002801D00B4D06E0FFF795
:1012800015FE002801D00A4D00E0084DFFF74CFE86
:10129000800C08490C5C6C43FFF73AFE800D411C42
:1012A000204600F091F9B0BD001BB7000024F40007
:1012B00000093D00D617000880B5FFF7D1FC0028D3
:1012C0000DD0FFF7DFFCBF490A78054B9854501C3E
:1012D0000870C0B2C008192801D30020087080BD72
:1012E0008D01002070470000B0B5401E010E01D0F6
:1012F0000120B0BD054D68600024E043032100F0EB
:10130000D9F8AC60072028602046B0BD10E000E0AE
:101310007047000080B5FFF7C3FBFFF7BBFB012858
:10132000FBD1FFF7DBFCFFF7ADFDFFF7B3FD0128B5
:10133000FBD1FFF7C7FDFFF7CBFD0128FBD1FFF77E
:101340001FFEFFF7D7FCFFF7D1FDFFF7D9FDFFF731
:10135000F1FD0128FBD1FFF7F5FDFFF7F9FDFFF7E0
:10136000FFFDFFF719FEFFF713FD0C28FBD107481F
:10137000FFF722FE0020FFF705FB002801D0FFF752
:10138000E9FAFFF711FEFFF7F3FD80BD0048E80121
:10139000012002020E490B6813430B60CA680D4B13
:1013A0001340CB600A680C4B13400B608A68824381
:1013B0008A6082040B6893430B60FD221204CB68A1
:1013C0009343CB6000220A61C0060449086070475D
:1013D000001002400C40FF88F6FFF6FE08ED00E02A
:1013E000F0B58DB000260C960B960A9609960896D5
:1013F0000796069605960496039602960196009621
:10140000FFF738FBFFF7E2FB0596049603960327E8
:101410000297022401944020009016486D46294608
:10142000FFF746FB059604960396029701948020E9
:10143000009010482946FFF73BFB1B240121204662
:1014400000F056F8204600F02BF80C960B960C2076
:101450000A900996089607964B20C0010690064808
:1014600006A9FFF7C3FDFFF7ADFDFFF7B9FD0DB00E
:10147000F0BDC046000400500038014010B50446DD
:10148000007800280BD0FFF7F1FD0128FBD1207870
:10149000FFF724FE601C617800290446F3D110BDDB
:1014A0001F21014001208840014908607047C04663
:1014B00000E100E0002805D4032203469343154AC7
:1014C0009A1806E00F220240083A03239A43074B7A
:1014D000D2188007C00E8901C9B28140FF23834022
:1014E00010689843084310607047C0461CED00E048
:1014F00010B5C0B28207D20EFF239340054C0019ED
:101500000324A04304689C438901C9B2914021434C
:10151000016010BD00E400E0FFF720FAFFF7FAFEDB
:10152000FFF75EFAFFF75CFF7D25E800FFF7DCFDC3
:1015300014A0FFF7A3FFFFF7E9FD0220FFF712FB5E
:101540000420FFF70FFB12A0FFF798FFFFF7ACF89E
:1015500012A0FFF793FFFEF7C7FF134E13A4194F16
:10156000FFF7A2F93078401C30702801FFF7BCFD6E
:1015700030787828F4D32046FFF718FE002030702A
:101580003870EDE7757361727431206F6B0D0A006E
:101590006C7075617274206F6B0D0A0042433238B3
:1015A000206F6B0D0A000000AC02002041542B4D4F
:1015B00049504C5550444154453D302C3630302C28
:1015C000300D0A00A502002043088B421AD30022E6
:1015D00003098B4279D3030A8B425ED3030B8B4200
:1015E00042D3030C8B4227D30902FF2212BA030C09
:1015F0008B4202D31212090203D0030B8B4233D366
:101600001AE0D3E0411A8041401C704703460B4367
:1016100071D443088B42F5D3002203098B4254D383
:10162000030A8B4239D3030B8B421DD3030C8B422D
:1016300002D394466EE0090AC30B8B4201D3CB035D
:10164000C01A5241830B8B4201D38B03C01A524103
:10165000430B8B4201D34B03C01A5241030B8B4205
:1016600001D30B03C01A5241C30A8B4201D3CB02F0
:10167000C01A5241830A8B4201D38B02C01A5241D5
:10168000430A8B4201D34B02C01A5241030A8B42D8
:1016900001D30B02C01A5241CDD2C3098B4201D3F0
:1016A000CB01C01A524183098B4201D38B01C01A6E
:1016B000524143098B4201D34B01C01A52410309E5
:1016C0008B4201D30B01C01A5241C3088B4201D394
:1016D000CB00C01A524183088B4201D38B00C01A41
:1016E000524143088B4201D34B00C01A5241411A68
:1016F000524110007047CA0F00D04942031000D376
:101700004042534000229C4603098B422DD3030ADA
:101710008B4212D38901FC2212BA030A8B420CD3EA
:10172000890192118B4208D3890192118B4204D313
:10173000890137D0921100E08909C3098B4201D396
:10174000CB01C01A524183098B4201D38B01C01ACD
:10175000524143098B4201D34B01C01A5241030944
:101760008B4201D30B01C01A5241C3088B4201D3F3
:10177000CB00C01A524183088B4201D38B00C01AA0
:101780005241D9D243088B4201D34B00C01A524177
:10179000411A00D201465241104663465B1000D305
:1017A0004042704763465B1000D3404201B50021C0
:1017B000004201D0C9430846C046C04602BD0000F1
:1017C00000000000000001020304060708090000F1
:1017D000000001020304030406080C101820304125
:1017E000542B4D49504C444953434F564552525344
:1017F000503D302C25732C312C34342C223536308E
:10180000313B353630323B353630333B353630348C
:101810003B353630353B353730303B353730313B73
:10182000353735303B35383231220D0A0041542BE3
:1018300043474154543F0D0A0041542B43494D49FD
:101840000D0A0041540D0A00343630002B4D49502A
:101850004C4352454154453A30002B434741545480
:101860003A31002B4D49504C4F4253455256453A60
:10187000002B4D49504C444953434F5645523A0072
:101880004F4B0000A81800080000002010000000C6
:1018900004010008B818000810000020A00800008B
:1018A00020010008000000000000200001000000EE
:0818B00004000000000000002C
:04000005080000C12E
:00000001FF
