:020000040800F2
:1000000018040020D900000829090008710200081E
:1000100000000000000000000000000000000000E0
:10002000000000000000000000000000750A000849
:1000300000000000000000002B090008770A0008FB
:10004000EB000008EB000008EB000008EB000008E4
:10005000EB000008EB000008EB000008EB000008D4
:10006000EB000008EB000008EB000008EB000008C4
:10007000EB000008EB00000800000000EB000008A7
:1000800000000000EB00000800000000000000007D
:10009000EB00000800000000EB000008EB00000887
:1000A000EB000008EB000008EB000008EB00000884
:1000B000EB000008EB000008EB000008EB00000874
:1000C0000448854600F03EF800480047050F000848
:1000D000C046C04618040020044880470448004732
:1000E000FEE7FEE7FEE7FEE7FEE7FEE7450C000859
:1000F000C100000830B50B46014600202022012433
:1001000009E00D46D5409D4205D31D469540491B4B
:100110002546954040191546521E002DF1DC30BD94
:10012000D2B201E00270401C491EFBD2704700228F
:10013000F6E710B513460A4604461946FFF7F0FFE6
:10014000204610BD064C0125064E05E0E36807CCAD
:100150002B430C3C98471034B442F7D3FFF7B4FF5D
:10016000940F0008B40F000872B600BFFEE700004D
:1001700010B500240848006840210843064908607B
:10018000002000F00BF8002801D0012401E000F06D
:100190002FF8204610BD00000020024070B5044634
:1001A000104801787D20C000FFF7A4FF06463146C5
:1001B0000D480068FFF79EFF054600F03DF8002857
:1001C00001D0012070BD042C07D200222146501E10
:1001D00000F010F80548046001E00120F2E700207B
:1001E000F0E700000C0000200000002008000020C4
:1001F0007047000070B505460C461646102C00D21C
:1002000003E0872103A000F06FFE2146284600F09E
:10021000D5FD70BD2E2E5C46574C49425C5372632F
:100220005C73746D33326C3078785F68616C5F63D7
:100230006F727465782E630070B504462546681E9B
:100240000949884201D901200CE0681E074948612C
:100250000321081F00F0B2FD002004498861072037
:100260000861002070BD0000FFFFFF0000E000E01B
:1002700000BFFEE700B589B0002007900890182164
:1002800001A8FFF754FF01202249C96A0143214A0E
:10029000D1621146C96A0140009100BF00BF01212F
:1002A0000520000700F048F902210520000700F0B2
:1002B00043F904210520000700F03EF901200190D8
:1002C00002900020039004900120059001A90520D0
:1002D000000700F021F80220019001200290002088
:1002E000039004900120059001A90520000700F06B
:1002F00013F8042001900120029000200390049044
:100300000120059001A90520000700F005F809B0BB
:1003100000BD000000100240F8B506460C4600275C
:1003200000250520000786420BD07548864208D07C
:100330007448864205D07448864202D0734886428B
:1003400000D103E0A32172A000F0CEFD20680028B8
:1003500004D978492068884200D803E0A4216CA021
:1003600000F0C2FD6068002808D06068012805D050
:100370006068022802D06068032800D103E0A5214C
:1003800063A000F0B1FD2069002805D02069012894
:1003900002D02069022800D103E0A6215CA000F071
:1003A000A3FDA6E00121B940206808400546002DC4
:1003B00079D06068012802D06068022832D1A06834
:1003C000002808D0A068012805D0A068022802D023
:1003D000A068032800D103E0B7214DA000F084FD00
:1003E000A068B1682A466A435300D21891432A464E
:1003F0006A4342431143B16000BFE068002802D065
:10040000E068012800D103E0BD2141A000F06CFDAF
:10041000E16820687268824303464B431A43726066
:1004200000BF00BF2069F1682A466A435300D21812
:1004300091432A466A4342431143F16000BF60681A
:10044000022847D16069002814D06069012811D0C2
:10045000606902280ED0606903280BD06069042807
:1004600008D06069052805D06069062802D0606957
:10047000072800D103E0C92125A000F035FDFF2D9C
:1004800012D86069316A2A466A436A436A43130193
:100490009A1A91432A466A436A436A434243114384
:1004A000316200BF16E023E06369280A4043290A4D
:1004B0004843290A48430101091A706A8843290AF6
:1004C00049432A0A51432A0A514359430843706257
:1004D00000BF00BF606831682A466A435300D218E3
:1004E00091432A466A4342431143316000BF00BF33
:1004F0007F1C2068F840002800D053E7F8BD0000BA
:100500000004005000080050000C0050001C005077
:100510002E2E5C46574C49425C5372635C73746D7B
:1005200033326C3078785F6C6C5F6770696F2E6304
:1005300000000000FFFF000081627047816170478A
:10054000F8B504460025032C01D00C2C00D103E0A3
:10055000FC2134A000F0C8FC032C2FD1204600F071
:1005600075F82104401A1ED0012804D0022806D0B4
:10057000032817D10FE000F00FFA05461DE000F048
:100580006FF8002806D000F073F8002801D02D4D38
:1005900000E02D4D11E000F073F8002801D0012596
:1005A000ED030AE000BF00F0F7F9074600F0BEF9DE
:1005B000064600F0DFF9054600BF00BF0C2C2FD126
:1005C000204600F043F82104401A1ED0042804D02D
:1005D000082806D00C2817D10FE000F0DDF90546F9
:1005E0001DE000F03DF8002806D000F041F800289A
:1005F00001D0144D00E0144D11E000F041F8002846
:1006000001D00125ED030AE000BF00F0C5F907465F
:1006100000F08CF9064600F09BF9054600BF00BFCC
:100620002846F8BD2E2E5C46574C49425C537263F7
:100630005C73746D33326C3078785F6C6C5F7263AE
:10064000632E630000093D000024F40001460348C6
:10065000C06808400A041043704700004010024080
:1006600002480068042108408008704700100240DA
:10067000024800681021084000097047001002403D
:1006800003480069012149020840400A7047000000
:100690004010024002484068072149030840704763
:1006A000001002400149086070470000000000206F
:1006B000F0B585B005460C4601200490002003905B
:1006C0007A48854202D07A48854200D103E0C721AA
:1006D00078A000F009FC80492068884200D803E037
:1006E000C82174A000F000FC01210907606888425D
:1006F00006D06068002803D009146068884200D1E1
:1007000003E0C9216BA000F0EFFB01210903A06801
:1007100088420CD0A068002809D003210903A068F2
:10072000884204D001214903A068884200D103E037
:10073000CA2160A000F0D8FBE068002809D00121A0
:100740008902E068884204D003214902E0688842B7
:1007500000D103E0CB2157A000F0C6FB20690028A0
:1007600008D02069042805D02069082802D0206913
:100770000C2800D103E0CC214EA000F0B5FB60694D
:1007800000280DD0FF2101316069884208D049005E
:100790006069884204D0032109026069884200D15F
:1007A00003E0CD2143A000F09FFBA069002804D006
:1007B0000121C903A069884200D103E0CE213DA0F8
:1007C00000F092FB284600F08DF800286BD1E1681C
:1007D0006068084321690843A169084329683F4AC2
:1007E000114008432860A0686968032212039143FE
:1007F0000143696000BF6069A96812119143014318
:10080000A96000BF2948854204D10320FFF798FE64
:10081000039006E02648854203D10C20FFF790FEA6
:100820000390039800283ED0206800283BD0002089
:100830000490039FA069029026680121C9030298D1
:10084000884214D17900720888183146FFF752FCAB
:1008500080B2019022490198084000900198000759
:10086000400F0099084300900098E86006E0710886
:10087000C8193146FFF73EFC80B2E86000BFE86867
:10088000102800D304E0FF2124310AA000F02CFB43
:10089000E86813490F31884200D804E0FF2127316E
:1008A00004A000F021FB049805B0F0BD0038014021
:1008B000004400402E2E5C46574C49425C53726304
:1008C0005C73746D33326C3078785F6C6C5F757309
:1008D0006172742E6300000000093D00F369FFEFB0
:1008E000F0FF000001460868C007C00F0122504019
:1008F000504070478162704708B50A490969009104
:1009000000BF411C002900D0401C07E005490969CF
:10091000012212041140002900D0401E0028F5D108
:1009200008BD000000E000E070477047014600BFCE
:100930000548C068F022104010400009034A125CCC
:100940000846D0407047000000100240700F0008B9
:10095000014600BF0548C068072212021040000A85
:10096000034A125C0846D040704700000010024065
:10097000800F0008014600BF0548C0680722D20268
:100980001040C00A034A125C0846D040704700007D
:1009900000100240800F000810B500BF1648C06864
:1009A0000C210840002806D004280CD0082812D0BA
:1009B0000C2816D111E0FFF76DFE400B401C012101
:1009C0008140CC0315E0FFF753FE002801D00B4C0B
:1009D00000E00B4C0DE00B4C0BE000F015F804466A
:1009E00007E0FFF757FE400B401C01218140CC037C
:1009F00000BF00BF204610BD0010024000093D00AE
:100A00000024F400001BB700F8B500BF1448C0680C
:100A10000121090408400546002D07D1FFF728FEF3
:100A2000002801D00F4C00E00F4C01E00F4C00BF3C
:100A300000BF00BF0A48C068032189050840800D37
:100A4000461C0748C0680F2189040840800C0849EB
:100A5000085C604307463146FFF74CFBF8BD0000D9
:100A60000010024000093D000024F400001BB70004
:100A7000880F00087047704710B501206D4909685C
:100A8000814301436B4A116000BF00BF00BF69484A
:100A90000068C007C00F0028F8D00120C0026649D6
:100AA00009680322D20291430143634A116000BFE7
:100AB00000BF624800680121090408435F490860DB
:100AC00000BF00BF00BF5D48006801214904084025
:100AD000400C0028F6D000BF574800684912084370
:100AE0005549086000BF002054494031096903227C
:100AF000D20291430143514A4032116100BF00BF0D
:100B000010460069911508431146086100BF00BFF7
:100B100000BF4A4840300069012149020840400AAC
:100B20000028F5D0C8014549403109690322120463
:100B300091430143414A4032116100BF00BF10465A
:100B400000690121890408431146086100BF0120A2
:100B5000000403218904C201384BDB68FD2424040E
:100B6000A34304460C4314432343344CE36000BFC7
:100B700000BF20460068510008432146086000BFBE
:100B800000BF00BF2D480068012149060840400E03
:100B90000028F6D000202949C968F022914301437A
:100BA000264AD16000BF00BF1146C9680722120261
:100BB00091430143214AD16000BF00BF1146C9687B
:100BC0000722D202914301431C4AD16000BF032097
:100BD0001146C96881430143D16000BF00BF00BF17
:100BE0001648C0680C2108400C28F8D11448FFF7BB
:100BF00059FD0020FFF7D2FA002801D0FFF7B4FA20
:100C0000032000040D494031C968020C914382B2AF
:100C100011430A4A4032D16000BF00201146C96822
:100C20000322920291430143044A4032D16000BF43
:100C300010BD000000200240007000400010024083
:100C40000048E80115480068FF21013108431349B5
:100C500008600846C068124908401049C860084644
:100C60000068104908400D4908600846806840083F
:100C700040008860084600680121890488430749CC
:100C800008600846C068FD21090488430349C8601C
:100C900000200861C80304498860704700100240C2
:100CA0000C40FF88F6FFF6FE00ED00E000B58FB0C7
:100CB0001C2108A8FFF73BFA182102A8FFF737FA12
:100CC000012080033449496B0143334A5163114683
:100CD000496B0140019100BF00BF02201146C96A63
:100CE0000143D1621146C96A0140019100BF00BFB2
:100CF00040200290022003900320049000200590E1
:100D00000690079002A92548FFF706FB8020029075
:100D10000220039003200490002005900690079085
:100D200002A91E48FFF7F8FA01211B2000F082F803
:100D30001B20002805DBC206D20E01219140184A73
:100D4000116000BF4B20C0010890002009900A905C
:100D50000B900C200C9000200D900E9008A91148CB
:100D6000FFF7A6FC00BF0F4840680921C90288436D
:100D70000C494860084680682A21884309498860F0
:100D800000BF00BF0846006801210843054908600C
:100D900000BF0FB000BD0000001002400004005072
:100DA00000E100E00038014010B5024A024900F0BD
:100DB0008CF810BDED0E00081000002010B50028C2
:100DC00019DB1A4A03231B02D21883089B00D2584E
:100DD0008307DC0EFF23A3409A438B071B0E840777
:100DE000E40EA3401A43114B032424021B19840868
:100DF000A4001A5118E00E4A03071B0F083B9B087A
:100E00009B00D2588307DC0EFF23A3409A438B0735
:100E10001B0E8407E40EA3401A43054B0407240F5E
:100E2000083CA408A4001A5110BD000000E100E035
:100E30001CED00E010B5002819DB1A4A03231B0241
:100E4000D21883089B00D2588307DC0EFF23A340EF
:100E50009A438B071B0E8407E40EA3401A43114BE1
:100E6000032424021B198408A4001A5118E00E4A16
:100E700003071B0F083B9B089B00D2588307DC0E1F
:100E8000FF23A3409A438B071B0E8407E40EA34065
:100E90001A43054B0407240F083CA408A4001A5168
:100EA00010BD000000E100E01CED00E002E008C819
:100EB000121F08C1002AFAD170477047002001E0D4
:100EC00001C1121F002AFBD17047F8B516460F4624
:100ED0000446002503E03946B047641C6D1C2078A9
:100EE0000028F8D12846F8BD7047000070B50446C8
:100EF0000D46E1B20248FFF7FDFC204670BD000040
:100F000000380140FFF734F9FFF7B6FDFFF7B2F9FB
:100F1000FFF7CCFE012105200007FFF70FFB0221A0
:100F200005200007FFF70AFB042105200007FFF753
:100F300005FB15E0FF20F530FFF7DEFC09A0FFF709
:100F400033FF042105200007FFF7F8FAFF20F530F2
:100F5000FFF7D2FC042005210907886200BF00BF0B
:100F6000E8E70000776F7368616E2F722F6E0000E4
:100F70000000000000000000010203040607080949
:100F80000000000001020304030406080C101820EE
:100F900030000000B40F0008000000201400000022
:100FA000AC0E0008C80F0008140000200404000064
:100FB000BC0E00080000200000000000040000003B
:080FC000010000000000000028
:04000005080000C12E
:00000001FF
