:020000040800F2
:10000000B0080020E9010008C9250008611A0008AD
:1000100000000000000000000000000000000000E0
:10002000000000000000000000000000E1260008C1
:100030000000000000000000CB2500080D2700088C
:10004000FB010008FB010008FB010008FB010008A0
:10005000FB010008FB010008FB01000885190008EE
:10006000FB010008FB010008FB010008FB01000880
:10007000FB010008FB01000800000000FB01000874
:1000800000000000FB01000800000000000000006C
:10009000FB01000800000000FB010008FB01000854
:1000A000FB010008FB010008FB010008FB01000840
:1000B000FB010008B1260008FB010008FB01000855
:1000C00000F002F800F081F80CA030C808382418BD
:1000D0002D18671EA246AB4654465D46AC4201D180
:1000E00000F073F87E460F3EB6460FCC0126334231
:1000F00000D0FB1A3343A246AB461847B82C000089
:10010000D82C0000103A02D378C878C1FAD8520728
:1001100001D330C830C101D504680C6070470000BD
:100120000023002400250026103A01D378C1FBD813
:10013000520700D330C100D50B60704710B56E294F
:1001400002D100F0A1F910BD702902D100F06BFAC4
:1001500010BD692902D100F061F910BD642902D1F6
:1001600000F05CF910BD752902D100F057F910BDFF
:100170006F2902D100F0FAF910BD782902D100F000
:1001800045FA10BD0368DB0901D3802319436329B5
:1001900002D100F07BFF10BD732902D100F07EFF79
:1001A00010BDE32902D100F088FF10BD002010BD72
:1001B0001FB500F0CBFF04000020002102F03CFD41
:1001C000401C60601FBD10B510BD00F0C7FF114698
:1001D000FFF7EEFF02F0F4FB00F0DFFF03B4FFF7E0
:1001E000F2FF03BC01F03AF8074880470748004790
:1001F000FEE7FEE7FEE7FEE7FEE7FEE70448054907
:10020000054A064B704700009D270008C100000802
:10021000B0020020B0080020B0040020B00400208C
:10022000FEB5044610460D46184373D0A6468C46CC
:100230000020A41A01469D4167D366460027012489
:100240003D46B61A9D4102D313463A4621246546DF
:1002500076462F04360C3E432D0CB61A9D4104D32E
:10026000150C1B042B4312041034654676462F06EA
:10027000360A3E432D0AB61A9D4104D3150E1B02C1
:100280002B4312020834654676462F0736093E4353
:100290002D09B61A9D4104D3150F1B012B431201E2
:1002A000241D65467646AF07B6083E43AD08B61A2C
:1002B0009D4104D3950F9B002B439200A41C6546DF
:1002C0007646EF0776083E436D08B61A9D411AD36D
:1002D00092185B41641C16E0001876466546494159
:1002E000B71A9D410191009009D36046B11A984117
:1002F0008E468446009801990025401C6941DD071F
:1003000052082A435B08641EE6D57246634603B072
:10031000F0BDFFE72046284307D00020C043014638
:10032000C046C04622462B46F1E700200146F7E7CB
:100330000FB41CB5074B06AA7B446946009005988C
:1003400000F081FE0020694600F090FE1CBC08BC55
:1003500004B01847310D000070B504468569006887
:10036000C10601D5302600E02026C00707D070BDA9
:1003700062683046A1689047206A401C20626D1E6A
:10038000F6D570BD70B5044685690078C00707D101
:1003900070BD6268A16820209047206A401C2062DE
:1003A0006D1EF6D570BD09684A0501D540B270478B
:1003B000C905FCD500B2704709684A0501D5C0B22D
:1003C0007047C905FCD580B2704770B50C4605462C
:1003D000012A05D02878800600D5EA69002302E0CA
:1003E000012305E05B1C934202D2E05C0028F9D1B6
:1003F000A869E618C01AA861286AC01828622846A9
:10040000FFF7AAFF04E06A682078A968641C904797
:10041000B442F8D32846FFF7B5FF70BDF7B5002505
:1004200075291068009914A611D0FFF7BCFF0028A9
:1004300002DA404211A608E0009909688A0701D54E
:100440000FA602E0490704D50EA6012501E0FFF73B
:10045000B3FF009F0024243704E000F05BFE30313E
:100460003955641C0028F8D12B46324621460098A5
:1004700000F08CFDFEBD0000000000002D0000001B
:100480002B0000002000000011680268006A53057C
:1004900001D5087009E0D30501D5088005E01306F1
:1004A00002D5C21705C100E00860012070470000B6
:1004B000F7B50446154686B02B487844002703C894
:1004C0003E460090019111E007986A467100415A3A
:1004D00002A800F0FEFD411C07D02178890603D553
:1004E000E269391891420ED83F18761C20788006B0
:1004F00002D5E069B84206DDAE42E5DB079871003F
:10050000405A0028E0D1A069C01BA0612046FFF737
:1005100023FF154878445A3803C800900020019101
:1005200016E041006A460798415A02A800F0D1FD42
:100530000590401C0AD0002505E0626802A8A16869
:10054000405D90476D1C05988542F6D30498401C89
:10055000B0420490E5DB206AC01920622046FFF714
:1005600011FF09B0F0BD0000A627000070B50446D9
:1005700021461068FFF720FF00212546243505E0BD
:100580004207C008520F30326A54491C0028F7D184
:100590002068002307A2050708D520252840084326
:1005A00004D0E069012304A2401EE061204600F06F
:1005B000EDFC70BD000000003000000070B50D467D
:1005C0000188090502D51D4C7C4402E01B4C7C448B
:1005D0000E3403460021243305E016071209360FB6
:1005E000A65D5E54491C002AF7D102780023120749
:1005F00005D5702D07D0002901D0022311342246E1
:1006000000F0C4FC70BD01231034F8E770B5044657
:100610000D4621461068FFF7CFFE024629462046C8
:10062000FFF7CCFF70BD30B4036820241268234369
:1006300003600823C36130BCC0E70000A0260000AF
:10064000F3B50446002081B020622046E168884767
:10065000002872D0252802D06268A168ABE0594F0B
:1006600000267F442046E16888472028054608DBAD
:10067000312D06D2781920380078002801D00643A1
:10068000F0E7B00701D5042086430020E06107466B
:10069000A0612A2D0AD0284602F0C7FA002827D0E8
:1006A000B8000019303D0090856119E00298BA0049
:1006B000121902C8916102902046E1688847012F13
:1006C000054617D1E06900281FDA202086431CE088
:1006D00000980A21806948430099401930388861A0
:1006E0002046E1688847054602F09FFA0028EFD1CE
:1006F000012F0AD02E2D08D12046E16888470546F3
:10070000202006437F1C022FC3DBA069002803DAE8
:100710004042A06101200643F00701D0102086432B
:100720006C2D0BD0682D09D04C2D3CD06A2D38D0C3
:10073000742D38D07A2D36D016E040E0E1682F468F
:1007400020468847B842054609D16C2F29D00120A0
:100750008002E168064320468847054604E06C2F86
:100760001DD0FF2001300643002D28D028464138F7
:10077000192803D80120C0020643203520462660F0
:100780002946029A1646FFF7D9FC002810D0012806
:100790000BD0F61DF008C0000830029055E740204D
:1007A000E1E78020D5E70020D3E7361D02964CE72D
:1007B00062682846A1689047206A401C44E7206A86
:1007C000FEBD00002E26000030B505460B462A4629
:1007D0001C781078521C5B1C002801D0A042F7D076
:1007E000002C03D0002802D06D1CEFE7284630BD56
:1007F00001E004C0091F0429FBD28B0701D5028048
:10080000801CC90700D00270704700290BD0C307B5
:1008100002D00270401C491E022904D3830702D56E
:100820000280801C891EE3E70022EEE70022DFE75A
:100830007047704770470000F0B5F94D0C091E096C
:100840002C402E402F468BB0A7437DD0B543FCD023
:10085000002E7AD0002CFCD00D465D40ED0F2543D4
:10086000AC1BFF25AD0464190894C502440DC902F0
:100870002143500DDC0204430120C007014304431F
:10088000D2020191200C110C00958C4601042346E4
:100890008B430A9161460904E24D8A430991010A9A
:1008A0007D4449198039097805464D4301266D1864
:1008B000F605751B6943C90C640B891C4C4364180D
:1008C000B5012C1B250C2E04B4434C434D43210C85
:1008D000691889090591009DE90701D00121C9071F
:1008E00004912C4601996708CD072F434C08059DBC
:1008F000E10B4D432D0C29466646754302950D4686
:1009000045432E46029D7D1BB44100950D465D4337
:1009100001942C0C2F040D465543AE462D0C3D433F
:10092000029503947546049C2D04641B049406D21E
:10093000029C039D641C002675410395029401AC42
:1009400070CC009F7D1B01E03EE162E1B4410904EF
:100950000095079101940599A4086143090C0C4680
:100960004443650BE7040C4666467443A646640B95
:100970003C43039502947446049DE4042C1B0494A8
:1009800006D2029C039D641C0026754103950294C7
:1009900001AC70CC009F7D1BB44101940C465C43BC
:1009A0000095650FE7000C465443A646640F3C4390
:1009B000039502947446049DE4002C1B049406D213
:1009C000029C039D641C002675410395029401ACB2
:1009D00070CC009F7D1BB441AE09AF06049DC900D9
:1009E000AD092F43049DA406AD060495079D34432D
:1009F00069180791059DE10B4D432D0C294666466C
:100A0000754302950D4645432E46029D7D1BB4411C
:100A100000950D465D4301942C0C2F040D46554363
:100A2000AE462D0C3D43029503947546049C2D045F
:100A3000641B049406D2029C039D641C002675412D
:100A40000395029401AC70CC009F7D1BB4410194CE
:100A50008C050694079C890A611800950791019CF2
:100A60000599A4086143090C0D464543680BEF0442
:100A70000D46644665436C0B3C43049FED047D1BAF
:100A8000AC4602D20025641C6841009E019D371BC4
:100A900085410846584301950C46460FC50054430E
:100AA000600F28436546E4002C1B02D20025401C41
:100AB0006E41019D3F1AB5412846BD098006284375
:100AC0008446A009BF064E020699A406761807437D
:100AD000079D002068410A99079019430020099B4F
:100AE00000906046FF1913434041E20F64003A430F
:100AF000A4460446D71A8C41A04203D90120009095
:100B000020463A46C70F941840416246D20F22430E
:100B1000644664000494009CBE466400D71AA44650
:100B2000044602978C417746002F01D1A04204D998
:100B30006046401C8446029A2046C40FA64694187C
:100B40004041049A0546D20F224364466400D31AFA
:100B50008D417146002901D1A84202D928461A4682
:100B6000641C10430122002800D0164361020020BB
:100B7000079B891904465C410223002C02DB4918BB
:100B800013466441089DCE0A2D145D194B05670577
:100B9000E10A2C050D1908993E43C9076940002B4D
:100BA00008D0934006D30022761C5141002B01D17E
:100BB000760876001C4A002D43DB154241D0AA433B
:100BC0003FD030460BB0F0BD06180D464D41174CD6
:100BD0007642AC411AD395181C465C41134A6D42CB
:100BE000A24113D3012252054C00D4420AD15C0029
:100BF000D4420BD04B4002D592021143E2E74900A8
:100C00004908DFE75940C90FC90718E00020084923
:100C1000D8E7054801420DD10342F7D0F2E70000C2
:100C20000000FF07012400000000F07F0000E0FF4B
:100C30000000F87F114859400143C0124140002094
:100C4000C0E70123089A9B069A4205DC032252075B
:100C50008918C90FC907B5E7052252078918074A3D
:100C60001143D2125140ADE770B515461C460246FD
:100C70000B4628462146FFF7DFFD70BDFFFFFF7FD3
:100C800030B50346CA02400D1043164D164C0A15E6
:100C900002D02043002A06DBAA1A002A12DDD04027
:100CA000FF2A0BDC30BD5205520D01D14000400837
:100CB000AA1A07D4D0404042FF2A01DD002030BDEF
:100CC0000028FCDD4A00002B01D0012000E00020BC
:100CD000101801225205D042F0D8C817C043604016
:100CE00030BD00001E040000000000801F22030C25
:100CF00002D10F22000402D0030E03D004E0002032
:100D0000014670470002083A030F01D10001121F8B
:100D1000830F01D18000921E002801DB4000521E8B
:100D2000120551184205C012411810467047C10FF4
:100D3000C90700D04042012292071143D6E70121A2
:100D40008907D3E7F0B58B4C0F09254689B0BD4321
:100D50007BD01D092646AE43FAD00E465E402740A2
:100D6000F60F3E43254071D024012142FBD0FF24E1
:100D7000AD19A4042D1B039501252D05DB02DB0A0B
:100D8000C9022B43C90A29431E010901040F130F8D
:100D9000050121431701880B820391432D098C46DD
:100DA000A90B1E438A039543B30B9A0396433F094D
:100DB000BA0B9403A74302962E467E430497B64689
:100DC0004E19D7190C460196544305977E43371B9D
:100DD0007646BF1B3601B646BE0B361900967646E0
:100DE000BC043719009C01D3641C00946400002FDC
:100DF00001D001263443029E049F754366467E431C
:100E00000496760034196E0034190094029C019EF9
:100E10001C196643751BAE46069465464519059C2C
:100E200005956C43594375460891691A0191049ED2
:100E300001465143A41B0491611A009C0791E106ED
:100E400005D061090122114302E072E06EE0610900
:100E5000089D00272C0A2D066918049D7C412A0A4A
:100E60002D066918019D6241AC0DAD026D1854410B
:100E7000079A910D920255196141029A64465843AE
:100E80005443069B059A5A43121A131B9A0E9B0150
:100E90005B187A41010B0005C3185141220A200654
:100EA00044195A419A4200D2491C01204002814211
:100EB00003D315230226F64302E014230326F64348
:100EC0002020C51AA9401746AF40DA400A43204601
:100ED0000399D8400914731819055118039A384317
:100EE000D2075140AC4009D00122944006D30022E1
:100EF000401C5141002C01D1400840001E4A934241
:100F000012D3012203989206904207DB0520400786
:100F100009181A480143C012414004E00320400769
:100F20000818C10FC907002009B0F0BD0020F10763
:100F3000FAE705180C464C4111486D42A04115D303
:100F400094181A465A410E48644290410ED301202B
:100F50004A004005824209D35A00824206D35940D2
:100F6000C90F084AC90700201143DDE700200649E0
:100F7000DAE700000000FF07FE070000FFFFFF7F29
:100F80000000E0FF0000F07F0000F87FFFB504469E
:100F90000D4681B0243000902168880604D51022C7
:100FA000E0699143216000E00120A84201DD471B78
:100FB00000E000270498A1697A191018081AA061A6
:100FC0002078C00602D42046FFF7C6F9002608E0C4
:100FD00003986268A168805D9047206A401C761C77
:100FE000206204988642F3DB2078C0060AD52046AA
:100FF000FFF7B2F906E06268A16830209047206AE6
:10100000401C206238467F1E0028F4DC07E0009870
:101010006268A168405D9047206A401C20622846B3
:101020006D1E0028F3DC2046FFF7ACF9207800069F
:1010300002D5022005B0F0BD0120FBE701694A1C82
:1010400002610878704700B58FB0029100210591C8
:101050000549019379440391114604906846FFF7CE
:10106000EFFA0FB000BD0000E5FFFFFF0A68107047
:10107000521C0A60704710B54369002B02D0C0466D
:10108000C04601E0FFF7A1F9012010BD127801462A
:1010900024310A7000224A700122ECE71168002214
:1010A000D243E8E710B54369002B02D0C046C046E2
:1010B00001E0FFF7FDF9012010BD1288014624313F
:1010C00082840022C2840122ECE711680022D2430C
:1010D000E8E7F8B516460C46054600F02FF8036819
:1010E000FF200230C05C012807D0FF2C0FD8185D0C
:1010F00000280CD001202C70F8BDFF333246214669
:1011000008331868C71828460023B847F8BD0020E0
:10111000C043F8BD01468008081A02091018020AE7
:101120001018020C1018C008820012185200891AF8
:1011300001E0401C0A390A29FBD2704710B500F0C3
:1011400005F8001D10BD00BFF11A000000487047EF
:101150003000002000487047100000207546FFF75F
:10116000F9FFAE46050069465346C008C0008546F3
:1011700018B020B5FFF742F860BCB646002600273D
:10118000C0C5C0C5C0C5C0C5C0C5C0C5C0C5C0C537
:10119000403D490849008D46704710B50446C04699
:1011A000C0462046FFF71AF810BD000082078B07E3
:1011B0009A423FD170B5920F0AD0032402780B787F
:1011C000401C491C002A33D09A4231D12042F5D12B
:1011D000214EF40104C808C9951B9543254018D138
:1011E0009A420FD104C808C9951B9543254010D1D8
:1011F0009A4207D104C808C9951B9543254008D1D8
:101200009A42E7D012BA1BBA01209A4200D2404259
:1012100070BD12BA1BBA2DBA18241000E040190094
:10122000E140401A05D12E00E64002D1083CF4D13D
:10123000D01A70BD02780B78401C491C002A09D0D6
:101240009A4207D102780B78401C491C002A01D031
:101250009A42EFD0D01A70470101010101491820CC
:10126000ABBEFEE7260002007047000080B582B0EA
:101270000020019000F06CFC002821D100F022FC3D
:1012800010480068104901F0D5FB01900198002832
:1012900002D00198401EF8E700F0C2FC00F04AFCC2
:1012A0000028FBD1042001900198002802D0019869
:1012B000401EF8E700F0FEFB00F02EFC0028FBD0FB
:1012C00002B080BD00000020400D030070B58AB060
:1012D00000250995089507950695059504950395AC
:1012E0000295019500F0C6FC00F05CFC00F07CFC6F
:1012F00009950895079501263004069005950E4C32
:1013000005A9204600F02AFC00F082FC00F078FCE1
:1013100000F052FC00F060FC00F0B8FB00F0BCFBF9
:10132000049503950295F007019001A9204600F06D
:10133000D5FB0AB070BDC0460024014080B500F066
:1013400007FC00280DD000F099FB00F0F7FB002807
:10135000FBD100F0A9FB00F085FB00F087FB00F05B
:1013600089FB80BDF0B581B054A001F01BF94B2082
:101370008400204601F0B4F854485549FFF724FA98
:10138000544F3860002808D1504D514E2846314600
:10139000FFF71AFA38600028F8D000F0C9FA4EA01A
:1013A00001F000F9204601F09BF848485349FFF747
:1013B0000BFA3860002808D1444D504E284631467B
:1013C000FFF702FA38600028F8D000F0B1FA4CA01C
:1013D00001F0E8F8204601F083F83C484E49FFF759
:1013E000F3F93860002808D1384D4B4E2846314675
:1013F000FFF7EAF938600028F8D0642001F070F8AF
:101400003868007C2C280CD039680023434A1D46DC
:10141000D318732698556D1CEBB25818007C2C28F5
:10142000F6D100F085FA29483D49FFF7CDF938603B
:10143000002808D1254D3A4E28463146FFF7C4F919
:1014400038600028F8D0642001F04AF83868407C01
:101450002C280CD039680023304A1D46D3187D262D
:1014600098556D1CEBB25818407C2C28F6D100F032
:101470005FFA7D20C00001F033F8284A7D32294D03
:1014800029A12846FEF754FF284601F08BF8204694
:1014900001F026F80D481949FFF796F93860002841
:1014A00008D10A4C154D20462946FFF78DF93860C2
:1014B0000028F8D000F03CFA01B0F0BD41542B4DAB
:1014C00049504C4352454154450D0A008E010020BD
:1014D000772D0008A802002041542B4D49504C4163
:1014E00044444F424A3D302C333332322C312C228B
:1014F00031222C392C300D0A00000000AB2D0008E1
:1015000041542B4D49504C4F50454E3D302C3630B8
:10151000302C36300D0A00008E2D0008700000209F
:101520009C2D00085602002041542B4D49504C443C
:101530004953434F5645525253503D302C25732C3E
:10154000312C392C22353730303B35373031220DB4
:101550000A00000080B500F0EBF906A001F022F8C7
:10156000642000F0BDFFF9488078DD49487000F044
:10157000DFF980BD41542B4E534F43523D444752F7
:10158000414D2C31372C333030352C310D0A0000D1
:1015900010B508A001F006F83224204600F0A0FFA4
:1015A0000DA000F0FFFF204600F09AFFFFF7D2FFEA
:1015B00010BDC04641542B4350534D533D312C2C4C
:1015C0002C30313030303131312C3030303030301F
:1015D00030310D0A0000000041542B4E50534D5243
:1015E0003D310D0A00000000F0B589B000F0B8FCF4
:1015F000002801D100F090FC002108910220079002
:10160000069101910591012000900490042003901F
:101610006A4803A900F0DEFB694800F0C3FF4B20D5
:101620008400204600F05CFF66486749FFF7CCF86D
:10163000664D286000F07CF92868002810D1614EC2
:10164000614F00F075F95E4800F0ACFF204600F0F5
:1016500047FF30463946FFF7B7F828600028F0D03A
:101660005BA000F09FFF204600F03AFF5B4800F0CF
:1016700099FF204600F034FF52485949FFF7A4F87B
:10168000286000F055F92868002810D14D4E544FBD
:1016900000F04EF9514800F085FF204600F020FF91
:1016A00030463946FFF790F828600028F0D000F067
:1016B0003FF94CA000F076FF204600F011FF414EAC
:1016C00041493046FFF780F8286000F031F9494879
:1016D00000F068FF204600F003FF47493046FFF75F
:1016E00073F8286000F024F92868002810D1354EDE
:1016F000414F00F01DF93F4800F054FF204600F034
:10170000EFFE30463946FFF75FF828600028F0D03A
:101710003A4800F047FF2E460294204600F0E0FED3
:1017200028483749FFF750F8286041790A2779435C
:10173000807940181038334D28703246019E15E0EC
:10174000144600F0F5F82D4800F02CFF029800F048
:10175000C7FE1C482A49FFF737F822462060417926
:1017600079438079401810382870761C28786328CF
:10177000E6D0F0B2032803D8116849793029DFD0C8
:10178000032803D872200099295410E07220002108
:1017900029541DA001F078F800F07EFBC8242046F3
:1017A00000F09EFE00F05CFB204600F099FE00F089
:1017B000BFF87220285C09B0F0BDC046000400509C
:1017C0006E2D00088E010020AB2D0008A80200201D
:1017D00041542B4346554E3D310D0A005B2D000808
:1017E000732D000841542B43474154543D310D0A99
:1017F000000000004F2D0008852D0008652D000811
:10180000AE2D000870000020E4BFA1E58FB7E69080
:101810009CE7B4A2E5A4B1E8B4A5EFBC8CE8AFB7EF
:10182000E69FA5E79C8BE58E9FE59BA0210D0A0016
:1018300070B50346002903D0012907D11CA100E09F
:101840000FA1274A73322748FEF772FD254800F0A2
:10185000A9FE642000F044FE3C482349FEF7B4FF93
:10186000224E3060002808D1384C1F4D20462946B2
:10187000FEF7AAFF30600028F8D000F059F870BDDC
:1018800041542B4D49504C4E4F544946593D302CF4
:1018900025732C333332322C302C353730302C3406
:1018A0002C342C253034642C302C300D0A000000F0
:1018B00041542B4D49504C4E4F544946593D302CC4
:1018C00025732C333332322C302C353730312C31D8
:1018D0002C342C2225303464222C302C300D0A007C
:1018E0007000002056020020AB2D0008A802002046
:1018F00080B582B000200190009000F037FB0028F6
:1019000001D100F015FB00F049FD00F0EFFA00F006
:10191000D3FA684602218171012181804903009137
:1019200000F0F6F901F02CF800F0FEFF02B080BDE7
:1019300010B5064C204600F0A7FFC8212046FEF750
:1019400073FF03480021017010BDC0468E010020C6
:10195000A602002080B500F0FBF8012807D100F0B6
:10196000EDF8002803D100F011F9002806D000F0AE
:1019700027F800F0D7F80028FBD080BD00F024F94C
:10198000F7E7000080B50A2000F0AAFD00F060FA39
:10199000002809D100F07AFB002802D000F068FB93
:1019A00002E005A000F070FF00F0FEF9002801D071
:1019B00000F070F980BDC04662746E0D0A00000030
:1019C000EFF3108072B6FEE710B5094801684022B7
:1019D0000A4302600024204600F00CF8002802D0E0
:1019E0000124204610BD00F029F8204610BDC04655
:1019F00000200240B0B504467D20C0000C490978A3
:101A000001F018F801460B48006801F013F800F0E7
:101A100023F80125032C09D8002807D10025E84325
:101A200021462A4600F014F8034804602846B0BD59
:101A300004000020000000200800002094480168F5
:101A4000012211430160110742680A434260704756
:101A500080B500F077FF80BD80B500F043FE80BD0B
:101A6000FEE7000032480121016070473048042140
:101A7000016070472E480821016070476C4801687A
:101A80006C4A0A40911C01607047C04605480168D5
:101A90000422914301607047024801680822914383
:101AA0000160704704240140614801680A4A0A4005
:101AB000026070475E4801685E4A0A40511C01603E
:101AC0007047C0465A480168034A0A400121090785
:101AD000511801607047C046E8FFFF6FB0B50D4672
:101AE000044600F031F8002801D00120B0BDE068C4
:101AF0000849014068680843A9680143E868084349
:101B0000E060032080072169814328680843206141
:101B10000020B0BDC73FFFFF054801680120084015
:101B20007047C046024800684007C00F7047C04673
:101B3000002401403E480068C00F70473C480068E0
:101B40008007C00F7047C046816801200840704779
:101B500037480168012008407047C04670B50D46FF
:101B60000446FFF7F1FF002801D0012070BDE068B6
:101B7000054901404DCD2D680843104318433043BB
:101B80002843E060002070BD3CC2FEFF284800688A
:101B90004007C00F7047C0460148006880B27047D8
:101BA000402401400120400402490A6802430A60BF
:101BB0007047C0462824014002480168042291432E
:101BC000016070470C24014019480168194A0A4015
:101BD000111D01607047C0460120400607490A6890
:101BE00082430A607047C0460720800503490A689F
:101BF00082430120800510180860704708270140C3
:101C0000024801680122914301607047102401409D
:101C10000248016807220A43026070471424014009
:101C200003480168034A1140891818310160704760
:101C300008240140E8FFFF7F81B0012080040549AE
:101C40000A6802430A60096801400091009801B0E7
:101C50007047C0463810024081B0012080030C4913
:101C60000A6802430A60096801400091009801B0C7
:101C70007047C04681B00120400205490A6802430E
:101C80000A60096801400091009801B07047C046A1
:101C90003410024001204003464908607047C046A6
:101CA0000E490A6882430A607047C0460F490A68B5
:101CB00082430A607047C04610490A6882430A603E
:101CC0007047C04611490A6882430A607047C0469F
:101CD00002490A6802430A607047C0460404014092
:101CE00002490A6802430A607047C0460C0401407A
:101CF00002490A6802430A607047C0460004014076
:101D000002490A6802430A607047C046080401405D
:101D1000B0B504460068217900290ED0002814D0FF
:101D20006179022914D0012915D000291AD1FFF7B1
:101D3000B7FF2068FFF7DCFF12E0FFF7BDFF206868
:101D4000FFF7AEFF00252846B0BD00252846B0BDF0
:101D5000FFF7CEFF01E0FFF7AFFF2068FFF7B8FF06
:101D6000002500E00125A07903280ED878440079E9
:101D70004000874401020D11E5E72068FFF796FF58
:101D80002068FFF7BDFF2846B0BD01252846B0BD3D
:101D90002068FFF797FF02E02068FFF7B1FF206897
:101DA000FFF79EFF2846B0BD024800688004C00FC0
:101DB0007047C046140401400548016801200840EE
:101DC0007047C0460248016801220A43026070471A
:101DD00000200240F0B581B005460868002833D0E5
:101DE0000C4600270EE062692846314600F048F8AC
:101DF00062682846314600F055F87F1C206801468D
:101E0000F94021D00126BE400640F6D06068401E51
:101E1000012809D8A2682846314600F073F8E26824
:101E20002168284600F052F822692846314600F021
:101E300053F860680228DBD1FF2ED4D862692846A7
:101E4000314600F013F8D3E7002001B0F0BD0000E8
:101E5000024800688004C00F7047C0461008005058
:101E60000148042101607047280400504943494358
:101E70004A430F234B43016A994311430162704760
:101E8000090A494349434A430F234B43416A994353
:101E9000114341627047000001480421016070470E
:101EA0001804005049434A4303234B4301689943B4
:101EB00011430160704700000320800602490A6850
:101EC00082430A607047C046000800504A43436896
:101ED0008B4313434360704749434A4303234B43B7
:101EE000C16899431143C160704700000320800618
:101EF00003490A6882430120800610180860704771
:101F00000C08005049434A4303234B4381689943DB
:101F1000114381607047000081B0174801680222B8
:101F200011430160006810400090009801B07047B4
:101F300081B011480168042211430160006810401B
:101F40000090009801B0704781B00B4801680222F0
:101F500011430160006810400090009801B0704784
:101F6000054800688007C00F7047C04602480068F7
:101F70004007C00F7047C0462C100240054801685A
:101F800001220A43026070470248016820220A4386
:101F9000026070470048004070B50E46054600F0EC
:101FA00037F80124002801D0204670BD2868104968
:101FB000014070680843F1680143306908432860B4
:101FC000B168284600F047F87169284600F03CF8EF
:101FD0000320800200F090F80028E5D03268002A43
:101FE000E2D00146284600F01DF80024204670BDCE
:101FF000F3E9FFEF054800688006C00F7047C04650
:10200000024800684006C00F7047C0461C480040A8
:10201000016801200840704701480068C0B270475D
:1020200024480040B0B504460D0E500809020023B4
:1020300008185D412946FEF7F3F802490140E160C6
:10204000B0BDC046FFFF0F00032212028368934316
:102050000B438360704703221203436893430B438F
:1020600043607047014908607047C04628480040F7
:102070000F48016804220A430260704701200002F1
:102080000B490A6802430A607047C046024801686B
:10209000012008407047C046047000400320C00281
:1020A00003490A6882430120C00210180860704783
:1020B0000070004001208004A9490A6802430A60B8
:1020C0007047C0460120C004A5490A6802430A605F
:1020D0007047C046AC480168F02008407047C046D1
:1020E00007200102A8480068084070470720C10285
:1020F000A54800680840704780B500F027F80A211D
:10210000C841032806D002280AD0012812D100F0C5
:1021100081FA80BD00F0BEF8411E8841C00380BD39
:1021200000F0ACF800280CD000F0AEF800280AD07F
:10213000464880BD00F06EFA00F048FA00F054FA0C
:1021400080BD002080BD404880BDC04692490968DE
:102150000840704703200104814800680840704728
:10216000894801680C2008407047C04686480168CD
:102170000C2008407047C046B0B50546002403282F
:1021800029D1032000F066F82C49884208D02C4958
:1021900088420DD02B49884216D100F03BFA19E055
:1021A00000F078F8411E8841C4030C2D3ED114E0A4
:1021B00000F064F800280ED000F066F8002837D050
:1021C000224C0C2D32D108E000F024FA00F0FEF988
:1021D00000F014FA04460C2D28D10C2000F03AF837
:1021E0001B4940180221C841032806D002280CD000
:1021F000012814D100F00EFAB0BD00F04BF8002811
:1022000001D00120C4032046B0BD00F037F80028FB
:102210000CD000F039F800280ED00C48B0BD00F00A
:10222000F9F900F0D3F900F0DFF904462046B0BD1B
:10223000054C0C2DFAD1D0E70348B0BD03000300D4
:1022400002000300010003000024F40000093D0027
:102250000000F4FF5049096801400004084370473A
:102260000120000444490A6802430A607047C046DE
:10227000414800688003C00F7047C0463E48006870
:102280004007C00F7047C0463B480068C006C00FFB
:102290007047C046324800688005C00F7047C0468E
:1022A00007204103014800680840704704100240BD
:1022B000FD20000434490A6882434D2000041018B0
:1022C00008607047012000062B490A6802430A6033
:1022D0007047C046032081052B48006808407047BE
:1022E0000120010428480068084070470F2081043D
:1022F00025480068084070471F4800688001C00FEB
:102300007047C0460120C00415490A6882430A602C
:102310007047C0461C480168F02291430160704735
:102320000720000218490A6882430A607047C046C5
:102330000720C00214490A6882430A607047C046F9
:102340000320800214490A6882430A607047C0462D
:102350000320000402490A6802430A607047C0462D
:10236000501002400320000503490A6882430120FF
:1023700040051018086070470010024002480168CC
:1023800003220A43026070470C10024002480168B1
:1023900003229143016070474C10024003480168DA
:1023A00020220A43D0218A43026070471400014072
:1023B000014908607047C046000000200920C002A3
:1023C00004490A6882430A6048682A2290434860A8
:1023D0007047C046043801402048016801220A4382
:1023E0000260704770B50E46054600F043F80124C0
:1023F000002801D0204670BD286817490140706848
:102400000843F168014330690843B1690143296019
:10241000B168284600F057F87169284600F04CF87A
:102420000E48854204D00E48854208D10C2000E0B9
:102430000320FFF7A1FE0146002903D1DAE70021BE
:102440000029D7D03368002BD4D0B269284600F0D9
:1024500015F80024204670BDF369FFEF00380140F5
:1024600000440040024800684006C00F7047C04664
:102470001C380140016801200840704710B504462F
:102480000120C00382420CD148005908081819469F
:1024900000F0D0FA074901400007400F4018E06003
:1024A00010BD58084018194600F0C4FA80B2E06028
:1024B00010BDC046F0FF0000032212028368934360
:1024C0000B438360704703221203436893430B431B
:1024D00043607047014908607047C0462838014092
:1024E00081B089490A680092401C01D30020C04392
:1024F000009A002804D00A68D203D2171018FAD123
:1025000001B07047F0B58FB000240E940D940C9478
:102510000B940A94099408940794069405940494DF
:102520000394FFF789FBFFF70FFD0420029008904A
:102530000794069403200190059002270497012533
:10254000A8020390CE4803AE3146FFF743FC029841
:10255000089007940694019805900497E802039068
:10256000C7483146FFF736FC1D252846214600F0B6
:1025700013FA284600F0DCF90E940C200D900C9410
:102580000B940A944B20C0010990054809A9FFF754
:1025900003FDFFF7F3FCFFF7F7FC0FB0F0BDC046FB
:1025A0000048004010B50446007800280BD0FFF723
:1025B00027FD0128FBD12078FFF754FD601C6178CE
:1025C00000290446F3D110BD7047704710B504468A
:1025D000FFF780FD0006000F0249085CC44020465A
:1025E00010BDC046252D000810B50446FFF778FD44
:1025F000000A0749085CC440204610BD10B50446D7
:10260000FFF774FDC00A0249085CC440204610BDB3
:10261000352D000810B5FFF7A3FD0221C84103289E
:102620000ED81F4C784400794000874401110F17E1
:1026300001200404FFF734FE400B8440204610BD07
:1026400001200404FFF72CFE400B8440204610BDFF
:10265000FFF71AFE002804D0134810BD00F004F85C
:1026600010BD104810BDC046B0B5FFF739FE0028B8
:1026700001D00B4D06E0FFF707FE002801D00A4D00
:1026800000E0084DFFF732FE800C08490C5C6C43FB
:10269000FFF720FE800D411C204600F0CBF9B0BDB5
:1026A00000127A000024F40000093D003D2D0008CE
:1026B00080B5FFF79FFC00280DD0FFF7ADFC064961
:1026C0000A78064B9854501C0870C0B2C0081928EC
:1026D00001D30020087080BDA60200208E010020DA
:1026E00070470000B0B5401E010E01D00120B0BD02
:1026F000054D68600024E043032100F023F9AC603D
:10270000072028602046B0BD10E000E070470000C0
:1027100010B5FFF757FBFFF74FFB0128FBD1FFF781
:10272000BDFCFFF79DFDFFF7A3FD0128FBD1FFF7DF
:10273000A5FC03200404FFF70DFDA04205D0FFF720
:10274000C1FCFFF7DFFDFFF703FEFFF70BFEFFF70E
:10275000B1FCFFF7ADFDFFF7B5FDFFF7CDFD01289B
:10276000FBD1FFF7D7FDFFF7DBFDFFF7E1FDFFF73B
:1027700005FEFFF7FBFC0C28FBD10748FFF718FE0E
:102780000020FFF737F9002801D0FFF719F9FFF70C
:10279000FDFDFFF7D5FD10BD0048E8010120020254
:1027A0000E490B6813430B60CA680D4B1340CB6096
:1027B0000A680C4B13400B608A6882438A6082046B
:1027C0000B6893430B60FD221204CB689343CB60EC
:1027D00000220A61C00604490860704700100240E8
:1027E0000C40FF88F6FFF6FE08ED00E0F0B58DB076
:1027F00000260C960B960A9609960896079606965A
:10280000059604960396029601960096FFF724FA21
:10281000FFF79AFB05960496039603270297022476
:1028200001944020009016486D462946FFF7D2FAE1
:102830000596049603960297019480200090104814
:102840002946FFF7C7FA1B240121204600F0A4F80F
:10285000204600F06DF80C960B960C200A90099615
:10286000089607964B20C0010690064806A9FFF778
:10287000B9FDFFF7A3FDFFF7AFFD0DB0F0BDC046FA
:10288000000400500038014010B5044600780028CC
:102890000BD0FFF7E7FD0128FBD12078FFF71AFEE8
:1028A000601C617800290446F3D110BDF0B581B0F9
:1028B00019480588FEF7DAFC00263446FFF74AF887
:1028C000FFF76AF9201884B2701C042E0646F5D36F
:1028D0002846FEF734FA0025104B2A46FEF732FA56
:1028E0000F4B2A46FEF72EFA06460F462046FEF705
:1028F0001EFA02460B4630463946FDF79DFF094B4E
:102900002A46FEF71FFAFEF7BBF90446FEF716FD4E
:10291000204601B0F0BDC0467800F81F00408F404F
:102920000000144000000840054880210160704705
:102930001F21014001208840014908607047C046BE
:1029400000E100E0002805D40322034693431B4A1C
:102950009A1806E00F220240083A03239A43074BD5
:10296000D2188007C00E8901C9B28140FF2383407D
:1029700010689843084310607047C0461CED00E0A3
:10298000FF20000603490A688243012080071018CF
:102990000860704704E400E010B5C0B28207D20EB0
:1029A000FF239340054C00190324A04304689C4373
:1029B0008901C9B291402143016010BD00E400E0EB
:1029C00088B0FFF701F8FFF7A3FEFFF70FFF1448E9
:1029D000FFF75AFFFEF78CFFFFF794FDFEF704FEAA
:1029E00010490870002801D0FEF7BCFCFEF7D0FDAE
:1029F000FEF76CFC0CA4FFF759FF05466E46304607
:102A000021462A46FDF794FC3046FFF73DFF0121A1
:102A10002846FEF70DFF7D200001FFF761FDEAE784
:102A2000462D00088D010020766464613A2568789F
:102A30000D0A000043088B421AD3002203098B427F
:102A400079D3030A8B425ED3030B8B4242D3030C30
:102A50008B4227D30902FF2212BA030C8B4202D306
:102A60001212090203D0030B8B4233D31AE0D3E0D6
:102A7000411A8041401C704703460B4371D4430800
:102A80008B42F5D3002203098B4254D3030A8B42B5
:102A900039D3030B8B421DD3030C8B4202D39446D4
:102AA0006EE0090AC30B8B4201D3CB03C01A52411B
:102AB000830B8B4201D38B03C01A5241430B8B42D1
:102AC00001D34B03C01A5241030B8B4201D30B03BA
:102AD000C01A5241C30A8B4201D3CB02C01A5241E1
:102AE000830A8B4201D38B02C01A5241430A8B42A4
:102AF00001D34B02C01A5241030A8B4201D30B028D
:102B0000C01A5241CDD2C3098B4201D3CB01C01AA6
:102B1000524183098B4201D38B01C01A52414309B0
:102B20008B4201D34B01C01A524103098B4201D39E
:102B30000B01C01A5241C3088B4201D3CB00C01A0B
:102B4000524183088B4201D38B00C01A5241430883
:102B50008B4201D34B00C01A5241411A524110001E
:102B60007047CA0F00D04942031000D3404253407F
:102B700000229C4603098B422DD3030A8B4212D3B9
:102B80008901FC2212BA030A8B420CD389019211EB
:102B90008B4208D3890192118B4204D3890137D02B
:102BA000921100E08909C3098B4201D3CB01C01AFD
:102BB000524183098B4201D38B01C01A5241430910
:102BC0008B4201D34B01C01A524103098B4201D3FE
:102BD0000B01C01A5241C3088B4201D3CB00C01A6B
:102BE000524183088B4201D38B00C01A5241D9D283
:102BF00043088B4201D34B00C01A5241411A00D204
:102C000001465241104663465B1000D34042704774
:102C100063465B1000D3404201B50021004201D061
:102C2000C9430846C046C04602BD30380A2801D212
:102C3000012070470020704710B500290AD008789D
:102C4000002807D005487844FEF7B0FA002801D0E4
:102C5000002010BD0248784410BD00008E01000025
:102C60008601000000000000000000003031323317
:102C700034353637383941424344454640305800B0
:102C800030313233343536373839616263646566E2
:102C9000403078000400000800000000000000023E
:102CA000000100001080807F7E7D7C7B7A797877C0
:102CB0007676757473727171706F6E6E6D6C6C6B0D
:102CC0006A6A6968686766666564646363626161AD
:102CD00060605F5F5E5E5D5D5C5C5B5B5A5A59592C
:102CE0005858575756565555555454535352525297
:102CF00051515050504F4F4F4E4E4D4D4D4C4C4CEE
:102D00004B4B4B4A4A4A4949494848484747474735
:102D10004646464545454444444443434343424272
:102D20004242414141000000000000000001020356
:102D3000040607080900000000010203040304065A
:102D4000080C101820307573617274310D0A00413F
:102D5000542B43474154543F0D0A0041542B4349DF
:102D60004D490D0A0041542B4353510D0A00415463
:102D70000D0A00343630002B4D49504C435245412A
:102D800054453A30002B43474154543A31002B4DBF
:102D900049504C4F4253455256453A002B4D4950ED
:102DA0004C444953434F5645523A004F4B002B4336
:102DB00053510000E82E0008000000201000000021
:102DC00004010008F82E000810000020A0080000F0
:102DD000200100081001000043000000F8FFFFFF81
:102DE000004040404040404040404141414141401E
:102DF00040404040404040404040404040404040D3
:102E00004005020202020202020202020202020261
:102E10000220202020202020202020020202020266
:102E200002029090909090901010101010101010BE
:102E300010101010101010101010101002020202CA
:102E4000020288888888888808080808080808080E
:102E5000080808080808080808080808020202020A
:102E60004000000000000000000000000000000022
:102E70000000000000000000000000000000000052
:102E80000000000000000000000000000000000042
:102E90000000000000000000000000000000000032
:102EA0000000000000000000000000000000000022
:102EB0000000000000000000000000000000000012
:102EC0000000000000000000000000000000000002
:102ED00000000000000000000000000000000000F2
:102EE00000000000000000000000200001000000C1
:082EF0000400000000000000D6
:04000005080000C12E
:00000001FF
